{
  "contractName": "KnownOriginV1TokenSwap",
  "abi": [
    {
      "constant": true,
      "inputs": [],
      "name": "kodaV2",
      "outputs": [
        {
          "name": "",
          "type": "address"
        }
      ],
      "payable": false,
      "stateMutability": "view",
      "type": "function"
    },
    {
      "constant": false,
      "inputs": [],
      "name": "renounceOwnership",
      "outputs": [],
      "payable": false,
      "stateMutability": "nonpayable",
      "type": "function"
    },
    {
      "constant": true,
      "inputs": [],
      "name": "kodaV1",
      "outputs": [
        {
          "name": "",
          "type": "address"
        }
      ],
      "payable": false,
      "stateMutability": "view",
      "type": "function"
    },
    {
      "constant": true,
      "inputs": [],
      "name": "owner",
      "outputs": [
        {
          "name": "",
          "type": "address"
        }
      ],
      "payable": false,
      "stateMutability": "view",
      "type": "function"
    },
    {
      "constant": true,
      "inputs": [
        {
          "name": "",
          "type": "bytes16"
        }
      ],
      "name": "oldToNewEditionMappings",
      "outputs": [
        {
          "name": "",
          "type": "uint256"
        }
      ],
      "payable": false,
      "stateMutability": "view",
      "type": "function"
    },
    {
      "constant": true,
      "inputs": [],
      "name": "archiveAddress",
      "outputs": [
        {
          "name": "",
          "type": "address"
        }
      ],
      "payable": false,
      "stateMutability": "view",
      "type": "function"
    },
    {
      "constant": false,
      "inputs": [
        {
          "name": "_newOwner",
          "type": "address"
        }
      ],
      "name": "transferOwnership",
      "outputs": [],
      "payable": false,
      "stateMutability": "nonpayable",
      "type": "function"
    },
    {
      "inputs": [
        {
          "name": "_kodaV1",
          "type": "address"
        },
        {
          "name": "_kodaV2",
          "type": "address"
        },
        {
          "name": "_archiveAddress",
          "type": "address"
        }
      ],
      "payable": false,
      "stateMutability": "nonpayable",
      "type": "constructor"
    },
    {
      "anonymous": false,
      "inputs": [
        {
          "indexed": false,
          "name": "_oldTokenId",
          "type": "uint256"
        },
        {
          "indexed": false,
          "name": "_newTokenId",
          "type": "uint256"
        },
        {
          "indexed": false,
          "name": "_oldEdition",
          "type": "bytes32"
        },
        {
          "indexed": false,
          "name": "_newEditionNumber",
          "type": "uint256"
        }
      ],
      "name": "TokenSwapped",
      "type": "event"
    },
    {
      "anonymous": false,
      "inputs": [
        {
          "indexed": true,
          "name": "previousOwner",
          "type": "address"
        }
      ],
      "name": "OwnershipRenounced",
      "type": "event"
    },
    {
      "anonymous": false,
      "inputs": [
        {
          "indexed": true,
          "name": "previousOwner",
          "type": "address"
        },
        {
          "indexed": true,
          "name": "newOwner",
          "type": "address"
        }
      ],
      "name": "OwnershipTransferred",
      "type": "event"
    },
    {
      "constant": false,
      "inputs": [
        {
          "name": "_oldTokenId",
          "type": "uint256"
        }
      ],
      "name": "tokenSwap",
      "outputs": [],
      "payable": false,
      "stateMutability": "nonpayable",
      "type": "function"
    },
    {
      "constant": true,
      "inputs": [
        {
          "name": "oldEdition",
          "type": "bytes16"
        }
      ],
      "name": "oldToNewEdition",
      "outputs": [
        {
          "name": "newEdition",
          "type": "uint256"
        }
      ],
      "payable": false,
      "stateMutability": "view",
      "type": "function"
    },
    {
      "constant": true,
      "inputs": [
        {
          "name": "_tokenId",
          "type": "uint256"
        }
      ],
      "name": "editionMapping",
      "outputs": [
        {
          "name": "newEdition",
          "type": "uint256"
        }
      ],
      "payable": false,
      "stateMutability": "view",
      "type": "function"
    },
    {
      "constant": true,
      "inputs": [
        {
          "name": "_tokenId",
          "type": "uint256"
        }
      ],
      "name": "isApprovedForTransfer",
      "outputs": [
        {
          "name": "",
          "type": "bool"
        }
      ],
      "payable": false,
      "stateMutability": "view",
      "type": "function"
    }
  ],
  "bytecode": "0x608060405234801561001057600080fd5b5060405160608061162b83398101604090815281516020830151919092015160008054600160a060020a03191633179055600160a060020a03831615156100b857604080517f08c379a000000000000000000000000000000000000000000000000000000000815260206004820152601760248201527f4d697373696e67204b4f44412056312061646472657373000000000000000000604482015290519081900360640190fd5b600160a060020a038216151561012f57604080517f08c379a000000000000000000000000000000000000000000000000000000000815260206004820152601760248201527f4d697373696e67204b4f44412056322061646472657373000000000000000000604482015290519081900360640190fd5b600160a060020a03811615156101a657604080517f08c379a000000000000000000000000000000000000000000000000000000000815260206004820152601c60248201527f4d697373696e67204b4f44412061636869657665206164647265737300000000604482015290519081900360640190fd5b60038054600160a060020a03928316600160a060020a0319918216179091556001805494831694821694909417909355600280549290911691909216179055600460205260647f8396fdf6ec2af0bcb061abc37ca80523bd985f5ad5726053c2e49ab06ee5e43c5560c87f8ea0880f7d0f1b00757dced0581d4398ef1a528e7755e72d101773c5dfbb511f5561012c7f75d3b4351d3735976deac690c6b14b9c51a21892fc004c048b7b8c9131ddd150556101907fdc6e44ab58a2fa7ba41d369629c4af9a106ba564a16b9131c1a03088f43b8c40556101f47ff17aa39387ff6e41ccd98772e9e38c2e0f1c3ae372f0158c2adb78898eb4be31556102587fb00a277ff6ed7b9676651e9421127d369e0d32799ca1a01c06dccf57f383680b556102bc7f89174fb9ceaaa0884903041ccb4da66baa7c5c1e25127e0ef662301a6df80456556103207f9c0d70501d6cf44e9465b0925ac229267100acaab53a34e5c13c2da38db93e2b556103847fc0072cb1949c39fdcb65b78e30baa323eed5158a9d98185ded84a3b862f1ca3b556103e87ff30b19235b5ce910b2a02644520c48cda45dc3fadd4bf43a9e2ad6dfce5709bb5561044c7f020d4d77db3c225d619a3cf8ed24e47f88f41632532184f0a7bb8562d672e05f556104b07fb8b66e61ffb559d91217cd0536c384ce8e4c16a2129d63251887b779899d8a20556105147f9878691a954ae0cc0065ffdce91ad1ee04e7e17c48abbdd875b1d85583c7962f556105787f45b6212739ddae78314177b24d29fbf84d457d8ad3a3b0a03de04aeecd9bf547556105dc7fad29efddb0127922047a13aeb9d1a8e81103b212d031f17174307d1f75ad9481556106407f75168c56674c1428de17efe7d8141a9a49a9d1ab7a53353257e6572d9d2f0191556106a47ff1f568711170509b374933db2c863f3501dc2a8fb92fcda5aecf17da24163444556107087f6a24d7080dff38e4fd28d51dc6dc074359659f72ba741080adbd5fa17c4afcea5561076c7fd1ab46cc6f6e9651ba1131d468c786a6b545d58a9a314bbf4c8977f12509fcff556107d07f078247cd8b560c0e58275849b13648d3dfb18764718a5758d73ff4be8a4c19f8556108347fabf5d7602f9ae4792760edd31199493762920fe385d704bc2be70e8e45f9e874556108987f19ba5271dff149d4d34b7281598a3f240bfcb8abcc59d1d29fbb31d4419274b8556108fc7f22d19fa50e7969eee3a319aeb67b327d36d146fc206bd4a30f661b9014e5565b556109607f2bfed7a35060d14360d1cde0051f7c73f0a6cac3068df94543116483cc0761ec556109c47fcf208efd4919e7f88abfcc79fa0bd57c01eafa46491becb8043e1e60bb6b135d55610a287fd3b0a56bbed233487b62b588c5b10415b61ccd310f465da74bd75ddfa542448f55610a8c7f2e30d924ad2aa7cddbba4b2a666cc8fe018387a7e81073ff3258d452f26de8b055610af07fd10a87d98a1a5623f3605455a02d413df0ec23332370f00a6d2229aaa8aac14455610b547f066a7c4c36e3985e94365770bc39e5bb20bbe0c071adb2c7bcd4cc0b0a0bb5db55610bb87fc074115fdbbc8cf97eb5629784d42e836a9c7eded96ea1186c224ccf7bef887755610c1c7f101d1b39c01254e759164288e9b6ba30ab0b56a810c4e71ee2fbb8db0d71dabf55610c807f73b05c1cf4970f0b1b17c78177d2d37349eb9de16fec710cbe2172850d2020c355610ce47f1363d9858c5a62a774c7fbbb227236ee9fb76d5c849cdde85c8811bd2963ab0a55610d487fe68a4eea6856f8ae0e91a7c510e4f85589e9ba95f7e8953d3eb912e488b0f02e55610dac7f67744ddc1187499460e9b66c268a7b9ebf718bfd56913ecb693ee8612a76b6f555610e107fb8b3f482aa997a9e5c6bcfe81dbdc51d711699a7e3c08d96bdb39880bccc146255610e747f64c7edceb4cf7d629f84d698bcf76bc0944d8252578929939b574aa7df60ac2455610ed87fb1c62dde25b4fb459a883d14f678b1d85ea0a6343ac9185effe8a739ffa0bc8c55610f3c7fe43aa2d4891c1a9a983463bdcaf21c2c37fd7eda26cc5a2080f52aa183b71dfa55610fa07fea54fc9cc050326547a33d0a5eb25a984c4fef69555cb87152df53cf12b5e55a556110047f64bd894469d4fd2b863e6c37da3d81e31a96f323c7d81e6da96ccfb4e12a258d556110687fa0a9d8eeb279e967f57686ba9f23746352cf9b03a165c98dc1a34934f4de457f556110cc7f964e155e4a0d86c340d84a80ce9875218a883594df49b1e696093cd5dd0aaeb8556111307f5d22797ee0012214eb5428cfe2553d9dca2b21f29dfe72e481fc874cb7ffd51f556111947f950135dadb8cd91a92f2968a5df63dc8023a6ad683b9c7f58e22bc2c4e3d2604556111f87f2e4eb3c7c3ddf9f0f2bb9a651c081563da2db6688bb4928a39648018c5f17c455561125c7f55ac2434dc1f46e18a5c44906ff8e9fdfc76f61e06749152d0c2b54772025611556112c07f2daed7af67a457f62ae6dc718c51e7e7676005efe3dc743c0cb57930dfb3c6af556113247f45148b3d8e12f35046569d2b5bad58793176c7a476d2ba12be8242249fe0f91b556113887f15d46871fdcc2469e5bafe192f59516372a4ac6583429646ac85ad48bc0e6584556113ec7ff27b30ebdd6d91fc77d3a8369fcfceb9c0c257592ae66bae330953424d5e0db0556114507fceddd1f31df486b69fecdf639e1fbbb102e46d7491204c5804fe88655cb9b9cc556114b47f1755811b9660813bcb060cd8581542c5d7c97dc6ce8165f56209f2169c0a0b7c556115187f0a370d9cc4be3a0fc10983456474f0d178daadb7c2ee87b3af84845c3adc6ca25561157c7f3453697a04992aca3a90daacfee9a12f2835a1900295f2b28cc2c9cfb4852277556115e07f51343cef831cb110e8acf413ce8d22a0560fc5a3e3589cd88fad0f99dd1ada32556116447f5cf1145a9193fab30380f4d9151b84164a44f51e8f32ad002c8b0b16d8efe9a1556116a87f9cfd7f934d8dbae936cb365c9918c6086db334dac9a46bebc96d79c71a86ffb45561170c7f153538236df375248150a576f0680ad4f95234ea32983529ea76a53899c25239556117707f78f86352cb10f8cfff1822a632639d7208839407e9539e45d61bd16a901ffae8556117d47f3389d7614051745e7e47109df9342a8595d04cbd33459bf4d7275ef5548b4183556118387fe85c2ac30a34f22820e648249399115cae9626abea41830f4c998213cb2d2efc5561189c7f8ddb890ae378c22704aa91e8055aa4cb647cc4ab797c7c5706192d2848826a0f556119007fea7764d1ea9ee3f753e4d137283ca4dd142e93a2d0472a4f8f64af3a2a380fa3556119647ff70e3a05451160183c88af85668c49128067acca20d4caa18d620a55f9760021556119c87f7f25ddfbdd0195276979e0846beb0f3b37c0d4c4b403194db8f1e5e661f732c955611a2c7f215575b42747d1952a42ab351e6c241d47761704060d6eb31a951caa81c82fbf557f464b414d41525449414e424e4744494700000000000000000000000000000000600052611a907fed5243b9a693b4bc8ef410b5d176bef1a08e9c2a9e7d3344e6101ac3eb96849d55610a3c80610bef6000396000f3006080604052600436106100ae5763ffffffff7c01000000000000000000000000000000000000000000000000000000006000350416632280b7a881146100b35780632813b674146100cd5780635b638fa5146100f9578063715018a61461012a5780638b5bbb561461013f5780638da5cb5b14610154578063b7cda0b014610169578063c3450c5e146101a6578063ccf6a54c146101bb578063dd647121146101d3578063f2fde38b146101fe575b600080fd5b3480156100bf57600080fd5b506100cb60043561021f565b005b3480156100d957600080fd5b506100e5600435610697565b604080519115158252519081900360200190f35b34801561010557600080fd5b5061010e6107d1565b60408051600160a060020a039092168252519081900360200190f35b34801561013657600080fd5b506100cb6107e0565b34801561014b57600080fd5b5061010e61084c565b34801561016057600080fd5b5061010e61085b565b34801561017557600080fd5b506101946fffffffffffffffffffffffffffffffff196004351661086a565b60408051918252519081900360200190f35b3480156101b257600080fd5b5061010e61087c565b3480156101c757600080fd5b5061019460043561088b565b3480156101df57600080fd5b506101946fffffffffffffffffffffffffffffffff196004351661094b565b34801561020a57600080fd5b506100cb600160a060020a0360043516610970565b600154604080517f4be185f0000000000000000000000000000000000000000000000000000000008152600481018490529051600092839283928392600160a060020a031691634be185f091602480830192602092919082900301818787803b15801561028b57600080fd5b505af115801561029f573d6000803e3d6000fd5b505050506040513d60208110156102b557600080fd5b50516fffffffffffffffffffffffffffffffff19811660009081526004602081815260408084205460025482517fc2b2fb5e00000000000000000000000000000000000000000000000000000000815294850182905291519599509750600160a060020a03169363c2b2fb5e936024808501948390030190829087803b15801561033e57600080fd5b505af1158015610352573d6000803e3d6000fd5b505050506040513d602081101561036857600080fd5b505115156103d757604080517f08c379a000000000000000000000000000000000000000000000000000000000815260206004820152601b60248201527f45646974696f6e206e756d626572206973206e6f742076616c69640000000000604482015290519081900360640190fd5b600154604080517f6352211e000000000000000000000000000000000000000000000000000000008152600481018890529051600160a060020a0390921691636352211e916024808201926020929091908290030181600087803b15801561043e57600080fd5b505af1158015610452573d6000803e3d6000fd5b505050506040513d602081101561046857600080fd5b5051915061047585610697565b151561050857604080517f08c379a000000000000000000000000000000000000000000000000000000000815260206004820152602d60248201527f546f6b656e207377617020636f6e7472616374206e6f7420617070726f76656460448201527f20666f72207472616e7366657200000000000000000000000000000000000000606482015290519081900360840190fd5b600254604080517f7d55758f000000000000000000000000000000000000000000000000000000008152600160a060020a0385811660048301526024820187905291519190921691637d55758f9160448083019260209291908290030181600087803b15801561057757600080fd5b505af115801561058b573d6000803e3d6000fd5b505050506040513d60208110156105a157600080fd5b5051600154600354604080517f23b872dd000000000000000000000000000000000000000000000000000000008152600160a060020a0387811660048301529283166024820152604481018a905290519394509116916323b872dd9160648082019260009290919082900301818387803b15801561061e57600080fd5b505af1158015610632573d6000803e3d6000fd5b505060408051888152602081018590526fffffffffffffffffffffffffffffffff198816818301526060810187905290517fefd81fc1f153bdad7ca7a43a30eb15b02f67d78dd7a6cc49d26a3d55c54a74b59350908190036080019150a15050505050565b600154604080517f6352211e0000000000000000000000000000000000000000000000000000000081526004810184905290516000928392600160a060020a0390911691636352211e9160248082019260209290919082900301818787803b15801561070257600080fd5b505af1158015610716573d6000803e3d6000fd5b505050506040513d602081101561072c57600080fd5b5051600154604080517fe985e9c5000000000000000000000000000000000000000000000000000000008152600160a060020a038085166004830152306024830152915193945091169163e985e9c5916044808201926020929091908290030181600087803b15801561079e57600080fd5b505af11580156107b2573d6000803e3d6000fd5b505050506040513d60208110156107c857600080fd5b50519392505050565b600254600160a060020a031681565b600054600160a060020a031633146107f757600080fd5b60008054604051600160a060020a03909116917ff8df31144d9c2f0f6b59d69b8b98abd5459d07f2742c4df920b25aae33c6482091a26000805473ffffffffffffffffffffffffffffffffffffffff19169055565b600154600160a060020a031681565b600054600160a060020a031681565b60046020526000908152604090205481565b600354600160a060020a031681565b600154604080517f4be185f00000000000000000000000000000000000000000000000000000000081526004810184905290516000928392600160a060020a0390911691634be185f09160248082019260209290919082900301818787803b1580156108f657600080fd5b505af115801561090a573d6000803e3d6000fd5b505050506040513d602081101561092057600080fd5b50516fffffffffffffffffffffffffffffffff19166000908152600460205260409020549392505050565b6fffffffffffffffffffffffffffffffff191660009081526004602052604090205490565b600054600160a060020a0316331461098757600080fd5b61099081610993565b50565b600160a060020a03811615156109a857600080fd5b60008054604051600160a060020a03808516939216917f8be0079c531659141344cd1fd0a4f28419497f9722a3daafe3b4186f6b6457e091a36000805473ffffffffffffffffffffffffffffffffffffffff1916600160a060020a03929092169190911790555600a165627a7a723058207871d044a877a2f1a6d179fd3625c2566eba4dad2ca540d94f0ef9dc9f218d0b0029",
  "source": "pragma solidity ^0.4.24;\n\nimport \"openzeppelin-solidity/contracts/ownership/Ownable.sol\";\nimport \"openzeppelin-solidity/contracts/math/SafeMath.sol\";\n\ncontract KODAV1 {\n  function editionOf(uint256 _tokenId) public view returns (bytes16 _edition);\n\n  function ownerOf(uint256 _tokenId) public view returns (address);\n\n  function exists(uint256 _tokenId) public view returns (bool);\n\n  function isApprovedForAll(address _owner, address _operator) public view returns (bool);\n\n  function transferFrom(address _from, address _to, uint256 _tokenId) public;\n}\n\ncontract KODAV2 {\n  function underMint(address _to, uint256 _editionNumber) public returns (uint256);\n\n  function editionExists(uint256 _editionNumber) public returns (bool);\n}\n\ncontract KnownOriginV1TokenSwap is Ownable {\n  using SafeMath for uint;\n\n  event TokenSwapped(uint256 _oldTokenId, uint256 _newTokenId, bytes32 _oldEdition, uint256 _newEditionNumber);\n\n  KODAV1 public kodaV1;\n\n  KODAV2 public kodaV2;\n\n  address public archiveAddress;\n\n  mapping(bytes16 => uint256) public oldToNewEditionMappings;\n\n  /*\n   * Constructor\n   */\n  constructor (\n    KODAV1 _kodaV1,\n    KODAV2 _kodaV2,\n    address _archiveAddress\n  ) public {\n    require(_kodaV1 != address(0), \"Missing KODA V1 address\");\n    require(_kodaV2 != address(0), \"Missing KODA V2 address\");\n    require(_archiveAddress != address(0), \"Missing KODA achieve address\");\n\n    archiveAddress = _archiveAddress;\n    kodaV1 = _kodaV1;\n    kodaV2 = _kodaV2;\n\n    oldToNewEditionMappings[0x4a4f43464f5247524c424f5931444947] = 100; // JOCFORGRLBOY1DIG\n    oldToNewEditionMappings[0x5044414c4e444d454844333030444947] = 200; // PDALNDMEHD300DIG\n    oldToNewEditionMappings[0x5044414c4e444d454844323030444947] = 300; // PDALNDMEHD200DIG\n    oldToNewEditionMappings[0x434e4a43494e4653544e473148504859] = 400; // CNJCINFSTNG1HPHY\n    oldToNewEditionMappings[0x38394157414b45303030303031444947] = 500; // 89AWAKE000001DIG\n    oldToNewEditionMappings[0x4a4f435041434f464c46303031444947] = 600; // JOCPACOFLF001DIG\n    oldToNewEditionMappings[0x434e4a43494e4653544e473148444947] = 700; // CNJCINFSTNG1HDIG\n    oldToNewEditionMappings[0x4b4f524d414e43484553544552444947] = 800; // KORMANCHESTERDIG\n    oldToNewEditionMappings[0x3839414b555255534849303031444947] = 900; // 89AKURUSHI001DIG\n    oldToNewEditionMappings[0x4d4e4f4e454f504c4130303031444947] = 1000; // MNONEOPLA0001DIG\n    oldToNewEditionMappings[0x434e4a434f494e5a554b493030444947] = 1100; // CNJCOINZUKI00DIG\n    oldToNewEditionMappings[0x4b4f524c454544533030303031444947] = 1200; // KORLEEDS00001DIG\n    oldToNewEditionMappings[0x4c4556484f524e5342494e3231444947] = 1300; // LEVHORNSBIN21DIG\n    oldToNewEditionMappings[0x414b505354454c4c4152303030444947] = 1400; // AKPSTELLAR000DIG\n    oldToNewEditionMappings[0x53544a4841505059464f583030444947] = 1500; // STJHAPPYFOX00DIG\n    oldToNewEditionMappings[0x445757444556494c52554e3030444947] = 1600; // DWWDEVILRUN00DIG\n    oldToNewEditionMappings[0x4a4f4346414d54524545303031444947] = 1700; // JOCFAMTREE001DIG\n    oldToNewEditionMappings[0x4c4556504947414c4f57303332444947] = 1800; // LEVPIGALOW032DIG\n    oldToNewEditionMappings[0x484b54544845594c4956453030444947] = 1900; // HKTTHEYLIVE00DIG\n    oldToNewEditionMappings[0x5354524d495241434c45303031444947] = 2000; // STRMIRACLE001DIG\n    oldToNewEditionMappings[0x54534d44455052455353454430303031] = 2100; // TSMDEPRESSED0001\n    oldToNewEditionMappings[0x414b5054454d504f3030303030444947] = 2200; // AKPTEMPO00000DIG\n    oldToNewEditionMappings[0x4b4f524245524c494e30303031444947] = 2300; // KORBERLIN0001DIG\n    oldToNewEditionMappings[0x4c4556484f524e534245453636444947] = 2400; // LEVHORNSBEE66DIG\n    oldToNewEditionMappings[0x4c4f5353455230314152543033444947] = 2500; // LOSSER01ART03DIG\n    oldToNewEditionMappings[0x4c48444249544f5049414e3031444947] = 2600; // LHDBITOPIAN01DIG\n    oldToNewEditionMappings[0x4c455650554e4b494e43415244444947] = 2700; // LEVPUNKINCARDDIG\n    oldToNewEditionMappings[0x4f425844444635303030303030444947] = 2800; // OBXDDF5000000DIG\n    oldToNewEditionMappings[0x4c4f5353455230314152543032444947] = 2900; // LOSSER01ART02DIG\n    oldToNewEditionMappings[0x505350475245454e3030303030444947] = 3000; // PSPGREEN00000DIG\n    oldToNewEditionMappings[0x4f544b4e523431383030303030444947] = 3100; // OTKNR41800000DIG\n    oldToNewEditionMappings[0x464b4148595044544853545930444947] = 3200; // FKAHYPDTHSTY0DIG\n    oldToNewEditionMappings[0x4d4b4c5354594d4c4b4341504d443031] = 3300; // MKLSTYMLKCAPMD01\n    oldToNewEditionMappings[0x4c455654524947414c4f573035444947] = 3400; // LEVTRIGALOW05DIG\n    oldToNewEditionMappings[0x4c4844455448494e5349444531444947] = 3500; // LHDETHINSIDE1DIG\n    oldToNewEditionMappings[0x4c484b50454550303030303031444947] = 3600; // LHKPEEP000001DIG\n    oldToNewEditionMappings[0x50535052454430303030303030444947] = 3700; // PSPRED0000000DIG\n    oldToNewEditionMappings[0x383941555026444f574e303031444947] = 3800; // 89AUP&DOWN001DIG\n    oldToNewEditionMappings[0x53544a5350474d524e30303031444947] = 3900; // STJSPGMRN0001DIG\n    oldToNewEditionMappings[0x4d4c4f454d4552474553485033444947] = 4000; // MLOEMERGESHP3DIG\n    oldToNewEditionMappings[0x53544a42454530303030303030444947] = 4100; // STJBEE0000000DIG\n    oldToNewEditionMappings[0x4d4c4f54414d45444c4e455331444947] = 4200; // MLOTAMEDLNES1DIG\n    oldToNewEditionMappings[0x464b41494e5354415457454554444947] = 4300; // FKAINSTATWEETDIG\n    oldToNewEditionMappings[0x464b414441464659305241494e444947] = 4400; // FKADAFFY0RAINDIG\n    oldToNewEditionMappings[0x5354524752415353524f4f5453444947] = 4500; // STRGRASSROOTSDIG\n    oldToNewEditionMappings[0x4d4c4f454d4552474553485032444947] = 4600; // MLOEMERGESHP2DIG\n    oldToNewEditionMappings[0x53544a48505946524942495244444947] = 4700; // STJHPYFRIBIRDDIG\n    oldToNewEditionMappings[0x53545254525453594d30303031444947] = 4800; // STRTRTSYM0001DIG\n    oldToNewEditionMappings[0x4c484b42555a5a303030303031444947] = 4900; // LHKBUZZ000001DIG\n    oldToNewEditionMappings[0x4c455645544845524d414e4630444947] = 5000; // LEVETHERMANF0DIG\n    oldToNewEditionMappings[0x4f425844444632303030303030444947] = 5100; // OBXDDF2000000DIG\n    oldToNewEditionMappings[0x4d4c4f54414d45444c4e455332444947] = 5200; // MLOTAMEDLNES2DIG\n    oldToNewEditionMappings[0x53544a52554e52494f54303031444947] = 5300; // STJRUNRIOT001DIG\n    oldToNewEditionMappings[0x4f544b43454c4c533030303030444947] = 5400; // OTKCELLS00000DIG\n    oldToNewEditionMappings[0x484b5448554d414e4f4e453030444947] = 5500; // HKTHUMANONE00DIG\n    oldToNewEditionMappings[0x535452454d4f4a493130303030444947] = 5600; // STREMOJI10000DIG\n    oldToNewEditionMappings[0x4c4f5353455230314152543031444947] = 5700; // LOSSER01ART01DIG\n    oldToNewEditionMappings[0x414b504d454c54303030303030444947] = 5800; // AKPMELT000000DIG\n    oldToNewEditionMappings[0x505350424c5545303030303030444947] = 5900; // PSPBLUE000000DIG\n    oldToNewEditionMappings[0x4d4c4f454d4552474553485031444947] = 6000; // MLOEMERGESHP1DIG\n    oldToNewEditionMappings[0x54534d504f504556454e494e47303031] = 6100; // TSMPOPEVENING001\n    oldToNewEditionMappings[0x4f425844444633303030303030444947] = 6200; // OBXDDF3000000DIG\n    oldToNewEditionMappings[0x53545241505041494d4c455353444947] = 6300; // STRAPPAIMLESSDIG\n    oldToNewEditionMappings[0x54534d54484559574154434830303031] = 6400; // TSMTHEYWATCH0001\n    oldToNewEditionMappings[0x464b4142554e4e594241475330444947] = 6500; // FKABUNNYBAGS0DIG\n    oldToNewEditionMappings[0x434e4a44495352505446494e31504859] = 6600; // CNJDISRPTFIN1PHY\n    oldToNewEditionMappings[0x54534d46414345464c414d4553303031] = 6700; // TSMFACEFLAMES001\n    oldToNewEditionMappings[0x464b414d41525449414e424e47444947] = 6800; // FKAMARTIANBNGDIG\n  }\n\n  function tokenSwap(uint256 _oldTokenId) public {\n\n    bytes16 oldEdition = kodaV1.editionOf(_oldTokenId);\n    uint256 newEdition = oldToNewEditionMappings[oldEdition];\n    require(kodaV2.editionExists(newEdition), \"Edition number is not valid\");\n\n    address owner = kodaV1.ownerOf(_oldTokenId);\n    require(isApprovedForTransfer(_oldTokenId), \"Token swap contract not approved for transfer\");\n\n    // call mint to old token owner\n    uint256 _newTokenId = kodaV2.underMint(owner, newEdition);\n\n    // transfer ownerShip of old token to archiveAddress\n    kodaV1.transferFrom(owner, archiveAddress, _oldTokenId);\n\n    emit TokenSwapped(_oldTokenId, _newTokenId, oldEdition, newEdition);\n  }\n\n  function oldToNewEdition(bytes16 oldEdition) public view returns (uint256 newEdition) {\n    return oldToNewEditionMappings[oldEdition];\n  }\n\n  function editionMapping(uint256 _tokenId) public view returns (uint256 newEdition) {\n    bytes16 oldEdition = kodaV1.editionOf(_tokenId);\n    return oldToNewEditionMappings[oldEdition];\n  }\n\n  function isApprovedForTransfer(uint256 _tokenId) public view returns (bool) {\n    address owner = kodaV1.ownerOf(_tokenId);\n    return kodaV1.isApprovedForAll(owner, address(this));\n  }\n}\n",
  "sourcePath": "/Users/jamesmorgan/Dropbox/workspace-blockrocket/token-swap-v2/contracts/TokenSwap.sol",
  "compiler": {
    "name": "solc",
    "version": "0.4.24+commit.e67f0147.Emscripten.clang"
  },
  "schemaVersion": "2.0.1",
  "updatedAt": "2018-08-18T13:15:33.695Z"
}