{
  "contractName": "KnownOriginDigitalAssetV2",
  "abi": [
    {
      "constant": true,
      "inputs": [
        {
          "name": "_interfaceId",
          "type": "bytes4"
        }
      ],
      "name": "supportsInterface",
      "outputs": [
        {
          "name": "",
          "type": "bool"
        }
      ],
      "payable": false,
      "stateMutability": "view",
      "type": "function"
    },
    {
      "constant": true,
      "inputs": [],
      "name": "name",
      "outputs": [
        {
          "name": "",
          "type": "string"
        }
      ],
      "payable": false,
      "stateMutability": "view",
      "type": "function"
    },
    {
      "constant": true,
      "inputs": [
        {
          "name": "_tokenId",
          "type": "uint256"
        }
      ],
      "name": "getApproved",
      "outputs": [
        {
          "name": "",
          "type": "address"
        }
      ],
      "payable": false,
      "stateMutability": "view",
      "type": "function"
    },
    {
      "constant": false,
      "inputs": [
        {
          "name": "_to",
          "type": "address"
        },
        {
          "name": "_tokenId",
          "type": "uint256"
        }
      ],
      "name": "approve",
      "outputs": [],
      "payable": false,
      "stateMutability": "nonpayable",
      "type": "function"
    },
    {
      "constant": true,
      "inputs": [
        {
          "name": "_operator",
          "type": "address"
        },
        {
          "name": "_role",
          "type": "string"
        }
      ],
      "name": "checkRole",
      "outputs": [],
      "payable": false,
      "stateMutability": "view",
      "type": "function"
    },
    {
      "constant": true,
      "inputs": [],
      "name": "totalSupply",
      "outputs": [
        {
          "name": "",
          "type": "uint256"
        }
      ],
      "payable": false,
      "stateMutability": "view",
      "type": "function"
    },
    {
      "constant": true,
      "inputs": [],
      "name": "ROLE_WHITELISTED",
      "outputs": [
        {
          "name": "",
          "type": "string"
        }
      ],
      "payable": false,
      "stateMutability": "view",
      "type": "function"
    },
    {
      "constant": true,
      "inputs": [],
      "name": "InterfaceId_ERC165",
      "outputs": [
        {
          "name": "",
          "type": "bytes4"
        }
      ],
      "payable": false,
      "stateMutability": "view",
      "type": "function"
    },
    {
      "constant": true,
      "inputs": [
        {
          "name": "_operator",
          "type": "address"
        },
        {
          "name": "_role",
          "type": "string"
        }
      ],
      "name": "hasRole",
      "outputs": [
        {
          "name": "",
          "type": "bool"
        }
      ],
      "payable": false,
      "stateMutability": "view",
      "type": "function"
    },
    {
      "constant": false,
      "inputs": [
        {
          "name": "_from",
          "type": "address"
        },
        {
          "name": "_to",
          "type": "address"
        },
        {
          "name": "_tokenId",
          "type": "uint256"
        }
      ],
      "name": "transferFrom",
      "outputs": [],
      "payable": false,
      "stateMutability": "nonpayable",
      "type": "function"
    },
    {
      "constant": false,
      "inputs": [
        {
          "name": "_operators",
          "type": "address[]"
        }
      ],
      "name": "removeAddressesFromWhitelist",
      "outputs": [],
      "payable": false,
      "stateMutability": "nonpayable",
      "type": "function"
    },
    {
      "constant": false,
      "inputs": [
        {
          "name": "_operator",
          "type": "address"
        }
      ],
      "name": "removeAddressFromWhitelist",
      "outputs": [],
      "payable": false,
      "stateMutability": "nonpayable",
      "type": "function"
    },
    {
      "constant": true,
      "inputs": [],
      "name": "totalPurchaseValueInWei",
      "outputs": [
        {
          "name": "",
          "type": "uint256"
        }
      ],
      "payable": false,
      "stateMutability": "view",
      "type": "function"
    },
    {
      "constant": true,
      "inputs": [
        {
          "name": "_owner",
          "type": "address"
        },
        {
          "name": "_index",
          "type": "uint256"
        }
      ],
      "name": "tokenOfOwnerByIndex",
      "outputs": [
        {
          "name": "",
          "type": "uint256"
        }
      ],
      "payable": false,
      "stateMutability": "view",
      "type": "function"
    },
    {
      "constant": false,
      "inputs": [],
      "name": "unpause",
      "outputs": [],
      "payable": false,
      "stateMutability": "nonpayable",
      "type": "function"
    },
    {
      "constant": false,
      "inputs": [
        {
          "name": "_from",
          "type": "address"
        },
        {
          "name": "_to",
          "type": "address"
        },
        {
          "name": "_tokenId",
          "type": "uint256"
        }
      ],
      "name": "safeTransferFrom",
      "outputs": [],
      "payable": false,
      "stateMutability": "nonpayable",
      "type": "function"
    },
    {
      "constant": true,
      "inputs": [],
      "name": "totalNumberAvailable",
      "outputs": [
        {
          "name": "",
          "type": "uint256"
        }
      ],
      "payable": false,
      "stateMutability": "view",
      "type": "function"
    },
    {
      "constant": true,
      "inputs": [],
      "name": "tokenBaseURI",
      "outputs": [
        {
          "name": "",
          "type": "string"
        }
      ],
      "payable": false,
      "stateMutability": "view",
      "type": "function"
    },
    {
      "constant": true,
      "inputs": [
        {
          "name": "_tokenId",
          "type": "uint256"
        }
      ],
      "name": "exists",
      "outputs": [
        {
          "name": "",
          "type": "bool"
        }
      ],
      "payable": false,
      "stateMutability": "view",
      "type": "function"
    },
    {
      "constant": true,
      "inputs": [
        {
          "name": "_index",
          "type": "uint256"
        }
      ],
      "name": "tokenByIndex",
      "outputs": [
        {
          "name": "",
          "type": "uint256"
        }
      ],
      "payable": false,
      "stateMutability": "view",
      "type": "function"
    },
    {
      "constant": true,
      "inputs": [],
      "name": "paused",
      "outputs": [
        {
          "name": "",
          "type": "bool"
        }
      ],
      "payable": false,
      "stateMutability": "view",
      "type": "function"
    },
    {
      "constant": true,
      "inputs": [
        {
          "name": "_tokenId",
          "type": "uint256"
        }
      ],
      "name": "ownerOf",
      "outputs": [
        {
          "name": "",
          "type": "address"
        }
      ],
      "payable": false,
      "stateMutability": "view",
      "type": "function"
    },
    {
      "constant": true,
      "inputs": [],
      "name": "koCommissionAccount",
      "outputs": [
        {
          "name": "",
          "type": "address"
        }
      ],
      "payable": false,
      "stateMutability": "view",
      "type": "function"
    },
    {
      "constant": true,
      "inputs": [
        {
          "name": "_owner",
          "type": "address"
        }
      ],
      "name": "balanceOf",
      "outputs": [
        {
          "name": "",
          "type": "uint256"
        }
      ],
      "payable": false,
      "stateMutability": "view",
      "type": "function"
    },
    {
      "constant": false,
      "inputs": [],
      "name": "renounceOwnership",
      "outputs": [],
      "payable": false,
      "stateMutability": "nonpayable",
      "type": "function"
    },
    {
      "constant": false,
      "inputs": [
        {
          "name": "_operator",
          "type": "address"
        }
      ],
      "name": "addAddressToWhitelist",
      "outputs": [],
      "payable": false,
      "stateMutability": "nonpayable",
      "type": "function"
    },
    {
      "constant": false,
      "inputs": [],
      "name": "pause",
      "outputs": [],
      "payable": false,
      "stateMutability": "nonpayable",
      "type": "function"
    },
    {
      "constant": true,
      "inputs": [],
      "name": "owner",
      "outputs": [
        {
          "name": "",
          "type": "address"
        }
      ],
      "payable": false,
      "stateMutability": "view",
      "type": "function"
    },
    {
      "constant": true,
      "inputs": [],
      "name": "symbol",
      "outputs": [
        {
          "name": "",
          "type": "string"
        }
      ],
      "payable": false,
      "stateMutability": "view",
      "type": "function"
    },
    {
      "constant": true,
      "inputs": [
        {
          "name": "_operator",
          "type": "address"
        }
      ],
      "name": "whitelist",
      "outputs": [
        {
          "name": "",
          "type": "bool"
        }
      ],
      "payable": false,
      "stateMutability": "view",
      "type": "function"
    },
    {
      "constant": false,
      "inputs": [],
      "name": "reclaimEther",
      "outputs": [],
      "payable": false,
      "stateMutability": "nonpayable",
      "type": "function"
    },
    {
      "constant": false,
      "inputs": [
        {
          "name": "_to",
          "type": "address"
        },
        {
          "name": "_approved",
          "type": "bool"
        }
      ],
      "name": "setApprovalForAll",
      "outputs": [],
      "payable": false,
      "stateMutability": "nonpayable",
      "type": "function"
    },
    {
      "constant": false,
      "inputs": [
        {
          "name": "_from",
          "type": "address"
        },
        {
          "name": "_to",
          "type": "address"
        },
        {
          "name": "_tokenId",
          "type": "uint256"
        },
        {
          "name": "_data",
          "type": "bytes"
        }
      ],
      "name": "safeTransferFrom",
      "outputs": [],
      "payable": false,
      "stateMutability": "nonpayable",
      "type": "function"
    },
    {
      "constant": false,
      "inputs": [
        {
          "name": "_operators",
          "type": "address[]"
        }
      ],
      "name": "addAddressesToWhitelist",
      "outputs": [],
      "payable": false,
      "stateMutability": "nonpayable",
      "type": "function"
    },
    {
      "constant": true,
      "inputs": [
        {
          "name": "_owner",
          "type": "address"
        },
        {
          "name": "_operator",
          "type": "address"
        }
      ],
      "name": "isApprovedForAll",
      "outputs": [
        {
          "name": "",
          "type": "bool"
        }
      ],
      "payable": false,
      "stateMutability": "view",
      "type": "function"
    },
    {
      "constant": true,
      "inputs": [],
      "name": "totalNumberMinted",
      "outputs": [
        {
          "name": "",
          "type": "uint256"
        }
      ],
      "payable": false,
      "stateMutability": "view",
      "type": "function"
    },
    {
      "constant": false,
      "inputs": [
        {
          "name": "_newOwner",
          "type": "address"
        }
      ],
      "name": "transferOwnership",
      "outputs": [],
      "payable": false,
      "stateMutability": "nonpayable",
      "type": "function"
    },
    {
      "inputs": [],
      "payable": true,
      "stateMutability": "payable",
      "type": "constructor"
    },
    {
      "payable": false,
      "stateMutability": "nonpayable",
      "type": "fallback"
    },
    {
      "anonymous": false,
      "inputs": [
        {
          "indexed": true,
          "name": "_tokenId",
          "type": "uint256"
        },
        {
          "indexed": true,
          "name": "_costInWei",
          "type": "uint256"
        },
        {
          "indexed": true,
          "name": "_buyer",
          "type": "address"
        }
      ],
      "name": "Purchase",
      "type": "event"
    },
    {
      "anonymous": false,
      "inputs": [
        {
          "indexed": true,
          "name": "_tokenId",
          "type": "uint256"
        },
        {
          "indexed": true,
          "name": "_editionNumber",
          "type": "uint256"
        },
        {
          "indexed": true,
          "name": "_buyer",
          "type": "address"
        }
      ],
      "name": "Minted",
      "type": "event"
    },
    {
      "anonymous": false,
      "inputs": [
        {
          "indexed": true,
          "name": "_editionNumber",
          "type": "uint256"
        },
        {
          "indexed": true,
          "name": "_editionData",
          "type": "bytes32"
        },
        {
          "indexed": true,
          "name": "_editionType",
          "type": "uint8"
        }
      ],
      "name": "EditionCreated",
      "type": "event"
    },
    {
      "anonymous": false,
      "inputs": [],
      "name": "Pause",
      "type": "event"
    },
    {
      "anonymous": false,
      "inputs": [],
      "name": "Unpause",
      "type": "event"
    },
    {
      "anonymous": false,
      "inputs": [
        {
          "indexed": true,
          "name": "operator",
          "type": "address"
        },
        {
          "indexed": false,
          "name": "role",
          "type": "string"
        }
      ],
      "name": "RoleAdded",
      "type": "event"
    },
    {
      "anonymous": false,
      "inputs": [
        {
          "indexed": true,
          "name": "operator",
          "type": "address"
        },
        {
          "indexed": false,
          "name": "role",
          "type": "string"
        }
      ],
      "name": "RoleRemoved",
      "type": "event"
    },
    {
      "anonymous": false,
      "inputs": [
        {
          "indexed": true,
          "name": "previousOwner",
          "type": "address"
        }
      ],
      "name": "OwnershipRenounced",
      "type": "event"
    },
    {
      "anonymous": false,
      "inputs": [
        {
          "indexed": true,
          "name": "previousOwner",
          "type": "address"
        },
        {
          "indexed": true,
          "name": "newOwner",
          "type": "address"
        }
      ],
      "name": "OwnershipTransferred",
      "type": "event"
    },
    {
      "anonymous": false,
      "inputs": [
        {
          "indexed": true,
          "name": "_from",
          "type": "address"
        },
        {
          "indexed": true,
          "name": "_to",
          "type": "address"
        },
        {
          "indexed": true,
          "name": "_tokenId",
          "type": "uint256"
        }
      ],
      "name": "Transfer",
      "type": "event"
    },
    {
      "anonymous": false,
      "inputs": [
        {
          "indexed": true,
          "name": "_owner",
          "type": "address"
        },
        {
          "indexed": true,
          "name": "_approved",
          "type": "address"
        },
        {
          "indexed": true,
          "name": "_tokenId",
          "type": "uint256"
        }
      ],
      "name": "Approval",
      "type": "event"
    },
    {
      "anonymous": false,
      "inputs": [
        {
          "indexed": true,
          "name": "_owner",
          "type": "address"
        },
        {
          "indexed": true,
          "name": "_operator",
          "type": "address"
        },
        {
          "indexed": false,
          "name": "_approved",
          "type": "bool"
        }
      ],
      "name": "ApprovalForAll",
      "type": "event"
    },
    {
      "constant": false,
      "inputs": [
        {
          "name": "_editionNumber",
          "type": "uint256"
        },
        {
          "name": "_editionData",
          "type": "bytes32"
        },
        {
          "name": "_editionType",
          "type": "uint8"
        },
        {
          "name": "_startDate",
          "type": "uint32"
        },
        {
          "name": "_endDate",
          "type": "uint32"
        },
        {
          "name": "_artistAccount",
          "type": "address"
        },
        {
          "name": "_artistCommission",
          "type": "uint8"
        },
        {
          "name": "_priceInWei",
          "type": "uint256"
        },
        {
          "name": "_tokenURI",
          "type": "string"
        },
        {
          "name": "_totalAvailable",
          "type": "uint8"
        }
      ],
      "name": "createActiveEdition",
      "outputs": [
        {
          "name": "",
          "type": "bool"
        }
      ],
      "payable": false,
      "stateMutability": "nonpayable",
      "type": "function"
    },
    {
      "constant": false,
      "inputs": [
        {
          "name": "_editionNumber",
          "type": "uint256"
        },
        {
          "name": "_editionData",
          "type": "bytes32"
        },
        {
          "name": "_editionType",
          "type": "uint8"
        },
        {
          "name": "_startDate",
          "type": "uint32"
        },
        {
          "name": "_endDate",
          "type": "uint32"
        },
        {
          "name": "_artistAccount",
          "type": "address"
        },
        {
          "name": "_artistCommission",
          "type": "uint8"
        },
        {
          "name": "_priceInWei",
          "type": "uint256"
        },
        {
          "name": "_tokenURI",
          "type": "string"
        },
        {
          "name": "_totalAvailable",
          "type": "uint8"
        }
      ],
      "name": "createInactiveEdition",
      "outputs": [
        {
          "name": "",
          "type": "bool"
        }
      ],
      "payable": false,
      "stateMutability": "nonpayable",
      "type": "function"
    },
    {
      "constant": false,
      "inputs": [
        {
          "name": "_editionNumber",
          "type": "uint256"
        },
        {
          "name": "_editionData",
          "type": "bytes32"
        },
        {
          "name": "_editionType",
          "type": "uint8"
        },
        {
          "name": "_startDate",
          "type": "uint32"
        },
        {
          "name": "_endDate",
          "type": "uint32"
        },
        {
          "name": "_artistAccount",
          "type": "address"
        },
        {
          "name": "_artistCommission",
          "type": "uint8"
        },
        {
          "name": "_priceInWei",
          "type": "uint256"
        },
        {
          "name": "_tokenURI",
          "type": "string"
        },
        {
          "name": "_totalSupply",
          "type": "uint8"
        },
        {
          "name": "_totalAvailable",
          "type": "uint8"
        }
      ],
      "name": "createActivePreMintedEdition",
      "outputs": [
        {
          "name": "",
          "type": "bool"
        }
      ],
      "payable": false,
      "stateMutability": "nonpayable",
      "type": "function"
    },
    {
      "constant": false,
      "inputs": [
        {
          "name": "_editionNumber",
          "type": "uint256"
        },
        {
          "name": "_editionData",
          "type": "bytes32"
        },
        {
          "name": "_editionType",
          "type": "uint8"
        },
        {
          "name": "_startDate",
          "type": "uint32"
        },
        {
          "name": "_endDate",
          "type": "uint32"
        },
        {
          "name": "_artistAccount",
          "type": "address"
        },
        {
          "name": "_artistCommission",
          "type": "uint8"
        },
        {
          "name": "_priceInWei",
          "type": "uint256"
        },
        {
          "name": "_tokenURI",
          "type": "string"
        },
        {
          "name": "_totalSupply",
          "type": "uint8"
        },
        {
          "name": "_totalAvailable",
          "type": "uint8"
        }
      ],
      "name": "createInactivePreMintedEdition",
      "outputs": [
        {
          "name": "",
          "type": "bool"
        }
      ],
      "payable": false,
      "stateMutability": "nonpayable",
      "type": "function"
    },
    {
      "constant": false,
      "inputs": [
        {
          "name": "_editionNumber",
          "type": "uint256"
        }
      ],
      "name": "purchase",
      "outputs": [
        {
          "name": "",
          "type": "uint256"
        }
      ],
      "payable": true,
      "stateMutability": "payable",
      "type": "function"
    },
    {
      "constant": false,
      "inputs": [
        {
          "name": "_to",
          "type": "address"
        },
        {
          "name": "_editionNumber",
          "type": "uint256"
        }
      ],
      "name": "purchaseTo",
      "outputs": [
        {
          "name": "",
          "type": "uint256"
        }
      ],
      "payable": true,
      "stateMutability": "payable",
      "type": "function"
    },
    {
      "constant": false,
      "inputs": [
        {
          "name": "_to",
          "type": "address"
        },
        {
          "name": "_editionNumber",
          "type": "uint256"
        }
      ],
      "name": "mint",
      "outputs": [
        {
          "name": "",
          "type": "uint256"
        }
      ],
      "payable": false,
      "stateMutability": "nonpayable",
      "type": "function"
    },
    {
      "constant": false,
      "inputs": [
        {
          "name": "_to",
          "type": "address"
        },
        {
          "name": "_editionNumber",
          "type": "uint256"
        }
      ],
      "name": "underMint",
      "outputs": [
        {
          "name": "",
          "type": "uint256"
        }
      ],
      "payable": false,
      "stateMutability": "nonpayable",
      "type": "function"
    },
    {
      "constant": false,
      "inputs": [
        {
          "name": "_tokenId",
          "type": "uint256"
        }
      ],
      "name": "burn",
      "outputs": [],
      "payable": false,
      "stateMutability": "nonpayable",
      "type": "function"
    },
    {
      "constant": false,
      "inputs": [
        {
          "name": "_to",
          "type": "address"
        },
        {
          "name": "_tokenIds",
          "type": "uint256[]"
        }
      ],
      "name": "batchTransfer",
      "outputs": [],
      "payable": false,
      "stateMutability": "nonpayable",
      "type": "function"
    },
    {
      "constant": false,
      "inputs": [
        {
          "name": "_from",
          "type": "address"
        },
        {
          "name": "_to",
          "type": "address"
        },
        {
          "name": "_tokenIds",
          "type": "uint256[]"
        }
      ],
      "name": "batchTransferFrom",
      "outputs": [],
      "payable": false,
      "stateMutability": "nonpayable",
      "type": "function"
    },
    {
      "constant": false,
      "inputs": [
        {
          "name": "_newBaseURI",
          "type": "string"
        }
      ],
      "name": "updateTokenBaseURI",
      "outputs": [],
      "payable": false,
      "stateMutability": "nonpayable",
      "type": "function"
    },
    {
      "constant": false,
      "inputs": [
        {
          "name": "_tokenId",
          "type": "uint256"
        },
        {
          "name": "_uri",
          "type": "string"
        }
      ],
      "name": "setTokenURI",
      "outputs": [],
      "payable": false,
      "stateMutability": "nonpayable",
      "type": "function"
    },
    {
      "constant": false,
      "inputs": [
        {
          "name": "_editionNumber",
          "type": "uint256"
        },
        {
          "name": "_uri",
          "type": "string"
        }
      ],
      "name": "updateEditionTokenURI",
      "outputs": [],
      "payable": false,
      "stateMutability": "nonpayable",
      "type": "function"
    },
    {
      "constant": false,
      "inputs": [
        {
          "name": "_editionNumber",
          "type": "uint256"
        },
        {
          "name": "_priceInWei",
          "type": "uint256"
        }
      ],
      "name": "updatePriceInWei",
      "outputs": [],
      "payable": false,
      "stateMutability": "nonpayable",
      "type": "function"
    },
    {
      "constant": false,
      "inputs": [
        {
          "name": "_editionNumber",
          "type": "uint256"
        },
        {
          "name": "_artistAccount",
          "type": "address"
        }
      ],
      "name": "updateArtistsAccount",
      "outputs": [],
      "payable": false,
      "stateMutability": "nonpayable",
      "type": "function"
    },
    {
      "constant": false,
      "inputs": [
        {
          "name": "_editionNumber",
          "type": "uint256"
        },
        {
          "name": "_editionType",
          "type": "uint8"
        }
      ],
      "name": "updateEditionType",
      "outputs": [],
      "payable": false,
      "stateMutability": "nonpayable",
      "type": "function"
    },
    {
      "constant": false,
      "inputs": [
        {
          "name": "_editionNumber",
          "type": "uint256"
        },
        {
          "name": "_active",
          "type": "bool"
        }
      ],
      "name": "updateActive",
      "outputs": [],
      "payable": false,
      "stateMutability": "nonpayable",
      "type": "function"
    },
    {
      "constant": false,
      "inputs": [
        {
          "name": "_editionNumber",
          "type": "uint256"
        },
        {
          "name": "_totalSupply",
          "type": "uint8"
        }
      ],
      "name": "updateTotalSupply",
      "outputs": [],
      "payable": false,
      "stateMutability": "nonpayable",
      "type": "function"
    },
    {
      "constant": false,
      "inputs": [
        {
          "name": "_editionNumber",
          "type": "uint256"
        },
        {
          "name": "_totalAvailable",
          "type": "uint8"
        }
      ],
      "name": "updateTotalAvailable",
      "outputs": [],
      "payable": false,
      "stateMutability": "nonpayable",
      "type": "function"
    },
    {
      "constant": false,
      "inputs": [
        {
          "name": "_editionNumber",
          "type": "uint256"
        },
        {
          "name": "_startDate",
          "type": "uint32"
        }
      ],
      "name": "updateStartDate",
      "outputs": [],
      "payable": false,
      "stateMutability": "nonpayable",
      "type": "function"
    },
    {
      "constant": false,
      "inputs": [
        {
          "name": "_editionNumber",
          "type": "uint256"
        },
        {
          "name": "_endDate",
          "type": "uint32"
        }
      ],
      "name": "updateEndDate",
      "outputs": [],
      "payable": false,
      "stateMutability": "nonpayable",
      "type": "function"
    },
    {
      "constant": false,
      "inputs": [
        {
          "name": "_koCommissionAccount",
          "type": "address"
        }
      ],
      "name": "updateKoCommissionAccount",
      "outputs": [],
      "payable": false,
      "stateMutability": "nonpayable",
      "type": "function"
    },
    {
      "constant": false,
      "inputs": [
        {
          "name": "_editionNumber",
          "type": "uint256"
        },
        {
          "name": "_rate",
          "type": "uint8"
        },
        {
          "name": "_recipient",
          "type": "address"
        }
      ],
      "name": "updateOptionalCommission",
      "outputs": [],
      "payable": false,
      "stateMutability": "nonpayable",
      "type": "function"
    },
    {
      "constant": true,
      "inputs": [
        {
          "name": "_type",
          "type": "uint8"
        }
      ],
      "name": "editionsOfType",
      "outputs": [
        {
          "name": "_editionNumbers",
          "type": "uint256[]"
        }
      ],
      "payable": false,
      "stateMutability": "view",
      "type": "function"
    },
    {
      "constant": true,
      "inputs": [
        {
          "name": "_tokenId",
          "type": "uint256"
        }
      ],
      "name": "editionOfTokenId",
      "outputs": [
        {
          "name": "_editionNumber",
          "type": "uint256"
        }
      ],
      "payable": false,
      "stateMutability": "view",
      "type": "function"
    },
    {
      "constant": true,
      "inputs": [
        {
          "name": "_artistsAccount",
          "type": "address"
        }
      ],
      "name": "artistsEditions",
      "outputs": [
        {
          "name": "_editionNumbers",
          "type": "uint256[]"
        }
      ],
      "payable": false,
      "stateMutability": "view",
      "type": "function"
    },
    {
      "constant": true,
      "inputs": [
        {
          "name": "_editionNumber",
          "type": "uint256"
        }
      ],
      "name": "tokensOfEdition",
      "outputs": [
        {
          "name": "_tokenIds",
          "type": "uint256[]"
        }
      ],
      "payable": false,
      "stateMutability": "view",
      "type": "function"
    },
    {
      "constant": true,
      "inputs": [
        {
          "name": "_editionNumber",
          "type": "uint256"
        }
      ],
      "name": "editionOptionalCommission",
      "outputs": [
        {
          "name": "_rate",
          "type": "uint8"
        },
        {
          "name": "_recipient",
          "type": "address"
        }
      ],
      "payable": false,
      "stateMutability": "view",
      "type": "function"
    },
    {
      "constant": true,
      "inputs": [
        {
          "name": "editionNumber",
          "type": "uint256"
        }
      ],
      "name": "allEditionData",
      "outputs": [
        {
          "name": "_editionData",
          "type": "bytes32"
        },
        {
          "name": "_editionType",
          "type": "uint8"
        },
        {
          "name": "_startDate",
          "type": "uint32"
        },
        {
          "name": "_endDate",
          "type": "uint32"
        },
        {
          "name": "_artistAccount",
          "type": "address"
        },
        {
          "name": "_artistCommission",
          "type": "address"
        },
        {
          "name": "_priceInWei",
          "type": "uint256"
        },
        {
          "name": "_tokenURI",
          "type": "string"
        },
        {
          "name": "_totalSupply",
          "type": "uint8"
        },
        {
          "name": "_totalAvailable",
          "type": "uint8"
        },
        {
          "name": "_active",
          "type": "bool"
        }
      ],
      "payable": false,
      "stateMutability": "view",
      "type": "function"
    },
    {
      "constant": true,
      "inputs": [
        {
          "name": "_tokenId",
          "type": "uint256"
        }
      ],
      "name": "tokenIdentificationData",
      "outputs": [
        {
          "name": "_editionNumber",
          "type": "uint256"
        },
        {
          "name": "_editionType",
          "type": "uint8"
        },
        {
          "name": "_editionData",
          "type": "bytes32"
        },
        {
          "name": "_tokenURI",
          "type": "string"
        },
        {
          "name": "_owner",
          "type": "address"
        }
      ],
      "payable": false,
      "stateMutability": "view",
      "type": "function"
    },
    {
      "constant": true,
      "inputs": [
        {
          "name": "_tokenId",
          "type": "uint256"
        }
      ],
      "name": "tokenEditionData",
      "outputs": [
        {
          "name": "_editionNumber",
          "type": "uint256"
        },
        {
          "name": "_editionType",
          "type": "uint8"
        },
        {
          "name": "_startDate",
          "type": "uint32"
        },
        {
          "name": "_endDate",
          "type": "uint32"
        },
        {
          "name": "_artistAccount",
          "type": "address"
        },
        {
          "name": "_artistCommission",
          "type": "uint8"
        },
        {
          "name": "_priceInWei",
          "type": "uint256"
        },
        {
          "name": "_totalAvailable",
          "type": "uint256"
        },
        {
          "name": "_totalSupply",
          "type": "uint256"
        }
      ],
      "payable": false,
      "stateMutability": "view",
      "type": "function"
    },
    {
      "constant": true,
      "inputs": [
        {
          "name": "editionNumber",
          "type": "uint256"
        }
      ],
      "name": "editionData",
      "outputs": [
        {
          "name": "_editionNumber",
          "type": "uint256"
        },
        {
          "name": "_editionType",
          "type": "uint8"
        },
        {
          "name": "_startDate",
          "type": "uint32"
        },
        {
          "name": "_endDate",
          "type": "uint32"
        },
        {
          "name": "_artistAccount",
          "type": "address"
        },
        {
          "name": "_artistCommission",
          "type": "uint8"
        },
        {
          "name": "_priceInWei",
          "type": "uint256"
        },
        {
          "name": "_totalAvailable",
          "type": "uint256"
        },
        {
          "name": "_totalSupply",
          "type": "uint256"
        }
      ],
      "payable": false,
      "stateMutability": "view",
      "type": "function"
    },
    {
      "constant": true,
      "inputs": [
        {
          "name": "_editionNumber",
          "type": "uint256"
        }
      ],
      "name": "editionExists",
      "outputs": [
        {
          "name": "",
          "type": "bool"
        }
      ],
      "payable": false,
      "stateMutability": "view",
      "type": "function"
    },
    {
      "constant": true,
      "inputs": [
        {
          "name": "_tokenId",
          "type": "uint256"
        }
      ],
      "name": "tokenURI",
      "outputs": [
        {
          "name": "",
          "type": "string"
        }
      ],
      "payable": false,
      "stateMutability": "view",
      "type": "function"
    },
    {
      "constant": true,
      "inputs": [
        {
          "name": "_tokenId",
          "type": "uint256"
        }
      ],
      "name": "tokenURISafe",
      "outputs": [
        {
          "name": "",
          "type": "string"
        }
      ],
      "payable": false,
      "stateMutability": "view",
      "type": "function"
    },
    {
      "constant": true,
      "inputs": [
        {
          "name": "_editionNumber",
          "type": "uint256"
        }
      ],
      "name": "tokenURIEdition",
      "outputs": [
        {
          "name": "",
          "type": "string"
        }
      ],
      "payable": false,
      "stateMutability": "view",
      "type": "function"
    },
    {
      "constant": true,
      "inputs": [
        {
          "name": "_owner",
          "type": "address"
        }
      ],
      "name": "tokensOf",
      "outputs": [
        {
          "name": "_tokenIds",
          "type": "uint256[]"
        }
      ],
      "payable": false,
      "stateMutability": "view",
      "type": "function"
    },
    {
      "constant": true,
      "inputs": [
        {
          "name": "_editionNumber",
          "type": "uint256"
        }
      ],
      "name": "editionTotalAvailable",
      "outputs": [
        {
          "name": "",
          "type": "uint256"
        }
      ],
      "payable": false,
      "stateMutability": "view",
      "type": "function"
    },
    {
      "constant": true,
      "inputs": [
        {
          "name": "_editionNumber",
          "type": "uint256"
        }
      ],
      "name": "editionTotalSupply",
      "outputs": [
        {
          "name": "",
          "type": "uint256"
        }
      ],
      "payable": false,
      "stateMutability": "view",
      "type": "function"
    },
    {
      "constant": true,
      "inputs": [
        {
          "name": "_editionNumber",
          "type": "uint256"
        }
      ],
      "name": "totalRemaining",
      "outputs": [
        {
          "name": "",
          "type": "uint256"
        }
      ],
      "payable": false,
      "stateMutability": "view",
      "type": "function"
    },
    {
      "constant": true,
      "inputs": [
        {
          "name": "_editionNumber",
          "type": "uint256"
        }
      ],
      "name": "editionActive",
      "outputs": [
        {
          "name": "",
          "type": "bool"
        }
      ],
      "payable": false,
      "stateMutability": "view",
      "type": "function"
    },
    {
      "constant": true,
      "inputs": [
        {
          "name": "_tokenId",
          "type": "uint256"
        }
      ],
      "name": "purchaseDatesToken",
      "outputs": [
        {
          "name": "_startDate",
          "type": "uint32"
        },
        {
          "name": "_endDate",
          "type": "uint32"
        }
      ],
      "payable": false,
      "stateMutability": "view",
      "type": "function"
    },
    {
      "constant": true,
      "inputs": [
        {
          "name": "_editionNumber",
          "type": "uint256"
        }
      ],
      "name": "purchaseDatesEdition",
      "outputs": [
        {
          "name": "_startDate",
          "type": "uint32"
        },
        {
          "name": "_endDate",
          "type": "uint32"
        }
      ],
      "payable": false,
      "stateMutability": "view",
      "type": "function"
    },
    {
      "constant": true,
      "inputs": [
        {
          "name": "_tokenId",
          "type": "uint256"
        }
      ],
      "name": "priceInWeiToken",
      "outputs": [
        {
          "name": "_priceInWei",
          "type": "uint256"
        }
      ],
      "payable": false,
      "stateMutability": "view",
      "type": "function"
    },
    {
      "constant": true,
      "inputs": [
        {
          "name": "_editionNumber",
          "type": "uint256"
        }
      ],
      "name": "priceInWeiEdition",
      "outputs": [
        {
          "name": "_priceInWei",
          "type": "uint256"
        }
      ],
      "payable": false,
      "stateMutability": "view",
      "type": "function"
    }
  ],
  "bytecode": "0x600e805460ff1916905560c0604052601c60808190527f68747470733a2f2f697066732e696e667572612e696f2f697066732f0000000060a09081526200004a91600f919062000456565b50604080518082018252601781527f4b6e6f776e4f726967696e4469676974616c41737365740000000000000000006020808301919091528251808401909352600483527f4b4f4441000000000000000000000000000000000000000000000000000000009083015290620000e87f01ffc9a70000000000000000000000000000000000000000000000000000000064010000000062000233810204565b6200011c7f80ac58cd0000000000000000000000000000000000000000000000000000000064010000000062000233810204565b620001507f4f558e790000000000000000000000000000000000000000000000000000000064010000000062000233810204565b81516200016590600590602085019062000456565b5080516200017b90600690602084019062000456565b50620001b07f780e9d630000000000000000000000000000000000000000000000000000000064010000000062000233810204565b620001e47f5b5e139f0000000000000000000000000000000000000000000000000000000064010000000062000233810204565b5050600c8054600160a060020a0319163317905534156200020457600080fd5b60138054600160a060020a031916339081179091556200022d90640100000000620002a0810204565b620004fb565b7fffffffff0000000000000000000000000000000000000000000000000000000080821614156200026357600080fd5b7fffffffff00000000000000000000000000000000000000000000000000000000166000908152602081905260409020805460ff19166001179055565b600c54600160a060020a03163314620002b857600080fd5b62000308816040805190810160405280600981526020017f77686974656c69737400000000000000000000000000000000000000000000008152506200030b640100000000026401000000009004565b50565b6200038782600d836040518082805190602001908083835b60208310620003445780518252601f19909201916020918201910162000323565b51815160209384036101000a600019018019909216911617905292019485525060405193849003019092209291505064010000000062000431810262005a841704565b81600160a060020a03167fbfec83d64eaa953f2708271a023ab9ee82057f8f3578d548c1a4ba0b5b700489826040518080602001828103825283818151815260200191508051906020019080838360005b83811015620003f2578181015183820152602001620003d8565b50505050905090810190601f168015620004205780820380516001836020036101000a031916815260200191505b509250505060405180910390a25050565b600160a060020a0316600090815260209190915260409020805460ff19166001179055565b828054600181600116156101000203166002900490600052602060002090601f016020900481019282601f106200049957805160ff1916838001178555620004c9565b82800160010185558215620004c9579182015b82811115620004c9578251825591602001919060010190620004ac565b50620004d7929150620004db565b5090565b620004f891905b80821115620004d75760008155600101620004e2565b90565b615d5c806200050b6000396000f3006080604052600436106103c65763ffffffff7c010000000000000000000000000000000000000000000000000000000060003504166301ffc9a781146103d557806304bb1e3d1461040b57806306fdde031461042a578063081812fc146104b4578063095ea7b3146104e85780630988ca8c1461050c57806313d8375d146105735780631534738014610594578063162094c4146105be57806318160ddd146105e2578063187d8803146105f757806318b919e91461061857806319fa8f501461062d5780631b6054ac1461065f578063213d67711461071d578063217fe6c6146107945780632295ee5b146107fb57806323b872dd1461081b57806324953eaa14610845578063286dd3f51461089a5780632bbd84e8146108bb5780632f745c59146108d057806336a9d2a1146108f4578063385df389146109125780633a2357d01461092a5780633f4ba83a146109c657806340c10f19146109db57806342842e0e146109ff57806342951d8e14610a2957806342966c6814610a4757806342c7ea5f14610a5f57806343bf63e814610a745780634e99b80014610a8c5780634f558e7914610aa15780634f6ccce714610ab957806350d331c214610ad157806359de1edf14610ae95780635a3f267214610b905780635c975abb14610c015780636352211e14610c16578063652edd4114610c2e5780636641179e14610c695780636e93dbdc14610c8a57806370a0823114610c9f5780637109d30214610cc0578063715018a614610d6757806375dcb70a14610d7c5780637a85c02a14610da05780637b9417c814610db85780637d55758f14610dd95780637eb9f04a14610dfd578063824eec3b14610e185780638312c4bf14610e305780638456cb5914610ecc578063891407c014610ee1578063895e454514610ef85780638da5cb5b14610f2257806395d89b4114610f375780639985251c14610f4c5780639b19251a1461104d5780639f727c271461106e578063a22cb46514611083578063ac3c9952146110a9578063afa7a25f1461110c578063b88d4fde14611130578063b8f6c2191461119f578063bbd1e1fc146111b7578063bc02844c146111cf578063be1f912e146111e7578063c2b2fb5e146111ff578063c317db6614611217578063c87b56dd1461122f578063cadb6e0e14611247578063d339fe4f14611265578063de56a24514611286578063e2ec6ec3146112c3578063e985e9c514611318578063efef39a11461133f578063f1ff3d4b1461134a578063f2fde38b1461135f578063f3993d1114611380578063f50ebb17146113eb578063fee7e35d14611406575b3480156103d257600080fd5b50005b3480156103e157600080fd5b506103f7600160e060020a03196004351661141e565b604080519115158252519081900360200190f35b34801561041757600080fd5b50610428600435602435151561143d565b005b34801561043657600080fd5b5061043f6114cc565b6040805160208082528351818301528351919283929083019185019080838360005b83811015610479578181015183820152602001610461565b50505050905090810190601f1680156104a65780820380516001836020036101000a031916815260200191505b509250505060405180910390f35b3480156104c057600080fd5b506104cc600435611563565b60408051600160a060020a039092168252519081900360200190f35b3480156104f457600080fd5b50610428600160a060020a036004351660243561157e565b34801561051857600080fd5b5060408051602060046024803582810135601f8101859004850286018501909652858552610428958335600160a060020a03169536956044949193909101919081908401838280828437509497506116279650505050505050565b34801561057f57600080fd5b5061042860043563ffffffff60243516611695565b3480156105a057600080fd5b506105ac600435611738565b60408051918252519081900360200190f35b3480156105ca57600080fd5b50610428600480359060248035908101910135611757565b3480156105ee57600080fd5b506105ac6117be565b34801561060357600080fd5b50610428600160a060020a03600435166117c4565b34801561062457600080fd5b5061043f61185a565b34801561063957600080fd5b5061064261187f565b60408051600160e060020a03199092168252519081900360200190f35b34801561066b57600080fd5b506106776004356118a3565b6040805186815260ff8616602080830191909152918101859052600160a060020a038316608082015260a06060820181815285519183019190915284519192909160c084019186019080838360005b838110156106de5781810151838201526020016106c6565b50505050905090810190601f16801561070b5780820380516001836020036101000a031916815260200191505b50965050505050505060405180910390f35b34801561072957600080fd5b50610735600435611a5a565b60408051998a5260ff98891660208b015263ffffffff9788168a820152959096166060890152600160a060020a039093166080880152941660a086015260c085019390935260e084019290925261010083015251908190036101200190f35b3480156107a057600080fd5b5060408051602060046024803582810135601f81018590048502860185019096528585526103f7958335600160a060020a0316953695604494919390910191908190840183828082843750949750611c8e9650505050505050565b34801561080757600080fd5b506104286004803560248101910135611cfa565b34801561082757600080fd5b50610428600160a060020a0360043581169060243516604435611d71565b34801561085157600080fd5b506040805160206004803580820135838102808601850190965280855261042895369593946024949385019291829185019084908082843750949750611e149650505050505050565b3480156108a657600080fd5b50610428600160a060020a0360043516611e63565b3480156108c757600080fd5b506105ac611eaa565b3480156108dc57600080fd5b506105ac600160a060020a0360043516602435611eb0565b34801561090057600080fd5b5061042860043560ff60243516611efd565b34801561091e57600080fd5b5061043f600435612084565b34801561093657600080fd5b50604080516020601f610104356004818101359283018490048402850184019095528184526103f794803594602480359560ff60443581169663ffffffff60643581169760843590911696600160a060020a0360a435169660c4359094169560e435953695929461012494909201919081908401838280828437509497505050923560ff16935061227e92505050565b3480156109d257600080fd5b506104286122b7565b3480156109e757600080fd5b506105ac600160a060020a0360043516602435612314565b348015610a0b57600080fd5b50610428600160a060020a036004358116906024351660443561243f565b348015610a3557600080fd5b5061042860043560ff6024351661245b565b348015610a5357600080fd5b5061042860043561256a565b348015610a6b57600080fd5b506105ac6125e3565b348015610a8057600080fd5b506105ac6004356125e9565b348015610a9857600080fd5b5061043f6125fe565b348015610aad57600080fd5b506103f760043561268c565b348015610ac557600080fd5b506105ac6004356126a9565b348015610add57600080fd5b506105ac6004356126de565b348015610af557600080fd5b50604080516020601f610104356004818101359283018490048402850184019095528184526103f794803594602480359560ff60443581169663ffffffff60643581169760843590911696600160a060020a0360a435169660c4359094169560e435953695929461012494909201919081908401838280828437509497505060ff853581169650602090950135909416935061284392505050565b348015610b9c57600080fd5b50610bb1600160a060020a036004351661288a565b60408051602080825283518183015283519192839290830191858101910280838360005b83811015610bed578181015183820152602001610bd5565b505050509050019250505060405180910390f35b348015610c0d57600080fd5b506103f76128f6565b348015610c2257600080fd5b506104cc6004356128ff565b348015610c3a57600080fd5b50610c46600435612929565b6040805163ffffffff938416815291909216602082015281519081900390910190f35b348015610c7557600080fd5b50610bb1600160a060020a0360043516612a8f565b348015610c9657600080fd5b506104cc612af9565b348015610cab57600080fd5b506105ac600160a060020a0360043516612b08565b348015610ccc57600080fd5b50604080516020601f610104356004818101359283018490048402850184019095528184526103f794803594602480359560ff60443581169663ffffffff60643581169760843590911696600160a060020a0360a435169660c4359094169560e435953695929461012494909201919081908401838280828437509497505060ff8535811696506020909501359094169350612b3b92505050565b348015610d7357600080fd5b50610428612b65565b348015610d8857600080fd5b50610428600480359060248035908101910135612bc6565b348015610dac57600080fd5b50610bb1600435612c51565b348015610dc457600080fd5b50610428600160a060020a0360043516612cb1565b348015610de557600080fd5b506105ac600160a060020a0360043516602435612cf5565b348015610e0957600080fd5b50610428600435602435612e22565b348015610e2457600080fd5b506105ac600435612ea0565b348015610e3c57600080fd5b50604080516020601f610104356004818101359283018490048402850184019095528184526103f794803594602480359560ff60443581169663ffffffff60643581169760843590911696600160a060020a0360a435169660c4359094169560e435953695929461012494909201919081908401838280828437509497505050923560ff169350612eb292505050565b348015610ed857600080fd5b50610428612edc565b6105ac600160a060020a0360043516602435612f3b565b348015610f0457600080fd5b5061042860043560ff60243516600160a060020a0360443516613229565b348015610f2e57600080fd5b506104cc613528565b348015610f4357600080fd5b5061043f613537565b348015610f5857600080fd5b50610f64600435613598565b604080518c815260ff808d1660208084019190915263ffffffff808e1694840194909452928b166060830152600160a060020a03808b166080840152891660a083015260c08201889052858116610100830152841661012082015282151561014082015261016060e0820181815287519183019190915286519192909161018084019188019080838360005b83811015611008578181015183820152602001610ff0565b50505050905090810190601f1680156110355780820380516001836020036101000a031916815260200191505b509c5050505050505050505050505060405180910390f35b34801561105957600080fd5b506103f7600160a060020a03600435166137ec565b34801561107a57600080fd5b5061042861381b565b34801561108f57600080fd5b50610428600160a060020a0360043516602435151561386c565b3480156110b557600080fd5b50604080516020600460248035828101358481028087018601909752808652610428968435600160a060020a0316963696604495919490910192918291850190849080828437509497506138f09650505050505050565b34801561111857600080fd5b50610428600435600160a060020a0360243516613945565b34801561113c57600080fd5b50604080516020601f60643560048181013592830184900484028501840190955281845261042894600160a060020a038135811695602480359092169560443595369560849401918190840183828082843750949750613a909650505050505050565b3480156111ab57600080fd5b50610c46600435613ab8565b3480156111c357600080fd5b506103f7600435613adc565b3480156111db57600080fd5b506105ac600435613c39565b3480156111f357600080fd5b506105ac600435613dba565b34801561120b57600080fd5b506103f7600435613f1f565b34801561122357600080fd5b5061073560043561407b565b34801561123b57600080fd5b5061043f6004356140d7565b34801561125357600080fd5b5061042860043560ff602435166141e6565b34801561127157600080fd5b5061042860043563ffffffff6024351661432e565b34801561129257600080fd5b5061129e6004356143c9565b6040805160ff9093168352600160a060020a0390911660208301528051918290030190f35b3480156112cf57600080fd5b5060408051602060048035808201358381028086018501909652808552610428953695939460249493850192918291850190849080828437509497506144129650505050505050565b34801561132457600080fd5b506103f7600160a060020a0360043581169060243516614461565b6105ac60043561448f565b34801561135657600080fd5b506105ac61449b565b34801561136b57600080fd5b50610428600160a060020a03600435166144a1565b34801561138c57600080fd5b506040805160206004604435818101358381028086018501909652808552610428958335600160a060020a0390811696602480359092169636969560649592949301928291850190849080828437509497506144c19650505050505050565b3480156113f757600080fd5b50610bb160ff600435166144f7565b34801561141257600080fd5b5061043f60043561455b565b600160e060020a03191660009081526020819052604090205460ff1690565b6000611448336137ec565b151561145357600080fd5b6000838152601560205260408120548491106114a7576040805160e560020a62461bcd0281526020600482015260166024820152600080516020615d11833981519152604482015290519081900360640190fd5b5050600091825260156020526040909120600501805460ff1916911515919091179055565b60058054604080516020601f60026000196101006001881615020190951694909404938401819004810282018101909252828152606093909290918301828280156115585780601f1061152d57610100808354040283529160200191611558565b820191906000526020600020905b81548152906001019060200180831161153b57829003601f168201915b505050505090505b90565b600090815260026020526040902054600160a060020a031690565b6000611589826128ff565b9050600160a060020a0383811690821614156115a457600080fd5b33600160a060020a03821614806115c057506115c08133614461565b15156115cb57600080fd5b6000828152600260205260408082208054600160a060020a031916600160a060020a0387811691821790925591518593918516917f8c5be1e5ebec7d5bd14f71427d1e84f3dd0314c0f7b2291e5b200ac8c7c3b92591a4505050565b61169182600d836040518082805190602001908083835b6020831061165d5780518252601f19909201916020918201910161163e565b51815160209384036101000a60001901801990921691161790529201948552506040519384900301909220929150506145bf565b5050565b61169e336137ec565b15156116a957600080fd5b6000828152601560205260408120548391106116fd576040805160e560020a62461bcd0281526020600482015260166024820152600080516020615d11833981519152604482015290519081900360640190fd5b50600091825260156020526040909120600201805463ffffffff909216650100000000000268ffffffff000000000019909216919091179055565b600081815260166020526040812054611750816125e9565b9392505050565b611760336137ec565b151561176b57600080fd5b6117748361268c565b151561177f57600080fd5b6117b98383838080601f016020809104026020016040519081016040528093929190818152602001838380828437506145d4945050505050565b505050565b60095490565b6117cd336137ec565b15156117d857600080fd5b600160a060020a0381161515611838576040805160e560020a62461bcd02815260206004820152600f60248201527f496e76616c696420616464726573730000000000000000000000000000000000604482015290519081900360640190fd5b60138054600160a060020a031916600160a060020a0392909216919091179055565b6040805180820190915260098152600080516020615cf1833981519152602082015281565b7f01ffc9a70000000000000000000000000000000000000000000000000000000081565b600080600060606000806118b5615b0c565b6118be8861268c565b15156118c957600080fd5b6000888152601660209081526040808320548084526015835292819020815161018081018352815481526001808301548286015260028084015460ff8082168588015261010080830463ffffffff9081166060880152650100000000008404166080870152604860020a8304600160a060020a031660a087015260e860020a9092041660c0850152600385015460e08501526004850180548751600019958216158402959095011692909204601f8101889004880284018801909652858352969850919592949286019390928301828280156119e65780601f106119bb576101008083540402835291602001916119e6565b820191906000526020600020905b8154815290600101906020018083116119c957829003601f168201915b50505091835250506005919091015460ff80821615156020808501919091526101008304821660408086019190915262010000909304909116606090930192909252820151908201519192508391611a3d8b6140d7565b611a468c6128ff565b939c929b5090995097509095509350505050565b6000806000806000806000806000611a70615b0c565b60008b8152601560205260408120548c9110611ac4576040805160e560020a62461bcd0281526020600482015260166024820152600080516020615d11833981519152604482015290519081900360640190fd5b60008c815260156020908152604091829020825161018081018452815481526001808301548285015260028084015460ff8082168589015261010080830463ffffffff9081166060880152650100000000008404166080870152604860020a8304600160a060020a031660a087015260e860020a9092041660c0850152600385015460e08501526004850180548851600019958216158402959095011692909204601f810187900487028401870190975286835292959394928601939192909190830182828015611bd65780601f10611bab57610100808354040283529160200191611bd6565b820191906000526020600020905b815481529060010190602001808311611bb957829003601f168201915b505050505081526020016005820160009054906101000a900460ff161515151581526020016005820160019054906101000a900460ff1660ff1660ff1681526020016005820160029054906101000a900460ff1660ff1660ff168152505091508b8260400151836060015184608001518560a001518660c001518760e001518861016001518961014001518160ff1691508060ff1690509a509a509a509a509a509a509a509a509a5050509193959799909294969850565b600061175083600d846040518082805190602001908083835b60208310611cc65780518252601f199092019160209182019101611ca7565b51815160209384036101000a6000190180199092169116179052920194855250604051938490030190922092915050614607565b611d03336137ec565b1515611d0e57600080fd5b801515611d65576040805160e560020a62461bcd02815260206004820152601060248201527f426173652055524920696e76616c696400000000000000000000000000000000604482015290519081900360640190fd5b6117b9600f8383615b6f565b611d7b3382614626565b1515611d8657600080fd5b600160a060020a0383161515611d9b57600080fd5b600160a060020a0382161515611db057600080fd5b611dba8382614685565b611dc483826146e7565b611dce82826147ee565b8082600160a060020a031684600160a060020a03167fddf252ad1be2c89b69c2b068fc378daa952ba7f163c4a11628f55a4df523b3ef60405160405180910390a4505050565b600c54600090600160a060020a03163314611e2e57600080fd5b5060005b815181101561169157611e5b8282815181101515611e4c57fe5b90602001906020020151611e63565b600101611e32565b600c54600160a060020a03163314611e7a57600080fd5b611ea781604080519081016040528060098152602001600080516020615cf1833981519152815250614837565b50565b60105481565b6000611ebb83612b08565b8210611ec657600080fd5b600160a060020a0383166000908152600760205260409020805483908110611eea57fe5b9060005260206000200154905092915050565b6000611f08336137ec565b1515611f1357600080fd5b600083815260156020526040812054849110611f67576040805160e560020a62461bcd0281526020600482015260166024820152600080516020615d11833981519152604482015290519081900360640190fd5b60008481526015602052604090206005015460ff808516610100909204161115612027576040805160e560020a62461bcd02815260206004820152604560248201527f556e61626c6520746f2072656475636520617661696c61626c6520616d6f756e60448201527f7420746f207468652062656c6f7720746865206e756d62657220746f74616c5360648201527f7570706c79000000000000000000000000000000000000000000000000000000608482015290519081900360a40190fd5b6000848152601560205260409020600501805460ff8581166201000081810262ff0000198516179094556012549390920416935061207b9161206f908563ffffffff61494816565b9063ffffffff61495a16565b60125550505050565b606061208e615b0c565b600083815260156020908152604091829020825161018081018452815481526001808301548285015260028084015460ff8082168589015261010080830463ffffffff9081166060880152650100000000008404166080870152604860020a8304600160a060020a031660a087015260e860020a9092041660c0850152600385015460e08501526004850180548851600019958216158402959095011692909204601f8101879004870284018701909752868352929593949286019391929091908301828280156121a05780601f10612175576101008083540402835291602001916121a0565b820191906000526020600020905b81548152906001019060200180831161218357829003601f168201915b50505091835250506005919091015460ff8082161515602080850191909152610100808404831660408087019190915262010000909404909216606090940193909352600f80548351600260018316159094026000190190911692909204601f810185900485028301850190935282825293945061175093909290919083018282801561226e5780601f106122435761010080835404028352916020019161226e565b820191906000526020600020905b81548152906001019060200180831161225157829003601f168201915b5050505050826101000151614967565b6000612289336137ec565b151561229457600080fd5b6122a88b8b8b8b8b8b8b8b8b8b600061499c565b9b9a5050505050505050505050565b600c54600160a060020a031633146122ce57600080fd5b600e5460ff1615156122df57600080fd5b600e805460ff191690556040517f7805862f689e2f13df9f062ff482ad3ad112aca9e0847911ed832e158c525b3390600090a1565b600080612320336137ec565b151561232b57600080fd5b60008381526015602052604081205484911061237f576040805160e560020a62461bcd0281526020600482015260166024820152600080516020615d11833981519152604482015290519081900360640190fd5b600084815260156020526040902060050154849060ff6201000082048116610100909204161061241f576040805160e560020a62461bcd02815260206004820152602160248201527f4e6f206d6f72652065646974696f6e73206c65667420746f207075726368617360448201527f6500000000000000000000000000000000000000000000000000000000000000606482015290519081900360840190fd5b61242885614e59565b9250612435868487614eae565b5090949350505050565b6117b98383836020604051908101604052806000815250613a90565b60008060008061246a336137ec565b151561247557600080fd5b6000868152601560205260408120548791106124c9576040805160e560020a62461bcd0281526020600482015260166024820152600080516020615d11833981519152604482015290519081900360640190fd5b6000878152601560209081526040808320601c835281842054600282015460ff168552601b90935292208054929750909550935083908590811061250957fe5b6000918252602080832090910182905560ff909716808252601b88526040808320805460018101825590845289842081018b9055998352601c895280832099909955601590975296909620600201805460ff19169095179094555050505050565b6000806000612578336137ec565b151561258357600080fd5b61259561258f856128ff565b85614ffd565b505050600081815260166020908152604080832080549084905580845260178352818420858552601890935292205481548290829081106125d257fe5b600091825260208220015550505050565b60125481565b60009081526015602052604090206003015490565b600f805460408051602060026001851615610100026000190190941693909304601f810184900484028201840190925281815292918301828280156126845780601f1061265957610100808354040283529160200191612684565b820191906000526020600020905b81548152906001019060200180831161266757829003601f168201915b505050505081565b600090815260016020526040902054600160a060020a0316151590565b60006126b36117be565b82106126be57600080fd5b60098054839081106126cc57fe5b90600052602060002001549050919050565b60006126e8615b0c565b600083815260156020908152604091829020825161018081018452815481526001808301548285015260028084015460ff8082168589015261010080830463ffffffff9081166060880152650100000000008404166080870152604860020a8304600160a060020a031660a087015260e860020a9092041660c0850152600385015460e08501526004850180548851600019958216158402959095011692909204601f8101879004870284018701909752868352929593949286019391929091908301828280156127fa5780601f106127cf576101008083540402835291602001916127fa565b820191906000526020600020905b8154815290600101906020018083116127dd57829003601f168201915b50505091835250506005919091015460ff808216151560208401526101008204811660408401526201000090910481166060909201919091526101409190910151169392505050565b600061284e336137ec565b151561285957600080fd5b61286d8c8c8c8c8c8c8c8c8c8b600161499c565b506128788c846141e6565b5060019b9a5050505050505050505050565b600160a060020a0381166000908152600760209081526040918290208054835181840281018401909452808452606093928301828280156128ea57602002820191906000526020600020905b8154815260200190600101908083116128d6575b50505050509050919050565b600e5460ff1681565b600081815260016020526040812054600160a060020a031680151561292357600080fd5b92915050565b600080612934615b0c565b600084815260156020908152604091829020825161018081018452815481526001808301548285015260028084015460ff8082168589015261010080830463ffffffff9081166060880152650100000000008404166080870152604860020a8304600160a060020a031660a087015260e860020a9092041660c0850152600385015460e08501526004850180548851600019958216158402959095011692909204601f810187900487028401870190975286835292959394928601939192909190830182828015612a465780601f10612a1b57610100808354040283529160200191612a46565b820191906000526020600020905b815481529060010190602001808311612a2957829003601f168201915b50505091835250506005919091015460ff808216151560208401526101008204811660408401526201000090910416606091820152810151608090910151909590945092505050565b600160a060020a0381166000908152601960209081526040918290208054835181840281018401909452808452606093928301828280156128ea57602002820191906000526020600020908154815260200190600101908083116128d65750505050509050919050565b601354600160a060020a031681565b6000600160a060020a0382161515612b1f57600080fd5b50600160a060020a031660009081526003602052604090205490565b6000612b46336137ec565b1515612b5157600080fd5b61286d8c8c8c8c8c8c8c8c8c8b600061499c565b600c54600160a060020a03163314612b7c57600080fd5b600c54604051600160a060020a03909116907ff8df31144d9c2f0f6b59d69b8b98abd5459d07f2742c4df920b25aae33c6482090600090a2600c8054600160a060020a0319169055565b612bcf336137ec565b1515612bda57600080fd5b600083815260156020526040812054849110612c2e576040805160e560020a62461bcd0281526020600482015260166024820152600080516020615d11833981519152604482015290519081900360640190fd5b6000848152601560205260409020612c4a906004018484615b6f565b5050505050565b6000818152601760209081526040918290208054835181840281018401909452808452606093928301828280156128ea57602002820191906000526020600020908154815260200190600101908083116128d65750505050509050919050565b600c54600160a060020a03163314612cc857600080fd5b611ea781604080519081016040528060098152602001600080516020615cf18339815191528152506150f7565b600080612d01336137ec565b1515612d0c57600080fd5b600083815260156020526040812054849110612d60576040805160e560020a62461bcd0281526020600482015260166024820152600080516020615d11833981519152604482015290519081900360640190fd5b612d69846151c9565b600085815260156020526040902060050154909250612d9290859062010000900460ff1661495a565b821115612e0f576040805160e560020a62461bcd02815260206004820152602e60248201527f52656163686564206d617820746f6b656e49642c2063616e6e6f7420756e646560448201527f72206d696e7420616e796d6f7265000000000000000000000000000000000000606482015290519081900360840190fd5b612e1a858386614eae565b509392505050565b612e2b336137ec565b1515612e3657600080fd5b600082815260156020526040812054839110612e8a576040805160e560020a62461bcd0281526020600482015260166024820152600080516020615d11833981519152604482015290519081900360640190fd5b5060009182526015602052604090912060030155565b60009081526016602052604090205490565b6000612ebd336137ec565b1515612ec857600080fd5b6122a88b8b8b8b8b8b8b8b8b8b600161499c565b600c54600160a060020a03163314612ef357600080fd5b600e5460ff1615612f0357600080fd5b600e805460ff191660011790556040517f6985a02210a168e66602d3235cb6db0e70f92b3ba4d376a33c0f3d9434bff62590600090a1565b600e546000908190819060ff1615612f5257600080fd5b600084815260156020526040812054859110612fa6576040805160e560020a62461bcd0281526020600482015260166024820152600080516020615d11833981519152604482015290519081900360640190fd5b600085815260156020526040902060050154859060ff161515613013576040805160e560020a62461bcd02815260206004820152601260248201527f45646974696f6e206e6f74206163746976650000000000000000000000000000604482015290519081900360640190fd5b600086815260156020526040902060050154869060ff620100008204811661010090920416106130b3576040805160e560020a62461bcd02815260206004820152602160248201527f4e6f206d6f72652065646974696f6e73206c65667420746f207075726368617360448201527f6500000000000000000000000000000000000000000000000000000000000000606482015290519081900360840190fd5b60008781526015602052604090206002015487904261010090910463ffffffff16111561312a576040805160e560020a62461bcd02815260206004820152601960248201527f45646974696f6e206e6f7420617661696c61626c652079657400000000000000604482015290519081900360640190fd5b600081815260156020526040902060020154426501000000000090910463ffffffff1610156131a3576040805160e560020a62461bcd02815260206004820152601b60248201527f45646974696f6e206e6f206c6f6e67657220617661696c61626c650000000000604482015290519081900360640190fd5b600088815260156020526040902060038101549096503410156131c557600080fd5b6131ce88614e59565b94506131db89868a614eae565b6131e48861526f565b88600160a060020a031634867f9d995b79e708615dc7201d66ebdcb94d773fe76aac960305383a8b4f8dda9f0560405160405180910390a45092979650505050505050565b613231615b0c565b600061323c336137ec565b151561324757600080fd5b600085815260156020908152604091829020825161018081018452815481526001808301548285015260028084015460ff8082168589015261010080830463ffffffff9081166060880152650100000000008404166080870152604860020a8304600160a060020a031660a087015260e860020a9092041660c0850152600385015460e08501526004850180548851600019958216158402959095011692909204601f8101879004870284018701909752868352929593949286019391929091908301828280156133595780601f1061332e57610100808354040283529160200191613359565b820191906000526020600020905b81548152906001019060200180831161333c57829003601f168201915b50505091835250506005919091015460ff8082161515602084015261010082048116604084015262010000909104811660609092019190915260c082015191935090811691506000908516111561343057600160a060020a0383161515613430576040805160e560020a62461bcd02815260206004820152603560248201527f53657474696e6720612072617465206d757374206265206163636f6d70616e6960448201527f656420627920612076616c696420616464726573730000000000000000000000606482015290519081900360840190fd5b60646134458260ff871663ffffffff61495a16565b11156134c1576040805160e560020a62461bcd02815260206004820152602560248201527f43616e742073657420636f6d6d697373696f6e2067726561746572207468616e60448201527f2031303025000000000000000000000000000000000000000000000000000000606482015290519081900360840190fd5b505060408051808201825260ff9384168152600160a060020a039283166020808301918252600096875260149052919094209351845491519092166101000274ffffffffffffffffffffffffffffffffffffffff00199290931660ff199091161716179055565b600c54600160a060020a031681565b60068054604080516020601f60026000196101006001881615020190951694909404938401819004810282018101909252828152606093909290918301828280156115585780601f1061152d57610100808354040283529160200191611558565b600080600080600080600060606000806000808c6000601560008381526020019081526020016000206000015411151561360a576040805160e560020a62461bcd0281526020600482015260166024820152600080516020615d11833981519152604482015290519081900360640190fd5b60008e8152601560209081526040918290206001808201546002808401546003850154600f805489516101009782161588026000190190911694909404601f8101899004890285018901909952888452959950929660ff8083169795830463ffffffff9081169765010000000000850490911696604860020a8504600160a060020a03169660e860020a909504909216946137899390928301828280156136f25780601f106136c7576101008083540402835291602001916136f2565b820191906000526020600020905b8154815290600101906020018083116136d557829003601f168201915b5050505060048c01805460408051602060026001851615610100026000190190941693909304601f810184900484028201840190925281815293509083018282801561377f5780601f106137545761010080835404028352916020019161377f565b820191906000526020600020905b81548152906001019060200180831161376257829003601f168201915b5050505050614967565b8960050160019054906101000a900460ff168a60050160029054906101000a900460ff168b60050160009054906101000a900460ff168560ff1695509c509c509c509c509c509c509c509c509c509c509c50505091939597999b90929496989a50565b600061292382604080519081016040528060098152602001600080516020615cf1833981519152815250611c8e565b600c54600160a060020a0316331461383257600080fd5b600c54604051600160a060020a0390911690303180156108fc02916000818181858888f19350505050158015611ea7573d6000803e3d6000fd5b600160a060020a03821633141561388257600080fd5b336000818152600460209081526040808320600160a060020a03871680855290835292819020805460ff1916861515908117909155815190815290519293927f17307eab39ab6107e8899845ad3d59bd9653f200f220920489ca2b5937696c31929181900390910190a35050565b60005b81518110156117b95761393d61391f838381518110151561391057fe5b906020019060200201516128ff565b84848481518110151561392e57fe5b9060200190602002015161243f565b6001016138f3565b600080600080613954336137ec565b151561395f57600080fd5b6000868152601560205260408120548791106139b3576040805160e560020a62461bcd0281526020600482015260166024820152600080516020615d11833981519152604482015290519081900360640190fd5b6000878152601560209081526040808320601a8352818420546002820154604860020a9004600160a060020a031685526019909352922080549297509095509350839085908110613a0057fe5b60009182526020808320909101829055600160a060020a03909716808252601988526040808320805460018101825590845289842081018b9055998352601a8952808320999099556015909752969096206002018054604860020a9096027fffffff0000000000000000000000000000000000000000ffffffffffffffffff909616959095179094555050505050565b613a9b848484611d71565b613aa7848484846153df565b1515613ab257600080fd5b50505050565b6000818152601660205260408120548190613ad281612929565b9250925050915091565b6000613ae6615b0c565b600083815260156020908152604091829020825161018081018452815481526001808301548285015260028084015460ff8082168589015261010080830463ffffffff9081166060880152650100000000008404166080870152604860020a8304600160a060020a031660a087015260e860020a9092041660c0850152600385015460e08501526004850180548851600019958216158402959095011692909204601f810187900487028401870190975286835292959394928601939192909190830182828015613bf85780601f10613bcd57610100808354040283529160200191613bf8565b820191906000526020600020905b815481529060010190602001808311613bdb57829003601f168201915b50505091835250506005919091015460ff80821615156020840152610100820481166040840152620100009091041660609091015261012001519392505050565b6000613c43615b0c565b600083815260156020908152604091829020825161018081018452815481526001808301548285015260028084015460ff8082168589015261010080830463ffffffff9081166060880152650100000000008404166080870152604860020a8304600160a060020a031660a087015260e860020a9092041660c0850152600385015460e08501526004850180548851600019958216158402959095011692909204601f810187900487028401870190975286835292959394928601939192909190830182828015613d555780601f10613d2a57610100808354040283529160200191613d55565b820191906000526020600020905b815481529060010190602001808311613d3857829003601f168201915b50505091835250506005919091015460ff80821615156020840152610100820481166040840152620100009091048116606090920191909152610140820151610160830151929350613db0929091169063ffffffff61554c16565b60ff169392505050565b6000613dc4615b0c565b600083815260156020908152604091829020825161018081018452815481526001808301548285015260028084015460ff8082168589015261010080830463ffffffff9081166060880152650100000000008404166080870152604860020a8304600160a060020a031660a087015260e860020a9092041660c0850152600385015460e08501526004850180548851600019958216158402959095011692909204601f810187900487028401870190975286835292959394928601939192909190830182828015613ed65780601f10613eab57610100808354040283529160200191613ed6565b820191906000526020600020905b815481529060010190602001808311613eb957829003601f168201915b50505091835250506005919091015460ff808216151560208401526101008204811660408401526201000090910481166060909201919091526101609190910151169392505050565b6000613f29615b0c565b600083815260156020908152604091829020825161018081018452815481526001808301548285015260028084015460ff8082168589015261010080830463ffffffff9081166060880152650100000000008404166080870152604860020a8304600160a060020a031660a087015260e860020a9092041660c0850152600385015460e08501526004850180548851600019958216158402959095011692909204601f81018790048702840187019097528683529295939492860193919290919083018282801561403b5780601f106140105761010080835404028352916020019161403b565b820191906000526020600020905b81548152906001019060200180831161401e57829003601f168201915b50505091835250506005919091015460ff808216151560208401526101008204811660408401526201000090910416606090910152519290921492915050565b6000806000806000806000806000806140938b61268c565b151561409e57600080fd5b5060008a8152601660205260409020546140b781611a5a565b995099509950995099509950995099509950509193959799909294969850565b60606140e28261268c565b15156140ed57600080fd5b600f8054604080516020601f60026000196101006001881615020190951694909404938401819004810282018101909252828152612923939092909183018282801561417a5780601f1061414f5761010080835404028352916020019161417a565b820191906000526020600020905b81548152906001019060200180831161415d57829003601f168201915b5050506000868152600b60209081526040918290208054835160026001831615610100026000190190921691909104601f81018490048402820184019094528381529450925083018282801561377f5780601f106137545761010080835404028352916020019161377f565b60006141f1336137ec565b15156141fc57600080fd5b600083815260156020526040812054849110614250576040805160e560020a62461bcd0281526020600482015260166024820152600080516020615d11833981519152604482015290519081900360640190fd5b8260ff1661425d85612c51565b511115614300576040805160e560020a62461bcd02815260206004820152604960248201527f43616e74206c6f77657220746f74616c537570706c7920746f2062656c6f772060448201527f746865206e756d626572206f6620746f6b656e7320616c726561647920696e2060648201527f6578697374656e63650000000000000000000000000000000000000000000000608482015290519081900360a40190fd5b5050600091825260156020526040909120600501805460ff9092166101000261ff0019909216919091179055565b614337336137ec565b151561434257600080fd5b600082815260156020526040812054839110614396576040805160e560020a62461bcd0281526020600482015260166024820152600080516020615d11833981519152604482015290519081900360640190fd5b50600091825260156020526040909120600201805463ffffffff9092166101000264ffffffff0019909216919091179055565b6000806143d4615bed565b50505060009081526014602090815260409182902082518084019093525460ff8116808452610100909104600160a060020a03169290910182905291565b600c54600090600160a060020a0316331461442c57600080fd5b5060005b815181101561169157614459828281518110151561444a57fe5b90602001906020020151612cb1565b600101614430565b600160a060020a03918216600090815260046020908152604080832093909416825291909152205460ff1690565b60006129233383612f3b565b60115481565b600c54600160a060020a031633146144b857600080fd5b611ea78161555e565b60005b8151811015613ab2576144ef848484848151811015156144e057fe5b90602001906020020151611d71565b6001016144c4565b60ff81166000908152601b60209081526040918290208054835181840281018401909452808452606093928301828280156128ea57602002820191906000526020600020908154815260200190600101908083116128d65750505050509050919050565b600f805460408051602060026001851615610100026000190190941693909304601f8101849004840282018401909252818152606093612923939192909183018282801561417a5780601f1061414f5761010080835404028352916020019161417a565b6145c98282614607565b151561169157600080fd5b6145dd8261268c565b15156145e857600080fd5b6000828152600b6020908152604090912082516117b992840190615c04565b600160a060020a03166000908152602091909152604090205460ff1690565b600080614632836128ff565b905080600160a060020a031684600160a060020a0316148061466d575083600160a060020a031661466284611563565b600160a060020a0316145b8061467d575061467d8185614461565b949350505050565b81600160a060020a0316614698826128ff565b600160a060020a0316146146ab57600080fd5b600081815260026020526040902054600160a060020a0316156116915760009081526002602052604090208054600160a060020a031916905550565b60008060006146f685856155cf565b600084815260086020908152604080832054600160a060020a038916845260079092529091205490935061473190600163ffffffff61494816565b600160a060020a03861660009081526007602052604090208054919350908390811061475957fe5b90600052602060002001549050806007600087600160a060020a0316600160a060020a031681526020019081526020016000208481548110151561479957fe5b6000918252602080832090910192909255600160a060020a03871681526007909152604090208054906147d0906000198301615c72565b50600093845260086020526040808520859055908452909220555050565b60006147fa8383615658565b50600160a060020a039091166000908152600760209081526040808320805460018101825590845282842081018590559383526008909152902055565b6148a182600d836040518082805190602001908083835b6020831061486d5780518252601f19909201916020918201910161484e565b51815160209384036101000a60001901801990921691161790529201948552506040519384900301909220929150506156db565b81600160a060020a03167fd211483f91fc6eff862467f8de606587a30c8fc9981056f051b897a418df803a826040518080602001828103825283818151815260200191508051906020019080838360005b8381101561490a5781810151838201526020016148f2565b50505050905090810190601f1680156149375780820380516001836020036101000a031916815260200191505b509250505060405180910390a25050565b60008282111561495457fe5b50900390565b8181018281101561292357fe5b6040805160208181018352600080835283518083018552818152845192830190945281526060926117509286928692906156fd565b6000808c15156149f6576040805160e560020a62461bcd02815260206004820152601b60248201527f45646974696f6e206e756d626572206e6f742070726f76696465640000000000604482015290519081900360640190fd5b60ff8b161515614a50576040805160e560020a62461bcd02815260206004820152601960248201527f45646974696f6e2074797065206e6f742070726f766964656400000000000000604482015290519081900360640190fd5b84511515614aa8576040805160e560020a62461bcd02815260206004820152601460248201527f546f6b656e20555249206973206d697373696e67000000000000000000000000604482015290519081900360640190fd5b600160a060020a0388161515614b08576040805160e560020a62461bcd02815260206004820152601b60248201527f417274697374206163636f756e74206e6f742070726f76696465640000000000604482015290519081900360640190fd5b60648760ff1611158015614b20575060008760ff1610155b1515614b9c576040805160e560020a62461bcd02815260206004820152603b60248201527f41727469737420636f6d6d697373696f6e2063616e6e6f74206265206772656160448201527f746572207468616e20313030206f72206c657373207468616e20300000000000606482015290519081900360840190fd5b60008d81526015602052604090205415614c00576040805160e560020a62461bcd02815260206004820152601c60248201527f45646974696f6e20616c726561647920696e206578697374656e636500000000604482015290519081900360640190fd5b508763ffffffff81161515614c1457506000195b610180604051908101604052808e81526020018d6000191681526020018c60ff1681526020018b63ffffffff1681526020018263ffffffff16815260200189600160a060020a031681526020018860ff1681526020018781526020018681526020018415158152602001600060ff1681526020018560ff16815250601560008f8152602001908152602001600020600082015181600001556020820151816001019060001916905560408201518160020160006101000a81548160ff021916908360ff16021790555060608201518160020160016101000a81548163ffffffff021916908363ffffffff16021790555060808201518160020160056101000a81548163ffffffff021916908363ffffffff16021790555060a08201518160020160096101000a815481600160a060020a030219169083600160a060020a0316021790555060c082015181600201601d6101000a81548160ff021916908360ff16021790555060e08201518160030155610100820151816004019080519060200190614da0929190615c04565b5061012082015160059190910180546101408401516101609094015160ff199091169215159290921761ff00191661010060ff948516021762ff000019166201000092841692909202919091179055601254614dfd91861661495a565b601255614e0a888e61595e565b614e148b8e61599a565b60405160ff8c16908d908f907f07078cc623ca582161d6d906aef268868fe26a56743eab8beab731d7f007371590600090a45060019c9b505050505050505050505050565b60008181526015602052604081206005810154614e7f90610100900460ff1660016159d0565b60058201805461ff00191661010060ff938416810291909117918290558354611750939092919091041661495a565b600081815260156020526040812090614ec785856159e5565b60048201805460408051602060026001851615610100026000190190941693909304601f8101849004840282018401909252818152614f6193889391929091830182828015614f575780601f10614f2c57610100808354040283529160200191614f57565b820191906000526020600020905b815481529060010190602001808311614f3a57829003601f168201915b50505050506145d4565b5080546000848152601660209081526040808320939093558482526017815282822080546001808201835591845282842081018890558784526018909252929091208190556011549091614fbb919063ffffffff61495a16565b601155604051600160a060020a03861690849086907f259eb7b480b3d449f506927269e4665c83c69e4cd797143eaa8f84632dc7a02b90600090a45050505050565b600080600061500c8585615a34565b6000848152600b6020526040902054600260001961010060018416150201909116041561504a576000848152600b6020526040812061504a91615c96565b6000848152600a602052604090205460095490935061507090600163ffffffff61494816565b915060098281548110151561508157fe5b906000526020600020015490508060098481548110151561509e57fe5b600091825260208220019190915560098054849081106150ba57fe5b60009182526020909120015560098054906150d9906000198301615c72565b506000938452600a6020526040808520859055908452909220555050565b61516182600d836040518082805190602001908083835b6020831061512d5780518252601f19909201916020918201910161510e565b51815160209384036101000a6000190180199092169116179052920194855250604051938490030190922092915050615a84565b81600160a060020a03167fbfec83d64eaa953f2708271a023ab9ee82057f8f3578d548c1a4ba0b5b700489826040518080602001828103825283818151815260200191508051906020019080838360008381101561490a5781810151838201526020016148f2565b6000818152601560205260408120805482906151ec90600163ffffffff61495a16565b90505b6151f88161268c565b156152155761520e81600163ffffffff61495a16565b90506151ef565b6005820154825461522d91610100900460ff1661495a565b81111561175057600582015461524c90610100900460ff1660016159d0565b8260050160016101000a81548160ff021916908360ff1602179055509392505050565b600080600061527c615bed565b60008581526015602052604081206002810154909550604860020a8104600160a060020a03169450819060e860020a900460ff166064340402935060008411156152f857604051600160a060020a0386169085156108fc029086906000818181858888f193505050501580156152f6573d6000803e3d6000fd5b505b600087815260146020908152604080832081518083019092525460ff8116808352610100909104600160a060020a03169282019290925294506064340481029350111561537e578260200151600160a060020a03166108fc839081150290604051600060405180830381858888f1935050505015801561537c573d6000803e3d6000fd5b505b506013546040513485900383900391600160a060020a03169082156108fc029083906000818181858888f193505050501580156153bf573d6000803e3d6000fd5b506010546153d3903463ffffffff61495a16565b60105550505050505050565b6000806153f485600160a060020a0316615aa9565b15156154035760019150615543565b6040517f150b7a020000000000000000000000000000000000000000000000000000000081523360048201818152600160a060020a03898116602485015260448401889052608060648501908152875160848601528751918a169463150b7a0294938c938b938b93909160a490910190602085019080838360005b8381101561549657818101518382015260200161547e565b50505050905090810190601f1680156154c35780820380516001836020036101000a031916815260200191505b5095505050505050602060405180830381600087803b1580156154e557600080fd5b505af11580156154f9573d6000803e3d6000fd5b505050506040513d602081101561550f57600080fd5b5051600160e060020a031981167f150b7a020000000000000000000000000000000000000000000000000000000014925090505b50949350505050565b600060ff808416908316111561495457fe5b600160a060020a038116151561557357600080fd5b600c54604051600160a060020a038084169216907f8be0079c531659141344cd1fd0a4f28419497f9722a3daafe3b4186f6b6457e090600090a3600c8054600160a060020a031916600160a060020a0392909216919091179055565b81600160a060020a03166155e2826128ff565b600160a060020a0316146155f557600080fd5b600160a060020a03821660009081526003602052604090205461561f90600163ffffffff61494816565b600160a060020a039092166000908152600360209081526040808320949094559181526001909152208054600160a060020a0319169055565b600081815260016020526040902054600160a060020a03161561567a57600080fd5b60008181526001602081815260408084208054600160a060020a031916600160a060020a03881690811790915584526003909152909120546156bb9161495a565b600160a060020a0390921660009081526003602052604090209190915550565b600160a060020a0316600090815260209190915260409020805460ff19169055565b6060806060806060806060806000808e98508d97508c96508b95508a94508451865188518a518c51010101016040519080825280601f01601f191660200182016040528015615756578160200160208202803883390190505b50935083925060009150600090505b88518110156157c357888181518110151561577c57fe5b90602001015160f860020a900460f860020a0283838060010194508151811015156157a357fe5b906020010190600160f860020a031916908160001a905350600101615765565b5060005b87518110156158255787818151811015156157de57fe5b90602001015160f860020a900460f860020a02838380600101945081518110151561580557fe5b906020010190600160f860020a031916908160001a9053506001016157c7565b5060005b865181101561588757868181518110151561584057fe5b90602001015160f860020a900460f860020a02838380600101945081518110151561586757fe5b906020010190600160f860020a031916908160001a905350600101615829565b5060005b85518110156158e95785818151811015156158a257fe5b90602001015160f860020a900460f860020a0283838060010194508151811015156158c957fe5b906020010190600160f860020a031916908160001a90535060010161588b565b5060005b845181101561594b57848181518110151561590457fe5b90602001015160f860020a900460f860020a02838380600101945081518110151561592b57fe5b906020010190600160f860020a031916908160001a9053506001016158ed565b50909d9c50505050505050505050505050565b600160a060020a03909116600090815260196020908152604080832080546001810182559084528284208101859055938352601a909152902055565b60ff9091166000908152601b6020908152604080832080546001810182559084528284208101859055938352601c909152902055565b600082820160ff808516908216101561175057fe5b6159ef8282615ab1565b600980546000838152600a60205260408120829055600182018355919091527f6e1540171b6c0c960b71a7020d9f60077f6af931a8bbf590da0223dacf75c7af015550565b615a3e8282614685565b615a4882826146e7565b6040518190600090600160a060020a038516907fddf252ad1be2c89b69c2b068fc378daa952ba7f163c4a11628f55a4df523b3ef908390a45050565b600160a060020a0316600090815260209190915260409020805460ff19166001179055565b6000903b1190565b600160a060020a0382161515615ac657600080fd5b615ad082826147ee565b6040518190600160a060020a038416906000907fddf252ad1be2c89b69c2b068fc378daa952ba7f163c4a11628f55a4df523b3ef908290a45050565b604080516101808101825260008082526020820181905291810182905260608082018390526080820183905260a0820183905260c0820183905260e082018390526101008201526101208101829052610140810182905261016081019190915290565b828054600181600116156101000203166002900490600052602060002090601f016020900481019282601f10615bb05782800160ff19823516178555615bdd565b82800160010185558215615bdd579182015b82811115615bdd578235825591602001919060010190615bc2565b50615be9929150615cd6565b5090565b604080518082019091526000808252602082015290565b828054600181600116156101000203166002900490600052602060002090601f016020900481019282601f10615c4557805160ff1916838001178555615bdd565b82800160010185558215615bdd579182015b82811115615bdd578251825591602001919060010190615c57565b8154818355818111156117b9576000838152602090206117b9918101908301615cd6565b50805460018160011615610100020316600290046000825580601f10615cbc5750611ea7565b601f016020900490600052602060002090810190611ea791905b61156091905b80821115615be95760008155600101615cdc560077686974656c697374000000000000000000000000000000000000000000000045646974696f6e206e756d62657220696e76616c696400000000000000000000a165627a7a72305820824ec51737b2a2f62d8de0de70edb5d254c323831427c9033e1260942406c3620029",
  "source": "pragma solidity ^0.4.24;\n\n// allows for multi-address access\nimport \"openzeppelin-solidity/contracts/access/Whitelist.sol\";\n\n// prevents stuck ether\nimport \"openzeppelin-solidity/contracts/ownership/HasNoEther.sol\";\n\n// For safe maths operations\nimport \"openzeppelin-solidity/contracts/math/SafeMath.sol\";\nimport \"../libs/SafeMath8.sol\";\n\n// Pause purchasing only in case of emergency/migration\nimport \"openzeppelin-solidity/contracts/lifecycle/Pausable.sol\";\n\n// ERC721\nimport \"openzeppelin-solidity/contracts/token/ERC721/ERC721Token.sol\";\n\n// Utils only\nimport \"../Strings.sol\";\n\ncontract KnownOriginDigitalAssetV2 is\nERC721Token,\nWhitelist,\nHasNoEther,\nPausable\n{\n  using SafeMath for uint256;\n  using SafeMath8 for uint8;\n\n  ////////////\n  // Events //\n  ////////////\n\n  // On purchases from within this contract - bought through mint/mintTo\n  event Purchase(\n    uint256 indexed _tokenId,\n    uint256 indexed _costInWei,\n    address indexed _buyer\n  );\n\n  // Emitted on every mint\n  event Minted(\n    uint256 indexed _tokenId,\n    uint256 indexed _editionNumber,\n    address indexed _buyer\n  );\n\n  // Emitted on every edition created\n  event EditionCreated(\n    uint256 indexed _editionNumber,\n    bytes32 indexed _editionData,\n    uint8 indexed _editionType\n  );\n\n  ////////////////\n  // Properties //\n  ////////////////\n\n  uint32 constant internal MAX_UINT32 = ~uint32(0);\n\n  string public tokenBaseURI = \"https://ipfs.infura.io/ipfs/\";\n\n  // total wei been processed through the contract\n  uint256 public totalPurchaseValueInWei;\n\n  // number of assets sold of any type\n  uint256 public totalNumberMinted;\n\n  // number of assets available of any type\n  uint256 public totalNumberAvailable;\n\n  // the KO account which can receive commission\n  address public koCommissionAccount;\n\n  // Optional commission split can be defined per edition\n  mapping(uint256 => CommissionSplit) editionNumberToOptionalCommissionSplit;\n\n  // Simple struct providing an optional commission split on asset purchase\n  struct CommissionSplit {\n    uint8 rate;\n    address recipient;\n  }\n\n  // Object for edition details\n  struct EditionDetails {\n    // Identifiers\n    uint256 editionNumber;    // the range e.g. 10000\n    bytes32 editionData;      // some data about the edition\n    uint8 editionType;        // e.g. 1 = KODA V1 physical, 2 = KODA V1 digital, 3 = KODA V2, 4 = KOTA\n    // Config\n    uint32 startDate;         // date when the asset goes on sale\n    uint32 endDate;           // date when the asset is available until\n    address artistAccount;    // artists account\n    uint8 artistCommission;   // base commissions, could be overridden by parent contracts\n    uint256 priceInWei;       // base price for asset, could be overridden by parent contracts\n    string tokenURI;          // IPFS Hash only\n    bool active;              // Root control - on/off for the edition\n    // Counters\n    uint8 totalSupply;        // Total purchases/totalSupply\n    uint8 totalAvailable;     // Total number available to be purchased\n  }\n\n  mapping(uint256 => EditionDetails) internal editionNumberToEditionDetails;\n\n  mapping(uint256 => uint256) internal tokenIdToEditionNumber;\n\n  mapping(uint256 => uint256[]) internal editionNumberToTokenIds;\n  mapping(uint256 => uint256) internal editionNumberToTokenIdIndex;\n\n  mapping(address => uint256[]) internal artistToEditionNumbers;\n  mapping(uint256 => uint256) internal editionNumberToArtistIndex;\n\n  mapping(uint8 => uint256[]) internal editionTypeToEditionNumber;\n  mapping(uint256 => uint256) internal editionNumberToTypeIndex;\n\n  ///////////////\n  // Modifiers //\n  ///////////////\n\n  modifier onlyKnownOrigin() {\n    require(whitelist(msg.sender));\n    _;\n  }\n\n  modifier onlyAvailableEdition(uint256 _editionNumber) {\n    require(editionNumberToEditionDetails[_editionNumber].totalSupply < editionNumberToEditionDetails[_editionNumber].totalAvailable, \"No more editions left to purchase\");\n    _;\n  }\n\n  modifier onlyActiveEdition(uint256 _editionNumber) {\n    require(editionNumberToEditionDetails[_editionNumber].active, \"Edition not active\");\n    _;\n  }\n\n  modifier onlyRealEdition(uint256 _editionNumber) {\n    require(editionNumberToEditionDetails[_editionNumber].editionNumber > 0, \"Edition number invalid\");\n    _;\n  }\n\n  modifier onlyPurchaseDuringWindow(uint256 _editionNumber) {\n    require(editionNumberToEditionDetails[_editionNumber].startDate <= block.timestamp, \"Edition not available yet\");\n    require(editionNumberToEditionDetails[_editionNumber].endDate >= block.timestamp, \"Edition no longer available\");\n    _;\n  }\n\n  /*\n   * Constructor\n   */\n  constructor () public payable ERC721Token(\"KnownOriginDigitalAsset\", \"KODA\") {\n    // Assume the commission account is the creator for now\n    koCommissionAccount = msg.sender;\n    // Whitelist owner\n    addAddressToWhitelist(msg.sender);\n  }\n\n  function createActiveEdition(\n    uint256 _editionNumber, bytes32 _editionData, uint8 _editionType,\n    uint32 _startDate, uint32 _endDate,\n    address _artistAccount, uint8 _artistCommission,\n    uint256 _priceInWei, string _tokenURI, uint8 _totalAvailable\n  )\n  public\n  onlyKnownOrigin\n  returns (bool)\n  {\n    return _createEdition(_editionNumber, _editionData, _editionType, _startDate, _endDate, _artistAccount, _artistCommission, _priceInWei, _tokenURI, _totalAvailable, true);\n  }\n\n  function createInactiveEdition(\n    uint256 _editionNumber, bytes32 _editionData, uint8 _editionType,\n    uint32 _startDate, uint32 _endDate,\n    address _artistAccount, uint8 _artistCommission,\n    uint256 _priceInWei, string _tokenURI, uint8 _totalAvailable\n  )\n  public\n  onlyKnownOrigin\n  returns (bool)\n  {\n    return _createEdition(_editionNumber, _editionData, _editionType, _startDate, _endDate, _artistAccount, _artistCommission, _priceInWei, _tokenURI, _totalAvailable, false);\n  }\n\n  function createActivePreMintedEdition(\n    uint256 _editionNumber, bytes32 _editionData, uint8 _editionType,\n    uint32 _startDate, uint32 _endDate,\n    address _artistAccount, uint8 _artistCommission,\n    uint256 _priceInWei, string _tokenURI,\n    uint8 _totalSupply, uint8 _totalAvailable\n  )\n  public\n  onlyKnownOrigin\n  returns (bool)\n  {\n    _createEdition(_editionNumber, _editionData, _editionType, _startDate, _endDate, _artistAccount, _artistCommission, _priceInWei, _tokenURI, _totalAvailable, true);\n    updateTotalSupply(_editionNumber, _totalSupply);\n    return true;\n  }\n\n  function createInactivePreMintedEdition(\n    uint256 _editionNumber, bytes32 _editionData, uint8 _editionType,\n    uint32 _startDate, uint32 _endDate,\n    address _artistAccount, uint8 _artistCommission,\n    uint256 _priceInWei, string _tokenURI,\n    uint8 _totalSupply, uint8 _totalAvailable\n  )\n  public\n  onlyKnownOrigin\n  returns (bool)\n  {\n    _createEdition(_editionNumber, _editionData, _editionType, _startDate, _endDate, _artistAccount, _artistCommission, _priceInWei, _tokenURI, _totalAvailable, false);\n    updateTotalSupply(_editionNumber, _totalSupply);\n    return true;\n  }\n\n  function _createEdition(\n    uint256 _editionNumber, bytes32 _editionData, uint8 _editionType,\n    uint32 _startDate, uint32 _endDate,\n    address _artistAccount, uint8 _artistCommission,\n    uint256 _priceInWei, string _tokenURI,\n    uint8 _totalAvailable, bool _active\n  )\n  internal\n  returns (bool)\n  {\n    // Prevent missing edition number\n    require(_editionNumber != 0, \"Edition number not provided\");\n\n    // Prevent missing types\n    require(_editionType != 0, \"Edition type not provided\");\n\n    // prevent missing token URI\n    require(bytes(_tokenURI).length != 0, \"Token URI is missing\");\n\n    // prevent empty artists address\n    require(_artistAccount != address(0), \"Artist account not provided\");\n\n    // Prevent commission of greater than 100% and less than 0%\n    require(_artistCommission <= 100 && _artistCommission >= 0, \"Artist commission cannot be greater than 100 or less than 0\");\n\n    // prevent duplicate editions\n    require(editionNumberToEditionDetails[_editionNumber].editionNumber == 0, \"Edition already in existence\");\n\n    // Default end date to max uint32\n    uint32 endDate = _endDate;\n    if (_endDate == 0) {\n      endDate = MAX_UINT32;\n    }\n\n    editionNumberToEditionDetails[_editionNumber] = EditionDetails({\n      editionNumber : _editionNumber,\n      editionData : _editionData,\n      editionType : _editionType,\n      startDate : _startDate,\n      endDate : endDate,\n      artistAccount : _artistAccount,\n      artistCommission : _artistCommission,\n      priceInWei : _priceInWei,\n      tokenURI : _tokenURI,\n      totalSupply : 0, // default to all available\n      totalAvailable : _totalAvailable,\n      active : _active\n      });\n\n    // Add to total available count\n    totalNumberAvailable = totalNumberAvailable.add(_totalAvailable);\n\n    // Update mappings\n    _updateArtistLookupData(_artistAccount, _editionNumber);\n    _updateEditionTypeLookupData(_editionType, _editionNumber);\n\n    emit EditionCreated(_editionNumber, _editionData, _editionType);\n\n    return true;\n  }\n\n  function _updateEditionTypeLookupData(uint8 _editionType, uint256 _editionNumber) internal {\n    uint256 typeEditionIndex = editionTypeToEditionNumber[_editionType].length;\n    editionTypeToEditionNumber[_editionType].push(_editionNumber);\n    editionNumberToTypeIndex[_editionNumber] = typeEditionIndex;\n  }\n\n  function _updateArtistLookupData(address _artistAccount, uint256 _editionNumber) internal {\n    uint256 artistEditionIndex = artistToEditionNumbers[_artistAccount].length;\n    artistToEditionNumbers[_artistAccount].push(_editionNumber);\n    editionNumberToArtistIndex[_editionNumber] = artistEditionIndex;\n  }\n\n  function purchase(uint256 _editionNumber)\n  public payable\n  returns (uint256)\n  {\n    return purchaseTo(msg.sender, _editionNumber);\n  }\n\n  function purchaseTo(address _to, uint256 _editionNumber)\n  public payable\n  whenNotPaused\n  onlyRealEdition(_editionNumber)\n  onlyActiveEdition(_editionNumber)\n  onlyAvailableEdition(_editionNumber)\n  onlyPurchaseDuringWindow(_editionNumber)\n  returns (uint256) {\n\n    EditionDetails storage _editionDetails = editionNumberToEditionDetails[_editionNumber];\n    require(msg.value >= _editionDetails.priceInWei);\n\n    // Construct next token ID e.g. 100000 + 1 = ID of 100001 (this first in the edition set)\n    uint256 _tokenId = _nextTokenId(_editionNumber);\n\n    // Create the token\n    _mintToken(_to, _tokenId, _editionNumber);\n\n    // Splice funds and handle commissions\n    _handleFunds(_editionNumber);\n\n    // Broadcast purchase\n    emit Purchase(_tokenId, msg.value, _to);\n\n    return _tokenId;\n  }\n\n  function mint(address _to, uint256 _editionNumber)\n  public\n  onlyKnownOrigin\n  onlyRealEdition(_editionNumber)\n  onlyAvailableEdition(_editionNumber)\n  returns (uint256) {\n    // Construct next token ID e.g. 100000 + 1 = ID of 100001 (this first in the edition set)\n    uint256 _tokenId = _nextTokenId(_editionNumber);\n\n    // Create the token\n    _mintToken(_to, _tokenId, _editionNumber);\n\n    // Create the token\n    return _tokenId;\n  }\n\n  function underMint(address _to, uint256 _editionNumber)\n  public\n  onlyKnownOrigin\n  onlyRealEdition(_editionNumber)\n  returns (uint256) {\n    // Under mint token, meaning it takes one from the already sold version\n    uint256 _tokenId = _underMintNextTokenId(_editionNumber);\n\n    // If the next tokenId generate is more than the available number, abort as we have reached maximum under mint\n    if (_tokenId > _editionNumber.add(editionNumberToEditionDetails[_editionNumber].totalAvailable)) {\n      revert(\"Reached max tokenId, cannot under mint anymore\");\n    }\n\n    // Create the token\n    _mintToken(_to, _tokenId, _editionNumber);\n\n    // Create the token\n    return _tokenId;\n  }\n\n  function _nextTokenId(uint256 _editionNumber) internal returns (uint256) {\n    EditionDetails storage _editionDetails = editionNumberToEditionDetails[_editionNumber];\n\n    // Bump number totalSupply\n    _editionDetails.totalSupply = _editionDetails.totalSupply.add(1);\n\n    // Construct next token ID e.g. 100000 + 1 = ID of 100001 (this first in the edition set)\n    return _editionDetails.editionNumber.add(_editionDetails.totalSupply);\n  }\n\n  function _underMintNextTokenId(uint256 _editionNumber) internal returns (uint256) {\n    EditionDetails storage _editionDetails = editionNumberToEditionDetails[_editionNumber];\n\n    // For old editions start the counter as edition + 1\n    uint256 _tokenId = _editionDetails.editionNumber.add(1);\n\n    // Work your way up until you find a free token based on the new _tokenIdd\n    while (exists(_tokenId)) {\n      _tokenId = _tokenId.add(1);\n    }\n\n    // Bump number totalSupply if we are now over minting new tokens\n    if (_tokenId > _editionDetails.editionNumber.add(_editionDetails.totalSupply)) {\n      _editionDetails.totalSupply = _editionDetails.totalSupply.add(1);\n    }\n\n    return _tokenId;\n  }\n\n  function _mintToken(address _to, uint256 _tokenId, uint256 _editionNumber) internal {\n    EditionDetails storage _editionDetails = editionNumberToEditionDetails[_editionNumber];\n\n    // Mint new base token\n    super._mint(_to, _tokenId);\n    super._setTokenURI(_tokenId, _editionDetails.tokenURI);\n\n    // Maintain mapping for tokenId to edition for lookup\n    tokenIdToEditionNumber[_tokenId] = _editionDetails.editionNumber;\n\n    // Get next insert position for edition to token Id mapping\n    uint256 currentIndexOfTokenId = editionNumberToTokenIds[_editionNumber].length;\n\n    // Maintain mapping of edition to token array for \"edition minted tokens\"\n    editionNumberToTokenIds[_editionNumber].push(_tokenId);\n\n    // Maintain a position index for the tokenId within the edition number mapping array, used for clean up token burn\n    editionNumberToTokenIdIndex[_tokenId] = currentIndexOfTokenId;\n\n    // Record sale volume\n    totalNumberMinted = totalNumberMinted.add(1);\n\n    // Emit minted event\n    emit Minted(_tokenId, _editionNumber, _to);\n  }\n\n  function _handleFunds(uint256 _editionNumber) internal {\n\n    EditionDetails storage _editionDetails = editionNumberToEditionDetails[_editionNumber];\n\n    // Extract the artists commission and send it\n    address artistsAccount = _editionDetails.artistAccount;\n    uint256 artistPayment = msg.value / 100 * _editionDetails.artistCommission;\n    if (artistPayment > 0) {\n      artistsAccount.transfer(artistPayment);\n    }\n\n    // Load any commission overrides\n    CommissionSplit memory commission = editionNumberToOptionalCommissionSplit[_editionNumber];\n\n    // Apply optional commission structure\n    uint256 rateSplit = msg.value / 100 * commission.rate;\n    if (commission.rate > 0) {\n      commission.recipient.transfer(rateSplit);\n    }\n\n    // Send remaining eth to KO\n    uint256 remainingCommission = msg.value - artistPayment - rateSplit;\n    koCommissionAccount.transfer(remainingCommission);\n\n    // Record wei sale value\n    totalPurchaseValueInWei = totalPurchaseValueInWei.add(msg.value);\n  }\n\n  function burn(uint256 _tokenId) public onlyKnownOrigin {\n\n    // Clear from parents\n    super._burn(ownerOf(_tokenId), _tokenId);\n\n    // Get hold of the edition for cleanup\n    uint256 _editionNumber = tokenIdToEditionNumber[_tokenId];\n\n    // Delete token ID mapping\n    delete tokenIdToEditionNumber[_tokenId];\n\n    // Delete tokens associated to the edition - this will leave a gap in the array of zero\n    uint256[] storage tokenIdsForEdition = editionNumberToTokenIds[_editionNumber];\n    uint256 editionTokenIdIndex = editionNumberToTokenIdIndex[_tokenId];\n    delete tokenIdsForEdition[editionTokenIdIndex];\n  }\n\n  /*\n   * An extension to the default ERC721 behaviour, derived from ERC-875.\n   * Allowing for batch transfers from the sender, will fail if from does not own all the tokens\n   */\n  function batchTransfer(address _to, uint256[] _tokenIds) public {\n    for (uint i = 0; i < _tokenIds.length; i++) {\n      safeTransferFrom(ownerOf(_tokenIds[i]), _to, _tokenIds[i]);\n    }\n  }\n\n  /*\n   * An extension to the default ERC721 behaviour, derived from ERC-875.\n   * Allowing for batch transfers from the provided address, will fail if from does not own all the tokens\n   */\n  function batchTransferFrom(address _from, address _to, uint256[] _tokenIds) public {\n    for (uint i = 0; i < _tokenIds.length; i++) {\n      transferFrom(_from, _to, _tokenIds[i]);\n    }\n  }\n\n  ///////////////////////////\n  // Edition/Token Updates //\n  ///////////////////////////\n\n  function updateTokenBaseURI(string _newBaseURI)\n  external\n  onlyKnownOrigin {\n    require(bytes(_newBaseURI).length != 0, \"Base URI invalid\");\n    tokenBaseURI = _newBaseURI;\n  }\n\n  function setTokenURI(uint256 _tokenId, string _uri)\n  external\n  onlyKnownOrigin {\n    require(exists(_tokenId));\n    _setTokenURI(_tokenId, _uri);\n  }\n\n  function updateEditionTokenURI(uint256 _editionNumber, string _uri)\n  external\n  onlyKnownOrigin\n  onlyRealEdition(_editionNumber) {\n    editionNumberToEditionDetails[_editionNumber].tokenURI = _uri;\n  }\n\n  function updatePriceInWei(uint256 _editionNumber, uint256 _priceInWei)\n  external\n  onlyKnownOrigin\n  onlyRealEdition(_editionNumber) {\n    editionNumberToEditionDetails[_editionNumber].priceInWei = _priceInWei;\n  }\n\n  function updateArtistsAccount(uint256 _editionNumber, address _artistAccount)\n  external\n  onlyKnownOrigin\n  onlyRealEdition(_editionNumber) {\n\n    EditionDetails storage _originalEditionDetails = editionNumberToEditionDetails[_editionNumber];\n\n    uint256 editionArtistIndex = editionNumberToArtistIndex[_editionNumber];\n\n    // Get list of editions old artist works with\n    uint256[] storage editionNumbersForArtist = artistToEditionNumbers[_originalEditionDetails.artistAccount];\n\n    // Remove edition from artists lists\n    delete editionNumbersForArtist[editionArtistIndex];\n\n    // Add new artists to the list\n    uint256 newArtistsEditionIndex = artistToEditionNumbers[_artistAccount].length;\n    artistToEditionNumbers[_artistAccount].push(_editionNumber);\n    editionNumberToArtistIndex[_editionNumber] = newArtistsEditionIndex;\n\n    // Update the edition\n    editionNumberToEditionDetails[_editionNumber].artistAccount = _artistAccount;\n  }\n\n  function updateEditionType(uint256 _editionNumber, uint8 _editionType)\n  external\n  onlyKnownOrigin\n  onlyRealEdition(_editionNumber) {\n\n    EditionDetails storage _originalEditionDetails = editionNumberToEditionDetails[_editionNumber];\n\n    uint256 editionTypeIndex = editionNumberToTypeIndex[_editionNumber];\n\n    // Get list of editions for old type\n    uint256[] storage editionNumbersForType = editionTypeToEditionNumber[_originalEditionDetails.editionType];\n\n    // Remove edition from old type list\n    delete editionNumbersForType[editionTypeIndex];\n\n    // Add new type to the list\n    uint256 newTypeEditionIndex = editionTypeToEditionNumber[_editionType].length;\n    editionTypeToEditionNumber[_editionType].push(_editionNumber);\n    editionNumberToTypeIndex[_editionNumber] = newTypeEditionIndex;\n\n    // Update the edition\n    editionNumberToEditionDetails[_editionNumber].editionType = _editionType;\n  }\n\n  function updateActive(uint256 _editionNumber, bool _active)\n  external\n  onlyKnownOrigin\n  onlyRealEdition(_editionNumber) {\n    EditionDetails storage _editionDetails = editionNumberToEditionDetails[_editionNumber];\n    _editionDetails.active = _active;\n  }\n\n  function updateTotalSupply(uint256 _editionNumber, uint8 _totalSupply)\n  public\n  onlyKnownOrigin\n  onlyRealEdition(_editionNumber) {\n    require(tokensOfEdition(_editionNumber).length <= _totalSupply, \"Cant lower totalSupply to below the number of tokens already in existence\");\n    EditionDetails storage _editionDetails = editionNumberToEditionDetails[_editionNumber];\n    _editionDetails.totalSupply = _totalSupply;\n  }\n\n  function updateTotalAvailable(uint256 _editionNumber, uint8 _totalAvailable)\n  external\n  onlyKnownOrigin\n  onlyRealEdition(_editionNumber) {\n    require(editionNumberToEditionDetails[_editionNumber].totalSupply <= _totalAvailable, \"Unable to reduce available amount to the below the number totalSupply\");\n\n    uint256 originalAvailability = editionNumberToEditionDetails[_editionNumber].totalAvailable;\n\n    editionNumberToEditionDetails[_editionNumber].totalAvailable = _totalAvailable;\n\n    totalNumberAvailable = totalNumberAvailable.sub(originalAvailability).add(_totalAvailable);\n  }\n\n  function updateStartDate(uint256 _editionNumber, uint32 _startDate)\n  external\n  onlyKnownOrigin\n  onlyRealEdition(_editionNumber) {\n    editionNumberToEditionDetails[_editionNumber].startDate = _startDate;\n  }\n\n  function updateEndDate(uint256 _editionNumber, uint32 _endDate)\n  external\n  onlyKnownOrigin\n  onlyRealEdition(_editionNumber) {\n    editionNumberToEditionDetails[_editionNumber].endDate = _endDate;\n  }\n\n  function updateKoCommissionAccount(address _koCommissionAccount)\n  external\n  onlyKnownOrigin {\n    require(_koCommissionAccount != address(0), \"Invalid address\");\n    koCommissionAccount = _koCommissionAccount;\n  }\n\n  function updateOptionalCommission(uint256 _editionNumber, uint8 _rate, address _recipient)\n  external\n  onlyKnownOrigin {\n    EditionDetails memory _editionDetails = editionNumberToEditionDetails[_editionNumber];\n    uint256 artistCommission = _editionDetails.artistCommission;\n\n    if (_rate > 0) {\n      require(_recipient != address(0), \"Setting a rate must be accompanied by a valid address\");\n    }\n    require(artistCommission.add(_rate) <= 100, \"Cant set commission greater than 100%\");\n\n    editionNumberToOptionalCommissionSplit[_editionNumber] = CommissionSplit({rate : _rate, recipient : _recipient});\n  }\n\n  ///////////////////\n  // Query Methods //\n  ///////////////////\n\n  function editionsOfType(uint8 _type) public view returns (uint256[] _editionNumbers) {\n    return editionTypeToEditionNumber[_type];\n  }\n\n  function editionOfTokenId(uint256 _tokenId) public view returns (uint256 _editionNumber) {\n    return tokenIdToEditionNumber[_tokenId];\n  }\n\n  function artistsEditions(address _artistsAccount) public view returns (uint256[] _editionNumbers) {\n    return artistToEditionNumbers[_artistsAccount];\n  }\n\n  function tokensOfEdition(uint256 _editionNumber) public view returns (uint256[] _tokenIds) {\n    return editionNumberToTokenIds[_editionNumber];\n  }\n\n  function editionOptionalCommission(uint256 _editionNumber) public view returns (uint8 _rate, address _recipient) {\n    CommissionSplit memory commission = editionNumberToOptionalCommissionSplit[_editionNumber];\n    return (\n    commission.rate,\n    commission.recipient\n    );\n  }\n\n  function allEditionData(uint256 editionNumber)\n  public view\n  onlyRealEdition(editionNumber)\n  returns (\n    bytes32 _editionData,\n    uint8 _editionType,\n    uint32 _startDate,\n    uint32 _endDate,\n    address _artistAccount,\n    address _artistCommission,\n    uint256 _priceInWei,\n    string _tokenURI,\n    uint8 _totalSupply,\n    uint8 _totalAvailable,\n    bool _active\n  ) {\n    EditionDetails storage _editionDetails = editionNumberToEditionDetails[editionNumber];\n    return (\n    _editionDetails.editionData,\n    _editionDetails.editionType,\n    _editionDetails.startDate,\n    _editionDetails.endDate,\n    _editionDetails.artistAccount,\n    _editionDetails.artistCommission,\n    _editionDetails.priceInWei,\n    Strings.strConcat(tokenBaseURI, _editionDetails.tokenURI),\n    _editionDetails.totalSupply,\n    _editionDetails.totalAvailable,\n    _editionDetails.active\n    );\n  }\n\n  function tokenIdentificationData(uint256 _tokenId) public view returns (\n    uint256 _editionNumber,\n    uint8 _editionType,\n    bytes32 _editionData,\n    string _tokenURI,\n    address _owner\n  ) {\n    require(exists(_tokenId));\n    uint256 editionNumber = tokenIdToEditionNumber[_tokenId];\n    EditionDetails memory editionDetails = editionNumberToEditionDetails[editionNumber];\n    return (\n    editionNumber,\n    editionDetails.editionType,\n    editionDetails.editionData,\n    tokenURI(_tokenId),\n    ownerOf(_tokenId)\n    );\n  }\n\n  function tokenEditionData(uint256 _tokenId) public view returns (\n    uint256 _editionNumber,\n    uint8 _editionType,\n    uint32 _startDate,\n    uint32 _endDate,\n    address _artistAccount,\n    uint8 _artistCommission,\n    uint256 _priceInWei,\n    uint256 _totalAvailable,\n    uint256 _totalSupply\n  ) {\n    require(exists(_tokenId));\n    uint256 editionNumber = tokenIdToEditionNumber[_tokenId];\n    return editionData(editionNumber);\n  }\n\n  function editionData(uint256 editionNumber)\n  public view\n  onlyRealEdition(editionNumber)\n  returns (\n    uint256 _editionNumber,\n    uint8 _editionType,\n    uint32 _startDate,\n    uint32 _endDate,\n    address _artistAccount,\n    uint8 _artistCommission,\n    uint256 _priceInWei,\n    uint256 _totalAvailable,\n    uint256 _totalSupply\n  ) {\n    EditionDetails memory editionDetails = editionNumberToEditionDetails[editionNumber];\n    return (\n    editionNumber,\n    editionDetails.editionType,\n    editionDetails.startDate,\n    editionDetails.endDate,\n    editionDetails.artistAccount,\n    editionDetails.artistCommission,\n    editionDetails.priceInWei,\n    editionDetails.totalAvailable,\n    editionDetails.totalSupply\n    );\n  }\n\n  function editionExists(uint256 _editionNumber) public view returns (bool) {\n    EditionDetails memory editionNumber = editionNumberToEditionDetails[_editionNumber];\n    return editionNumber.editionNumber == _editionNumber;\n  }\n\n  // Throws\n  function tokenURI(uint256 _tokenId) public view returns (string) {\n    require(exists(_tokenId));\n    return Strings.strConcat(tokenBaseURI, tokenURIs[_tokenId]);\n  }\n\n  // no throws...\n  function tokenURISafe(uint256 _tokenId) public view returns (string) {\n    return Strings.strConcat(tokenBaseURI, tokenURIs[_tokenId]);\n  }\n\n  function tokenURIEdition(uint256 _editionNumber) public view returns (string) {\n    EditionDetails memory _editionDetails = editionNumberToEditionDetails[_editionNumber];\n    return Strings.strConcat(tokenBaseURI, _editionDetails.tokenURI);\n  }\n\n  function tokensOf(address _owner) public view returns (uint256[] _tokenIds) {\n    return ownedTokens[_owner];\n  }\n\n  function editionTotalAvailable(uint256 _editionNumber) public view returns (uint256) {\n    EditionDetails memory _editionDetails = editionNumberToEditionDetails[_editionNumber];\n    return _editionDetails.totalAvailable;\n  }\n\n  function editionTotalSupply(uint256 _editionNumber) public view returns (uint256) {\n    EditionDetails memory _editionDetails = editionNumberToEditionDetails[_editionNumber];\n    return _editionDetails.totalSupply;\n  }\n\n  function totalRemaining(uint256 _editionNumber) public view returns (uint256) {\n    EditionDetails memory _editionDetails = editionNumberToEditionDetails[_editionNumber];\n    return _editionDetails.totalAvailable.sub(_editionDetails.totalSupply);\n  }\n\n  function editionActive(uint256 _editionNumber) public view returns (bool) {\n    EditionDetails memory _editionDetails = editionNumberToEditionDetails[_editionNumber];\n    return _editionDetails.active;\n  }\n\n  function purchaseDatesToken(uint256 _tokenId) public view returns (uint32 _startDate, uint32 _endDate) {\n    uint256 _editionNumber = tokenIdToEditionNumber[_tokenId];\n    return purchaseDatesEdition(_editionNumber);\n  }\n\n  function purchaseDatesEdition(uint256 _editionNumber) public view returns (uint32 _startDate, uint32 _endDate) {\n    EditionDetails memory _editionDetails = editionNumberToEditionDetails[_editionNumber];\n    return (\n    _editionDetails.startDate,\n    _editionDetails.endDate\n    );\n  }\n\n  function priceInWeiToken(uint256 _tokenId) public view returns (uint256 _priceInWei) {\n    uint256 _editionNumber = tokenIdToEditionNumber[_tokenId];\n    return priceInWeiEdition(_editionNumber);\n  }\n\n  function priceInWeiEdition(uint256 _editionNumber) public view returns (uint256 _priceInWei) {\n    EditionDetails storage _editionDetails = editionNumberToEditionDetails[_editionNumber];\n    return _editionDetails.priceInWei;\n  }\n}\n",
  "sourcePath": "/Users/jamesmorgan/Dropbox/workspace-blockrocket/known-origin-web3-marketplace/contracts/v2/KnownOriginDigitalAssetV2.sol",
  "compiler": {
    "name": "solc",
    "version": "0.4.24+commit.e67f0147.Emscripten.clang"
  },
  "schemaVersion": "2.0.1",
  "updatedAt": "2018-08-18T06:55:24.347Z"
}