{
  "contractName": "KnownOriginDigitalAssetV2",
  "abi": [
    {
      "constant": true,
      "inputs": [
        {
          "name": "_interfaceId",
          "type": "bytes4"
        }
      ],
      "name": "supportsInterface",
      "outputs": [
        {
          "name": "",
          "type": "bool"
        }
      ],
      "payable": false,
      "stateMutability": "view",
      "type": "function"
    },
    {
      "constant": true,
      "inputs": [],
      "name": "name",
      "outputs": [
        {
          "name": "",
          "type": "string"
        }
      ],
      "payable": false,
      "stateMutability": "view",
      "type": "function"
    },
    {
      "constant": true,
      "inputs": [
        {
          "name": "_tokenId",
          "type": "uint256"
        }
      ],
      "name": "getApproved",
      "outputs": [
        {
          "name": "",
          "type": "address"
        }
      ],
      "payable": false,
      "stateMutability": "view",
      "type": "function"
    },
    {
      "constant": false,
      "inputs": [
        {
          "name": "_to",
          "type": "address"
        },
        {
          "name": "_tokenId",
          "type": "uint256"
        }
      ],
      "name": "approve",
      "outputs": [],
      "payable": false,
      "stateMutability": "nonpayable",
      "type": "function"
    },
    {
      "constant": true,
      "inputs": [
        {
          "name": "_operator",
          "type": "address"
        },
        {
          "name": "_role",
          "type": "string"
        }
      ],
      "name": "checkRole",
      "outputs": [],
      "payable": false,
      "stateMutability": "view",
      "type": "function"
    },
    {
      "constant": true,
      "inputs": [],
      "name": "totalSupply",
      "outputs": [
        {
          "name": "",
          "type": "uint256"
        }
      ],
      "payable": false,
      "stateMutability": "view",
      "type": "function"
    },
    {
      "constant": true,
      "inputs": [],
      "name": "ROLE_WHITELISTED",
      "outputs": [
        {
          "name": "",
          "type": "string"
        }
      ],
      "payable": false,
      "stateMutability": "view",
      "type": "function"
    },
    {
      "constant": true,
      "inputs": [],
      "name": "InterfaceId_ERC165",
      "outputs": [
        {
          "name": "",
          "type": "bytes4"
        }
      ],
      "payable": false,
      "stateMutability": "view",
      "type": "function"
    },
    {
      "constant": true,
      "inputs": [
        {
          "name": "_operator",
          "type": "address"
        },
        {
          "name": "_role",
          "type": "string"
        }
      ],
      "name": "hasRole",
      "outputs": [
        {
          "name": "",
          "type": "bool"
        }
      ],
      "payable": false,
      "stateMutability": "view",
      "type": "function"
    },
    {
      "constant": false,
      "inputs": [
        {
          "name": "_from",
          "type": "address"
        },
        {
          "name": "_to",
          "type": "address"
        },
        {
          "name": "_tokenId",
          "type": "uint256"
        }
      ],
      "name": "transferFrom",
      "outputs": [],
      "payable": false,
      "stateMutability": "nonpayable",
      "type": "function"
    },
    {
      "constant": false,
      "inputs": [
        {
          "name": "_operators",
          "type": "address[]"
        }
      ],
      "name": "removeAddressesFromWhitelist",
      "outputs": [],
      "payable": false,
      "stateMutability": "nonpayable",
      "type": "function"
    },
    {
      "constant": false,
      "inputs": [
        {
          "name": "_operator",
          "type": "address"
        }
      ],
      "name": "removeAddressFromWhitelist",
      "outputs": [],
      "payable": false,
      "stateMutability": "nonpayable",
      "type": "function"
    },
    {
      "constant": true,
      "inputs": [],
      "name": "totalPurchaseValueInWei",
      "outputs": [
        {
          "name": "",
          "type": "uint256"
        }
      ],
      "payable": false,
      "stateMutability": "view",
      "type": "function"
    },
    {
      "constant": true,
      "inputs": [
        {
          "name": "_owner",
          "type": "address"
        },
        {
          "name": "_index",
          "type": "uint256"
        }
      ],
      "name": "tokenOfOwnerByIndex",
      "outputs": [
        {
          "name": "",
          "type": "uint256"
        }
      ],
      "payable": false,
      "stateMutability": "view",
      "type": "function"
    },
    {
      "constant": false,
      "inputs": [],
      "name": "unpause",
      "outputs": [],
      "payable": false,
      "stateMutability": "nonpayable",
      "type": "function"
    },
    {
      "constant": false,
      "inputs": [
        {
          "name": "_from",
          "type": "address"
        },
        {
          "name": "_to",
          "type": "address"
        },
        {
          "name": "_tokenId",
          "type": "uint256"
        }
      ],
      "name": "safeTransferFrom",
      "outputs": [],
      "payable": false,
      "stateMutability": "nonpayable",
      "type": "function"
    },
    {
      "constant": true,
      "inputs": [],
      "name": "totalNumberAvailable",
      "outputs": [
        {
          "name": "",
          "type": "uint256"
        }
      ],
      "payable": false,
      "stateMutability": "view",
      "type": "function"
    },
    {
      "constant": true,
      "inputs": [],
      "name": "tokenBaseURI",
      "outputs": [
        {
          "name": "",
          "type": "string"
        }
      ],
      "payable": false,
      "stateMutability": "view",
      "type": "function"
    },
    {
      "constant": true,
      "inputs": [
        {
          "name": "_tokenId",
          "type": "uint256"
        }
      ],
      "name": "exists",
      "outputs": [
        {
          "name": "",
          "type": "bool"
        }
      ],
      "payable": false,
      "stateMutability": "view",
      "type": "function"
    },
    {
      "constant": true,
      "inputs": [
        {
          "name": "_index",
          "type": "uint256"
        }
      ],
      "name": "tokenByIndex",
      "outputs": [
        {
          "name": "",
          "type": "uint256"
        }
      ],
      "payable": false,
      "stateMutability": "view",
      "type": "function"
    },
    {
      "constant": true,
      "inputs": [],
      "name": "paused",
      "outputs": [
        {
          "name": "",
          "type": "bool"
        }
      ],
      "payable": false,
      "stateMutability": "view",
      "type": "function"
    },
    {
      "constant": true,
      "inputs": [
        {
          "name": "_tokenId",
          "type": "uint256"
        }
      ],
      "name": "ownerOf",
      "outputs": [
        {
          "name": "",
          "type": "address"
        }
      ],
      "payable": false,
      "stateMutability": "view",
      "type": "function"
    },
    {
      "constant": true,
      "inputs": [],
      "name": "koCommissionAccount",
      "outputs": [
        {
          "name": "",
          "type": "address"
        }
      ],
      "payable": false,
      "stateMutability": "view",
      "type": "function"
    },
    {
      "constant": true,
      "inputs": [
        {
          "name": "_owner",
          "type": "address"
        }
      ],
      "name": "balanceOf",
      "outputs": [
        {
          "name": "",
          "type": "uint256"
        }
      ],
      "payable": false,
      "stateMutability": "view",
      "type": "function"
    },
    {
      "constant": false,
      "inputs": [],
      "name": "renounceOwnership",
      "outputs": [],
      "payable": false,
      "stateMutability": "nonpayable",
      "type": "function"
    },
    {
      "constant": false,
      "inputs": [
        {
          "name": "_operator",
          "type": "address"
        }
      ],
      "name": "addAddressToWhitelist",
      "outputs": [],
      "payable": false,
      "stateMutability": "nonpayable",
      "type": "function"
    },
    {
      "constant": false,
      "inputs": [],
      "name": "pause",
      "outputs": [],
      "payable": false,
      "stateMutability": "nonpayable",
      "type": "function"
    },
    {
      "constant": true,
      "inputs": [],
      "name": "owner",
      "outputs": [
        {
          "name": "",
          "type": "address"
        }
      ],
      "payable": false,
      "stateMutability": "view",
      "type": "function"
    },
    {
      "constant": true,
      "inputs": [],
      "name": "symbol",
      "outputs": [
        {
          "name": "",
          "type": "string"
        }
      ],
      "payable": false,
      "stateMutability": "view",
      "type": "function"
    },
    {
      "constant": true,
      "inputs": [
        {
          "name": "_operator",
          "type": "address"
        }
      ],
      "name": "whitelist",
      "outputs": [
        {
          "name": "",
          "type": "bool"
        }
      ],
      "payable": false,
      "stateMutability": "view",
      "type": "function"
    },
    {
      "constant": false,
      "inputs": [],
      "name": "reclaimEther",
      "outputs": [],
      "payable": false,
      "stateMutability": "nonpayable",
      "type": "function"
    },
    {
      "constant": false,
      "inputs": [
        {
          "name": "_to",
          "type": "address"
        },
        {
          "name": "_approved",
          "type": "bool"
        }
      ],
      "name": "setApprovalForAll",
      "outputs": [],
      "payable": false,
      "stateMutability": "nonpayable",
      "type": "function"
    },
    {
      "constant": false,
      "inputs": [
        {
          "name": "_from",
          "type": "address"
        },
        {
          "name": "_to",
          "type": "address"
        },
        {
          "name": "_tokenId",
          "type": "uint256"
        },
        {
          "name": "_data",
          "type": "bytes"
        }
      ],
      "name": "safeTransferFrom",
      "outputs": [],
      "payable": false,
      "stateMutability": "nonpayable",
      "type": "function"
    },
    {
      "constant": false,
      "inputs": [
        {
          "name": "_operators",
          "type": "address[]"
        }
      ],
      "name": "addAddressesToWhitelist",
      "outputs": [],
      "payable": false,
      "stateMutability": "nonpayable",
      "type": "function"
    },
    {
      "constant": true,
      "inputs": [
        {
          "name": "_owner",
          "type": "address"
        },
        {
          "name": "_operator",
          "type": "address"
        }
      ],
      "name": "isApprovedForAll",
      "outputs": [
        {
          "name": "",
          "type": "bool"
        }
      ],
      "payable": false,
      "stateMutability": "view",
      "type": "function"
    },
    {
      "constant": true,
      "inputs": [],
      "name": "totalNumberMinted",
      "outputs": [
        {
          "name": "",
          "type": "uint256"
        }
      ],
      "payable": false,
      "stateMutability": "view",
      "type": "function"
    },
    {
      "constant": false,
      "inputs": [
        {
          "name": "_newOwner",
          "type": "address"
        }
      ],
      "name": "transferOwnership",
      "outputs": [],
      "payable": false,
      "stateMutability": "nonpayable",
      "type": "function"
    },
    {
      "inputs": [],
      "payable": true,
      "stateMutability": "payable",
      "type": "constructor"
    },
    {
      "payable": false,
      "stateMutability": "nonpayable",
      "type": "fallback"
    },
    {
      "anonymous": false,
      "inputs": [
        {
          "indexed": true,
          "name": "_tokenId",
          "type": "uint256"
        },
        {
          "indexed": true,
          "name": "_editionNumber",
          "type": "uint256"
        },
        {
          "indexed": true,
          "name": "_buyer",
          "type": "address"
        },
        {
          "indexed": false,
          "name": "_costInWei",
          "type": "uint256"
        }
      ],
      "name": "Purchase",
      "type": "event"
    },
    {
      "anonymous": false,
      "inputs": [
        {
          "indexed": true,
          "name": "_tokenId",
          "type": "uint256"
        },
        {
          "indexed": true,
          "name": "_editionNumber",
          "type": "uint256"
        },
        {
          "indexed": true,
          "name": "_buyer",
          "type": "address"
        }
      ],
      "name": "Minted",
      "type": "event"
    },
    {
      "anonymous": false,
      "inputs": [
        {
          "indexed": true,
          "name": "_editionNumber",
          "type": "uint256"
        },
        {
          "indexed": true,
          "name": "_editionData",
          "type": "bytes32"
        },
        {
          "indexed": true,
          "name": "_editionType",
          "type": "uint8"
        }
      ],
      "name": "EditionCreated",
      "type": "event"
    },
    {
      "anonymous": false,
      "inputs": [],
      "name": "Pause",
      "type": "event"
    },
    {
      "anonymous": false,
      "inputs": [],
      "name": "Unpause",
      "type": "event"
    },
    {
      "anonymous": false,
      "inputs": [
        {
          "indexed": true,
          "name": "operator",
          "type": "address"
        },
        {
          "indexed": false,
          "name": "role",
          "type": "string"
        }
      ],
      "name": "RoleAdded",
      "type": "event"
    },
    {
      "anonymous": false,
      "inputs": [
        {
          "indexed": true,
          "name": "operator",
          "type": "address"
        },
        {
          "indexed": false,
          "name": "role",
          "type": "string"
        }
      ],
      "name": "RoleRemoved",
      "type": "event"
    },
    {
      "anonymous": false,
      "inputs": [
        {
          "indexed": true,
          "name": "previousOwner",
          "type": "address"
        }
      ],
      "name": "OwnershipRenounced",
      "type": "event"
    },
    {
      "anonymous": false,
      "inputs": [
        {
          "indexed": true,
          "name": "previousOwner",
          "type": "address"
        },
        {
          "indexed": true,
          "name": "newOwner",
          "type": "address"
        }
      ],
      "name": "OwnershipTransferred",
      "type": "event"
    },
    {
      "anonymous": false,
      "inputs": [
        {
          "indexed": true,
          "name": "_from",
          "type": "address"
        },
        {
          "indexed": true,
          "name": "_to",
          "type": "address"
        },
        {
          "indexed": true,
          "name": "_tokenId",
          "type": "uint256"
        }
      ],
      "name": "Transfer",
      "type": "event"
    },
    {
      "anonymous": false,
      "inputs": [
        {
          "indexed": true,
          "name": "_owner",
          "type": "address"
        },
        {
          "indexed": true,
          "name": "_approved",
          "type": "address"
        },
        {
          "indexed": true,
          "name": "_tokenId",
          "type": "uint256"
        }
      ],
      "name": "Approval",
      "type": "event"
    },
    {
      "anonymous": false,
      "inputs": [
        {
          "indexed": true,
          "name": "_owner",
          "type": "address"
        },
        {
          "indexed": true,
          "name": "_operator",
          "type": "address"
        },
        {
          "indexed": false,
          "name": "_approved",
          "type": "bool"
        }
      ],
      "name": "ApprovalForAll",
      "type": "event"
    },
    {
      "constant": false,
      "inputs": [
        {
          "name": "_editionNumber",
          "type": "uint256"
        },
        {
          "name": "_editionData",
          "type": "bytes32"
        },
        {
          "name": "_editionType",
          "type": "uint8"
        },
        {
          "name": "_startDate",
          "type": "uint32"
        },
        {
          "name": "_endDate",
          "type": "uint32"
        },
        {
          "name": "_artistAccount",
          "type": "address"
        },
        {
          "name": "_artistCommission",
          "type": "uint8"
        },
        {
          "name": "_priceInWei",
          "type": "uint256"
        },
        {
          "name": "_tokenURI",
          "type": "string"
        },
        {
          "name": "_totalAvailable",
          "type": "uint8"
        }
      ],
      "name": "createActiveEdition",
      "outputs": [
        {
          "name": "",
          "type": "bool"
        }
      ],
      "payable": false,
      "stateMutability": "nonpayable",
      "type": "function"
    },
    {
      "constant": false,
      "inputs": [
        {
          "name": "_editionNumber",
          "type": "uint256"
        },
        {
          "name": "_editionData",
          "type": "bytes32"
        },
        {
          "name": "_editionType",
          "type": "uint8"
        },
        {
          "name": "_startDate",
          "type": "uint32"
        },
        {
          "name": "_endDate",
          "type": "uint32"
        },
        {
          "name": "_artistAccount",
          "type": "address"
        },
        {
          "name": "_artistCommission",
          "type": "uint8"
        },
        {
          "name": "_priceInWei",
          "type": "uint256"
        },
        {
          "name": "_tokenURI",
          "type": "string"
        },
        {
          "name": "_totalAvailable",
          "type": "uint8"
        }
      ],
      "name": "createInactiveEdition",
      "outputs": [
        {
          "name": "",
          "type": "bool"
        }
      ],
      "payable": false,
      "stateMutability": "nonpayable",
      "type": "function"
    },
    {
      "constant": false,
      "inputs": [
        {
          "name": "_editionNumber",
          "type": "uint256"
        },
        {
          "name": "_editionData",
          "type": "bytes32"
        },
        {
          "name": "_editionType",
          "type": "uint8"
        },
        {
          "name": "_startDate",
          "type": "uint32"
        },
        {
          "name": "_endDate",
          "type": "uint32"
        },
        {
          "name": "_artistAccount",
          "type": "address"
        },
        {
          "name": "_artistCommission",
          "type": "uint8"
        },
        {
          "name": "_priceInWei",
          "type": "uint256"
        },
        {
          "name": "_tokenURI",
          "type": "string"
        },
        {
          "name": "_totalSupply",
          "type": "uint8"
        },
        {
          "name": "_totalAvailable",
          "type": "uint8"
        }
      ],
      "name": "createActivePreMintedEdition",
      "outputs": [
        {
          "name": "",
          "type": "bool"
        }
      ],
      "payable": false,
      "stateMutability": "nonpayable",
      "type": "function"
    },
    {
      "constant": false,
      "inputs": [
        {
          "name": "_editionNumber",
          "type": "uint256"
        },
        {
          "name": "_editionData",
          "type": "bytes32"
        },
        {
          "name": "_editionType",
          "type": "uint8"
        },
        {
          "name": "_startDate",
          "type": "uint32"
        },
        {
          "name": "_endDate",
          "type": "uint32"
        },
        {
          "name": "_artistAccount",
          "type": "address"
        },
        {
          "name": "_artistCommission",
          "type": "uint8"
        },
        {
          "name": "_priceInWei",
          "type": "uint256"
        },
        {
          "name": "_tokenURI",
          "type": "string"
        },
        {
          "name": "_totalSupply",
          "type": "uint8"
        },
        {
          "name": "_totalAvailable",
          "type": "uint8"
        }
      ],
      "name": "createInactivePreMintedEdition",
      "outputs": [
        {
          "name": "",
          "type": "bool"
        }
      ],
      "payable": false,
      "stateMutability": "nonpayable",
      "type": "function"
    },
    {
      "constant": false,
      "inputs": [
        {
          "name": "_editionNumber",
          "type": "uint256"
        }
      ],
      "name": "purchase",
      "outputs": [
        {
          "name": "",
          "type": "uint256"
        }
      ],
      "payable": true,
      "stateMutability": "payable",
      "type": "function"
    },
    {
      "constant": false,
      "inputs": [
        {
          "name": "_to",
          "type": "address"
        },
        {
          "name": "_editionNumber",
          "type": "uint256"
        }
      ],
      "name": "purchaseTo",
      "outputs": [
        {
          "name": "",
          "type": "uint256"
        }
      ],
      "payable": true,
      "stateMutability": "payable",
      "type": "function"
    },
    {
      "constant": false,
      "inputs": [
        {
          "name": "_to",
          "type": "address"
        },
        {
          "name": "_editionNumber",
          "type": "uint256"
        }
      ],
      "name": "mint",
      "outputs": [
        {
          "name": "",
          "type": "uint256"
        }
      ],
      "payable": false,
      "stateMutability": "nonpayable",
      "type": "function"
    },
    {
      "constant": false,
      "inputs": [
        {
          "name": "_to",
          "type": "address"
        },
        {
          "name": "_editionNumber",
          "type": "uint256"
        }
      ],
      "name": "underMint",
      "outputs": [
        {
          "name": "",
          "type": "uint256"
        }
      ],
      "payable": false,
      "stateMutability": "nonpayable",
      "type": "function"
    },
    {
      "constant": false,
      "inputs": [
        {
          "name": "_tokenId",
          "type": "uint256"
        }
      ],
      "name": "burn",
      "outputs": [],
      "payable": false,
      "stateMutability": "nonpayable",
      "type": "function"
    },
    {
      "constant": false,
      "inputs": [
        {
          "name": "_to",
          "type": "address"
        },
        {
          "name": "_tokenIds",
          "type": "uint256[]"
        }
      ],
      "name": "batchTransfer",
      "outputs": [],
      "payable": false,
      "stateMutability": "nonpayable",
      "type": "function"
    },
    {
      "constant": false,
      "inputs": [
        {
          "name": "_from",
          "type": "address"
        },
        {
          "name": "_to",
          "type": "address"
        },
        {
          "name": "_tokenIds",
          "type": "uint256[]"
        }
      ],
      "name": "batchTransferFrom",
      "outputs": [],
      "payable": false,
      "stateMutability": "nonpayable",
      "type": "function"
    },
    {
      "constant": false,
      "inputs": [
        {
          "name": "_newBaseURI",
          "type": "string"
        }
      ],
      "name": "updateTokenBaseURI",
      "outputs": [],
      "payable": false,
      "stateMutability": "nonpayable",
      "type": "function"
    },
    {
      "constant": false,
      "inputs": [
        {
          "name": "_tokenId",
          "type": "uint256"
        },
        {
          "name": "_uri",
          "type": "string"
        }
      ],
      "name": "setTokenURI",
      "outputs": [],
      "payable": false,
      "stateMutability": "nonpayable",
      "type": "function"
    },
    {
      "constant": false,
      "inputs": [
        {
          "name": "_editionNumber",
          "type": "uint256"
        },
        {
          "name": "_uri",
          "type": "string"
        }
      ],
      "name": "updateEditionTokenURI",
      "outputs": [],
      "payable": false,
      "stateMutability": "nonpayable",
      "type": "function"
    },
    {
      "constant": false,
      "inputs": [
        {
          "name": "_editionNumber",
          "type": "uint256"
        },
        {
          "name": "_priceInWei",
          "type": "uint256"
        }
      ],
      "name": "updatePriceInWei",
      "outputs": [],
      "payable": false,
      "stateMutability": "nonpayable",
      "type": "function"
    },
    {
      "constant": false,
      "inputs": [
        {
          "name": "_editionNumber",
          "type": "uint256"
        },
        {
          "name": "_artistAccount",
          "type": "address"
        }
      ],
      "name": "updateArtistsAccount",
      "outputs": [],
      "payable": false,
      "stateMutability": "nonpayable",
      "type": "function"
    },
    {
      "constant": false,
      "inputs": [
        {
          "name": "_editionNumber",
          "type": "uint256"
        },
        {
          "name": "_editionType",
          "type": "uint8"
        }
      ],
      "name": "updateEditionType",
      "outputs": [],
      "payable": false,
      "stateMutability": "nonpayable",
      "type": "function"
    },
    {
      "constant": false,
      "inputs": [
        {
          "name": "_editionNumber",
          "type": "uint256"
        },
        {
          "name": "_active",
          "type": "bool"
        }
      ],
      "name": "updateActive",
      "outputs": [],
      "payable": false,
      "stateMutability": "nonpayable",
      "type": "function"
    },
    {
      "constant": false,
      "inputs": [
        {
          "name": "_editionNumber",
          "type": "uint256"
        },
        {
          "name": "_totalSupply",
          "type": "uint8"
        }
      ],
      "name": "updateTotalSupply",
      "outputs": [],
      "payable": false,
      "stateMutability": "nonpayable",
      "type": "function"
    },
    {
      "constant": false,
      "inputs": [
        {
          "name": "_editionNumber",
          "type": "uint256"
        },
        {
          "name": "_totalAvailable",
          "type": "uint8"
        }
      ],
      "name": "updateTotalAvailable",
      "outputs": [],
      "payable": false,
      "stateMutability": "nonpayable",
      "type": "function"
    },
    {
      "constant": false,
      "inputs": [
        {
          "name": "_editionNumber",
          "type": "uint256"
        },
        {
          "name": "_startDate",
          "type": "uint32"
        }
      ],
      "name": "updateStartDate",
      "outputs": [],
      "payable": false,
      "stateMutability": "nonpayable",
      "type": "function"
    },
    {
      "constant": false,
      "inputs": [
        {
          "name": "_editionNumber",
          "type": "uint256"
        },
        {
          "name": "_endDate",
          "type": "uint32"
        }
      ],
      "name": "updateEndDate",
      "outputs": [],
      "payable": false,
      "stateMutability": "nonpayable",
      "type": "function"
    },
    {
      "constant": false,
      "inputs": [
        {
          "name": "_koCommissionAccount",
          "type": "address"
        }
      ],
      "name": "updateKoCommissionAccount",
      "outputs": [],
      "payable": false,
      "stateMutability": "nonpayable",
      "type": "function"
    },
    {
      "constant": false,
      "inputs": [
        {
          "name": "_editionNumber",
          "type": "uint256"
        },
        {
          "name": "_rate",
          "type": "uint8"
        },
        {
          "name": "_recipient",
          "type": "address"
        }
      ],
      "name": "updateOptionalCommission",
      "outputs": [],
      "payable": false,
      "stateMutability": "nonpayable",
      "type": "function"
    },
    {
      "constant": true,
      "inputs": [
        {
          "name": "_type",
          "type": "uint8"
        }
      ],
      "name": "editionsOfType",
      "outputs": [
        {
          "name": "_editionNumbers",
          "type": "uint256[]"
        }
      ],
      "payable": false,
      "stateMutability": "view",
      "type": "function"
    },
    {
      "constant": true,
      "inputs": [
        {
          "name": "_tokenId",
          "type": "uint256"
        }
      ],
      "name": "editionOfTokenId",
      "outputs": [
        {
          "name": "_editionNumber",
          "type": "uint256"
        }
      ],
      "payable": false,
      "stateMutability": "view",
      "type": "function"
    },
    {
      "constant": true,
      "inputs": [
        {
          "name": "_artistsAccount",
          "type": "address"
        }
      ],
      "name": "artistsEditions",
      "outputs": [
        {
          "name": "_editionNumbers",
          "type": "uint256[]"
        }
      ],
      "payable": false,
      "stateMutability": "view",
      "type": "function"
    },
    {
      "constant": true,
      "inputs": [
        {
          "name": "_editionNumber",
          "type": "uint256"
        }
      ],
      "name": "tokensOfEdition",
      "outputs": [
        {
          "name": "_tokenIds",
          "type": "uint256[]"
        }
      ],
      "payable": false,
      "stateMutability": "view",
      "type": "function"
    },
    {
      "constant": true,
      "inputs": [
        {
          "name": "_editionNumber",
          "type": "uint256"
        }
      ],
      "name": "editionOptionalCommission",
      "outputs": [
        {
          "name": "_rate",
          "type": "uint8"
        },
        {
          "name": "_recipient",
          "type": "address"
        }
      ],
      "payable": false,
      "stateMutability": "view",
      "type": "function"
    },
    {
      "constant": true,
      "inputs": [
        {
          "name": "editionNumber",
          "type": "uint256"
        }
      ],
      "name": "allEditionData",
      "outputs": [
        {
          "name": "_editionData",
          "type": "bytes32"
        },
        {
          "name": "_editionType",
          "type": "uint8"
        },
        {
          "name": "_startDate",
          "type": "uint32"
        },
        {
          "name": "_endDate",
          "type": "uint32"
        },
        {
          "name": "_artistAccount",
          "type": "address"
        },
        {
          "name": "_artistCommission",
          "type": "uint8"
        },
        {
          "name": "_priceInWei",
          "type": "uint256"
        },
        {
          "name": "_tokenURI",
          "type": "string"
        },
        {
          "name": "_totalSupply",
          "type": "uint8"
        },
        {
          "name": "_totalAvailable",
          "type": "uint8"
        },
        {
          "name": "_active",
          "type": "bool"
        }
      ],
      "payable": false,
      "stateMutability": "view",
      "type": "function"
    },
    {
      "constant": true,
      "inputs": [
        {
          "name": "_tokenId",
          "type": "uint256"
        }
      ],
      "name": "tokenData",
      "outputs": [
        {
          "name": "_editionNumber",
          "type": "uint256"
        },
        {
          "name": "_editionType",
          "type": "uint8"
        },
        {
          "name": "_editionData",
          "type": "bytes32"
        },
        {
          "name": "_tokenURI",
          "type": "string"
        },
        {
          "name": "_owner",
          "type": "address"
        }
      ],
      "payable": false,
      "stateMutability": "view",
      "type": "function"
    },
    {
      "constant": true,
      "inputs": [
        {
          "name": "_editionNumber",
          "type": "uint256"
        }
      ],
      "name": "editionExists",
      "outputs": [
        {
          "name": "",
          "type": "bool"
        }
      ],
      "payable": false,
      "stateMutability": "view",
      "type": "function"
    },
    {
      "constant": true,
      "inputs": [
        {
          "name": "_tokenId",
          "type": "uint256"
        }
      ],
      "name": "tokenURI",
      "outputs": [
        {
          "name": "",
          "type": "string"
        }
      ],
      "payable": false,
      "stateMutability": "view",
      "type": "function"
    },
    {
      "constant": true,
      "inputs": [
        {
          "name": "_tokenId",
          "type": "uint256"
        }
      ],
      "name": "tokenURISafe",
      "outputs": [
        {
          "name": "",
          "type": "string"
        }
      ],
      "payable": false,
      "stateMutability": "view",
      "type": "function"
    },
    {
      "constant": true,
      "inputs": [
        {
          "name": "_editionNumber",
          "type": "uint256"
        }
      ],
      "name": "tokenURIEdition",
      "outputs": [
        {
          "name": "",
          "type": "string"
        }
      ],
      "payable": false,
      "stateMutability": "view",
      "type": "function"
    },
    {
      "constant": true,
      "inputs": [
        {
          "name": "_owner",
          "type": "address"
        }
      ],
      "name": "tokensOf",
      "outputs": [
        {
          "name": "_tokenIds",
          "type": "uint256[]"
        }
      ],
      "payable": false,
      "stateMutability": "view",
      "type": "function"
    },
    {
      "constant": true,
      "inputs": [
        {
          "name": "_editionNumber",
          "type": "uint256"
        }
      ],
      "name": "editionTotalAvailable",
      "outputs": [
        {
          "name": "",
          "type": "uint256"
        }
      ],
      "payable": false,
      "stateMutability": "view",
      "type": "function"
    },
    {
      "constant": true,
      "inputs": [
        {
          "name": "_editionNumber",
          "type": "uint256"
        }
      ],
      "name": "editionTotalSupply",
      "outputs": [
        {
          "name": "",
          "type": "uint256"
        }
      ],
      "payable": false,
      "stateMutability": "view",
      "type": "function"
    },
    {
      "constant": true,
      "inputs": [
        {
          "name": "_editionNumber",
          "type": "uint256"
        }
      ],
      "name": "totalRemaining",
      "outputs": [
        {
          "name": "",
          "type": "uint256"
        }
      ],
      "payable": false,
      "stateMutability": "view",
      "type": "function"
    },
    {
      "constant": true,
      "inputs": [
        {
          "name": "_editionNumber",
          "type": "uint256"
        }
      ],
      "name": "editionActive",
      "outputs": [
        {
          "name": "",
          "type": "bool"
        }
      ],
      "payable": false,
      "stateMutability": "view",
      "type": "function"
    },
    {
      "constant": true,
      "inputs": [
        {
          "name": "_tokenId",
          "type": "uint256"
        }
      ],
      "name": "purchaseDatesToken",
      "outputs": [
        {
          "name": "_startDate",
          "type": "uint32"
        },
        {
          "name": "_endDate",
          "type": "uint32"
        }
      ],
      "payable": false,
      "stateMutability": "view",
      "type": "function"
    },
    {
      "constant": true,
      "inputs": [
        {
          "name": "_editionNumber",
          "type": "uint256"
        }
      ],
      "name": "purchaseDatesEdition",
      "outputs": [
        {
          "name": "_startDate",
          "type": "uint32"
        },
        {
          "name": "_endDate",
          "type": "uint32"
        }
      ],
      "payable": false,
      "stateMutability": "view",
      "type": "function"
    },
    {
      "constant": true,
      "inputs": [
        {
          "name": "_tokenId",
          "type": "uint256"
        }
      ],
      "name": "priceInWeiToken",
      "outputs": [
        {
          "name": "_priceInWei",
          "type": "uint256"
        }
      ],
      "payable": false,
      "stateMutability": "view",
      "type": "function"
    },
    {
      "constant": true,
      "inputs": [
        {
          "name": "_editionNumber",
          "type": "uint256"
        }
      ],
      "name": "priceInWeiEdition",
      "outputs": [
        {
          "name": "_priceInWei",
          "type": "uint256"
        }
      ],
      "payable": false,
      "stateMutability": "view",
      "type": "function"
    }
  ],
  "bytecode": "0x600e805460ff1916905560c0604052601c60808190527f68747470733a2f2f697066732e696e667572612e696f2f697066732f0000000060a09081526200004a91600f919062000456565b50604080518082018252601781527f4b6e6f776e4f726967696e4469676974616c41737365740000000000000000006020808301919091528251808401909352600483527f4b4f4441000000000000000000000000000000000000000000000000000000009083015290620000e87f01ffc9a70000000000000000000000000000000000000000000000000000000064010000000062000233810204565b6200011c7f80ac58cd0000000000000000000000000000000000000000000000000000000064010000000062000233810204565b620001507f4f558e790000000000000000000000000000000000000000000000000000000064010000000062000233810204565b81516200016590600590602085019062000456565b5080516200017b90600690602084019062000456565b50620001b07f780e9d630000000000000000000000000000000000000000000000000000000064010000000062000233810204565b620001e47f5b5e139f0000000000000000000000000000000000000000000000000000000064010000000062000233810204565b5050600c8054600160a060020a0319163317905534156200020457600080fd5b60138054600160a060020a031916339081179091556200022d90640100000000620002a0810204565b620004fb565b7fffffffff0000000000000000000000000000000000000000000000000000000080821614156200026357600080fd5b7fffffffff00000000000000000000000000000000000000000000000000000000166000908152602081905260409020805460ff19166001179055565b600c54600160a060020a03163314620002b857600080fd5b62000308816040805190810160405280600981526020017f77686974656c69737400000000000000000000000000000000000000000000008152506200030b640100000000026401000000009004565b50565b6200038782600d836040518082805190602001908083835b60208310620003445780518252601f19909201916020918201910162000323565b51815160209384036101000a60001901801990921691161790529201948552506040519384900301909220929150506401000000006200043181026200588d1704565b81600160a060020a03167fbfec83d64eaa953f2708271a023ab9ee82057f8f3578d548c1a4ba0b5b700489826040518080602001828103825283818151815260200191508051906020019080838360005b83811015620003f2578181015183820152602001620003d8565b50505050905090810190601f168015620004205780820380516001836020036101000a031916815260200191505b509250505060405180910390a25050565b600160a060020a0316600090815260209190915260409020805460ff19166001179055565b828054600181600116156101000203166002900490600052602060002090601f016020900481019282601f106200049957805160ff1916838001178555620004c9565b82800160010185558215620004c9579182015b82811115620004c9578251825591602001919060010190620004ac565b50620004d7929150620004db565b5090565b620004f891905b80821115620004d75760008155600101620004e2565b90565b615b65806200050b6000396000f3006080604052600436106103b05763ffffffff7c010000000000000000000000000000000000000000000000000000000060003504166301ffc9a781146103bf57806304bb1e3d146103f557806306fdde0314610414578063081812fc1461049e578063095ea7b3146104d25780630988ca8c146104f657806313d8375d1461055d578063153473801461057e578063162094c4146105a857806318160ddd146105cc578063187d8803146105e157806318b919e91461060257806319fa8f5014610617578063217fe6c6146106495780632295ee5b146106b057806323b872dd146106d057806324953eaa146106fa578063286dd3f51461074f5780632bbd84e8146107705780632f745c591461078557806336a9d2a1146107a9578063385df389146107c75780633a2357d0146107df5780633f4ba83a1461087b57806340c10f191461089057806342842e0e146108b457806342951d8e146108de57806342966c68146108fc57806342c7ea5f1461091457806343bf63e8146109295780634e99b800146109415780634f558e79146109565780634f6ccce71461096e57806350d331c21461098657806359de1edf1461099e5780635a3f267214610a455780635c975abb14610ab65780636352211e14610acb578063652edd4114610ae35780636641179e14610b1e5780636e93dbdc14610b3f57806370a0823114610b545780637109d30214610b75578063715018a614610c1c57806375dcb70a14610c315780637a85c02a14610c555780637b9417c814610c6d5780637d55758f14610c8e5780637eb9f04a14610cb2578063824eec3b14610ccd5780638312c4bf14610ce55780638456cb5914610d81578063891407c014610d96578063895e454514610dad5780638da5cb5b14610dd757806395d89b4114610dec5780639985251c14610e015780639b19251a14610f025780639f727c2714610f23578063a22cb46514610f38578063ac3c995214610f5e578063afa7a25f14610fc1578063b4b5b48f14610fe5578063b88d4fde146110a3578063b8f6c21914611112578063bbd1e1fc1461112a578063bc02844c14611142578063be1f912e1461115a578063c2b2fb5e14611172578063c87b56dd1461118a578063cadb6e0e146111a2578063d339fe4f146111c0578063de56a245146111e1578063e2ec6ec31461121e578063e985e9c514611273578063efef39a11461129a578063f1ff3d4b146112a5578063f2fde38b146112ba578063f3993d11146112db578063f50ebb1714611346578063fee7e35d14611361575b3480156103bc57600080fd5b50005b3480156103cb57600080fd5b506103e1600160e060020a031960043516611379565b604080519115158252519081900360200190f35b34801561040157600080fd5b506104126004356024351515611398565b005b34801561042057600080fd5b50610429611427565b6040805160208082528351818301528351919283929083019185019080838360005b8381101561046357818101518382015260200161044b565b50505050905090810190601f1680156104905780820380516001836020036101000a031916815260200191505b509250505060405180910390f35b3480156104aa57600080fd5b506104b66004356114be565b60408051600160a060020a039092168252519081900360200190f35b3480156104de57600080fd5b50610412600160a060020a03600435166024356114d9565b34801561050257600080fd5b5060408051602060046024803582810135601f8101859004850286018501909652858552610412958335600160a060020a03169536956044949193909101919081908401838280828437509497506115829650505050505050565b34801561056957600080fd5b5061041260043563ffffffff602435166115f0565b34801561058a57600080fd5b50610596600435611693565b60408051918252519081900360200190f35b3480156105b457600080fd5b506104126004803590602480359081019101356116b2565b3480156105d857600080fd5b50610596611719565b3480156105ed57600080fd5b50610412600160a060020a036004351661171f565b34801561060e57600080fd5b506104296117b5565b34801561062357600080fd5b5061062c6117da565b60408051600160e060020a03199092168252519081900360200190f35b34801561065557600080fd5b5060408051602060046024803582810135601f81018590048502860185019096528585526103e1958335600160a060020a03169536956044949193909101919081908401838280828437509497506117fe9650505050505050565b3480156106bc57600080fd5b50610412600480356024810191013561186a565b3480156106dc57600080fd5b50610412600160a060020a03600435811690602435166044356118e1565b34801561070657600080fd5b5060408051602060048035808201358381028086018501909652808552610412953695939460249493850192918291850190849080828437509497506119849650505050505050565b34801561075b57600080fd5b50610412600160a060020a03600435166119d3565b34801561077c57600080fd5b50610596611a1a565b34801561079157600080fd5b50610596600160a060020a0360043516602435611a20565b3480156107b557600080fd5b5061041260043560ff60243516611a6d565b3480156107d357600080fd5b50610429600435611bf4565b3480156107eb57600080fd5b50604080516020601f610104356004818101359283018490048402850184019095528184526103e194803594602480359560ff60443581169663ffffffff60643581169760843590911696600160a060020a0360a435169660c4359094169560e435953695929461012494909201919081908401838280828437509497505050923560ff169350611dee92505050565b34801561088757600080fd5b50610412611e27565b34801561089c57600080fd5b50610596600160a060020a0360043516602435611e84565b3480156108c057600080fd5b50610412600160a060020a0360043581169060243516604435611faf565b3480156108ea57600080fd5b5061041260043560ff60243516611fcb565b34801561090857600080fd5b506104126004356120da565b34801561092057600080fd5b50610596612153565b34801561093557600080fd5b50610596600435612159565b34801561094d57600080fd5b5061042961216e565b34801561096257600080fd5b506103e16004356121fc565b34801561097a57600080fd5b50610596600435612219565b34801561099257600080fd5b5061059660043561224e565b3480156109aa57600080fd5b50604080516020601f610104356004818101359283018490048402850184019095528184526103e194803594602480359560ff60443581169663ffffffff60643581169760843590911696600160a060020a0360a435169660c4359094169560e435953695929461012494909201919081908401838280828437509497505060ff85358116965060209095013590941693506123b392505050565b348015610a5157600080fd5b50610a66600160a060020a03600435166123fa565b60408051602080825283518183015283519192839290830191858101910280838360005b83811015610aa2578181015183820152602001610a8a565b505050509050019250505060405180910390f35b348015610ac257600080fd5b506103e1612466565b348015610ad757600080fd5b506104b660043561246f565b348015610aef57600080fd5b50610afb600435612499565b6040805163ffffffff938416815291909216602082015281519081900390910190f35b348015610b2a57600080fd5b50610a66600160a060020a03600435166125ff565b348015610b4b57600080fd5b506104b6612669565b348015610b6057600080fd5b50610596600160a060020a0360043516612678565b348015610b8157600080fd5b50604080516020601f610104356004818101359283018490048402850184019095528184526103e194803594602480359560ff60443581169663ffffffff60643581169760843590911696600160a060020a0360a435169660c4359094169560e435953695929461012494909201919081908401838280828437509497505060ff85358116965060209095013590941693506126ab92505050565b348015610c2857600080fd5b506104126126d5565b348015610c3d57600080fd5b50610412600480359060248035908101910135612736565b348015610c6157600080fd5b50610a666004356127c1565b348015610c7957600080fd5b50610412600160a060020a0360043516612821565b348015610c9a57600080fd5b50610596600160a060020a0360043516602435612865565b348015610cbe57600080fd5b50610412600435602435612992565b348015610cd957600080fd5b50610596600435612a10565b348015610cf157600080fd5b50604080516020601f610104356004818101359283018490048402850184019095528184526103e194803594602480359560ff60443581169663ffffffff60643581169760843590911696600160a060020a0360a435169660c4359094169560e435953695929461012494909201919081908401838280828437509497505050923560ff169350612a2292505050565b348015610d8d57600080fd5b50610412612a4c565b610596600160a060020a0360043516602435612aab565b348015610db957600080fd5b5061041260043560ff60243516600160a060020a0360443516612da4565b348015610de357600080fd5b506104b66130a3565b348015610df857600080fd5b506104296130b2565b348015610e0d57600080fd5b50610e19600435613113565b604080518c815260ff808d1660208084019190915263ffffffff808e1694840194909452928b166060830152600160a060020a038a16608083015288811660a083015260c08201889052858116610100830152841661012082015282151561014082015261016060e0820181815287519183019190915286519192909161018084019188019080838360005b83811015610ebd578181015183820152602001610ea5565b50505050905090810190601f168015610eea5780820380516001836020036101000a031916815260200191505b509c5050505050505050505050505060405180910390f35b348015610f0e57600080fd5b506103e1600160a060020a0360043516613361565b348015610f2f57600080fd5b50610412613390565b348015610f4457600080fd5b50610412600160a060020a036004351660243515156133e1565b348015610f6a57600080fd5b50604080516020600460248035828101358481028087018601909752808652610412968435600160a060020a0316963696604495919490910192918291850190849080828437509497506134659650505050505050565b348015610fcd57600080fd5b50610412600435600160a060020a03602435166134ba565b348015610ff157600080fd5b50610ffd600435613605565b6040805186815260ff8616602080830191909152918101859052600160a060020a038316608082015260a06060820181815285519183019190915284519192909160c084019186019080838360005b8381101561106457818101518382015260200161104c565b50505050905090810190601f1680156110915780820380516001836020036101000a031916815260200191505b50965050505050505060405180910390f35b3480156110af57600080fd5b50604080516020601f60643560048181013592830184900484028501840190955281845261041294600160a060020a0381358116956024803590921695604435953695608494019181908401838280828437509497506138099650505050505050565b34801561111e57600080fd5b50610afb600435613831565b34801561113657600080fd5b506103e1600435613855565b34801561114e57600080fd5b506105966004356139b2565b34801561116657600080fd5b50610596600435613b33565b34801561117e57600080fd5b506103e1600435613c98565b34801561119657600080fd5b50610429600435613df4565b3480156111ae57600080fd5b5061041260043560ff60243516613f4f565b3480156111cc57600080fd5b5061041260043563ffffffff60243516614097565b3480156111ed57600080fd5b506111f9600435614132565b6040805160ff9093168352600160a060020a0390911660208301528051918290030190f35b34801561122a57600080fd5b50604080516020600480358082013583810280860185019096528085526104129536959394602494938501929182918501908490808284375094975061417b9650505050505050565b34801561127f57600080fd5b506103e1600160a060020a03600435811690602435166141ca565b6105966004356141f8565b3480156112b157600080fd5b50610596614204565b3480156112c657600080fd5b50610412600160a060020a036004351661420a565b3480156112e757600080fd5b506040805160206004604435818101358381028086018501909652808552610412958335600160a060020a03908116966024803590921696369695606495929493019282918501908490808284375094975061422a9650505050505050565b34801561135257600080fd5b50610a6660ff60043516614260565b34801561136d57600080fd5b506104296004356142c4565b600160e060020a03191660009081526020819052604090205460ff1690565b60006113a333613361565b15156113ae57600080fd5b600083815260156020526040812054849110611402576040805160e560020a62461bcd0281526020600482015260166024820152600080516020615b1a833981519152604482015290519081900360640190fd5b5050600091825260156020526040909120600501805460ff1916911515919091179055565b60058054604080516020601f60026000196101006001881615020190951694909404938401819004810282018101909252828152606093909290918301828280156114b35780601f10611488576101008083540402835291602001916114b3565b820191906000526020600020905b81548152906001019060200180831161149657829003601f168201915b505050505090505b90565b600090815260026020526040902054600160a060020a031690565b60006114e48261246f565b9050600160a060020a0383811690821614156114ff57600080fd5b33600160a060020a038216148061151b575061151b81336141ca565b151561152657600080fd5b6000828152600260205260408082208054600160a060020a031916600160a060020a0387811691821790925591518593918516917f8c5be1e5ebec7d5bd14f71427d1e84f3dd0314c0f7b2291e5b200ac8c7c3b92591a4505050565b6115ec82600d836040518082805190602001908083835b602083106115b85780518252601f199092019160209182019101611599565b51815160209384036101000a60001901801990921691161790529201948552506040519384900301909220929150506143bf565b5050565b6115f933613361565b151561160457600080fd5b600082815260156020526040812054839110611658576040805160e560020a62461bcd0281526020600482015260166024820152600080516020615b1a833981519152604482015290519081900360640190fd5b50600091825260156020526040909120600201805463ffffffff909216650100000000000268ffffffff000000000019909216919091179055565b6000818152601660205260408120546116ab81612159565b9392505050565b6116bb33613361565b15156116c657600080fd5b6116cf836121fc565b15156116da57600080fd5b6117148383838080601f016020809104026020016040519081016040528093929190818152602001838380828437506143d4945050505050565b505050565b60095490565b61172833613361565b151561173357600080fd5b600160a060020a0381161515611793576040805160e560020a62461bcd02815260206004820152600f60248201527f496e76616c696420616464726573730000000000000000000000000000000000604482015290519081900360640190fd5b60138054600160a060020a031916600160a060020a0392909216919091179055565b6040805180820190915260098152600080516020615afa833981519152602082015281565b7f01ffc9a70000000000000000000000000000000000000000000000000000000081565b60006116ab83600d846040518082805190602001908083835b602083106118365780518252601f199092019160209182019101611817565b51815160209384036101000a6000190180199092169116179052920194855250604051938490030190922092915050614407565b61187333613361565b151561187e57600080fd5b8015156118d5576040805160e560020a62461bcd02815260206004820152601060248201527f426173652055524920696e76616c696400000000000000000000000000000000604482015290519081900360640190fd5b611714600f8383615915565b6118eb3382614426565b15156118f657600080fd5b600160a060020a038316151561190b57600080fd5b600160a060020a038216151561192057600080fd5b61192a8382614485565b61193483826144e7565b61193e82826145ee565b8082600160a060020a031684600160a060020a03167fddf252ad1be2c89b69c2b068fc378daa952ba7f163c4a11628f55a4df523b3ef60405160405180910390a4505050565b600c54600090600160a060020a0316331461199e57600080fd5b5060005b81518110156115ec576119cb82828151811015156119bc57fe5b906020019060200201516119d3565b6001016119a2565b600c54600160a060020a031633146119ea57600080fd5b611a1781604080519081016040528060098152602001600080516020615afa833981519152815250614637565b50565b60105481565b6000611a2b83612678565b8210611a3657600080fd5b600160a060020a0383166000908152600760205260409020805483908110611a5a57fe5b9060005260206000200154905092915050565b6000611a7833613361565b1515611a8357600080fd5b600083815260156020526040812054849110611ad7576040805160e560020a62461bcd0281526020600482015260166024820152600080516020615b1a833981519152604482015290519081900360640190fd5b60008481526015602052604090206005015460ff808516610100909204161115611b97576040805160e560020a62461bcd02815260206004820152604560248201527f556e61626c6520746f2072656475636520617661696c61626c6520616d6f756e60448201527f7420746f207468652062656c6f7720746865206e756d62657220746f74616c5360648201527f7570706c79000000000000000000000000000000000000000000000000000000608482015290519081900360a40190fd5b6000848152601560205260409020600501805460ff8581166201000081810262ff00001985161790945560125493909204169350611beb91611bdf908563ffffffff61474816565b9063ffffffff61475a16565b60125550505050565b6060611bfe615993565b600083815260156020908152604091829020825161018081018452815481526001808301548285015260028084015460ff8082168589015261010080830463ffffffff9081166060880152650100000000008404166080870152604860020a8304600160a060020a031660a087015260e860020a9092041660c0850152600385015460e08501526004850180548851600019958216158402959095011692909204601f810187900487028401870190975286835292959394928601939192909190830182828015611d105780601f10611ce557610100808354040283529160200191611d10565b820191906000526020600020905b815481529060010190602001808311611cf357829003601f168201915b50505091835250506005919091015460ff8082161515602080850191909152610100808404831660408087019190915262010000909404909216606090940193909352600f80548351600260018316159094026000190190911692909204601f81018590048502830185019093528282529394506116ab939092909190830182828015611dde5780601f10611db357610100808354040283529160200191611dde565b820191906000526020600020905b815481529060010190602001808311611dc157829003601f168201915b5050505050826101000151614767565b6000611df933613361565b1515611e0457600080fd5b611e188b8b8b8b8b8b8b8b8b8b600061479c565b9b9a5050505050505050505050565b600c54600160a060020a03163314611e3e57600080fd5b600e5460ff161515611e4f57600080fd5b600e805460ff191690556040517f7805862f689e2f13df9f062ff482ad3ad112aca9e0847911ed832e158c525b3390600090a1565b600080611e9033613361565b1515611e9b57600080fd5b600083815260156020526040812054849110611eef576040805160e560020a62461bcd0281526020600482015260166024820152600080516020615b1a833981519152604482015290519081900360640190fd5b600084815260156020526040902060050154849060ff62010000820481166101009092041610611f8f576040805160e560020a62461bcd02815260206004820152602160248201527f4e6f206d6f72652065646974696f6e73206c65667420746f207075726368617360448201527f6500000000000000000000000000000000000000000000000000000000000000606482015290519081900360840190fd5b611f9885614c59565b9250611fa5868487614cae565b5090949350505050565b6117148383836020604051908101604052806000815250613809565b600080600080611fda33613361565b1515611fe557600080fd5b600086815260156020526040812054879110612039576040805160e560020a62461bcd0281526020600482015260166024820152600080516020615b1a833981519152604482015290519081900360640190fd5b6000878152601560209081526040808320601c835281842054600282015460ff168552601b90935292208054929750909550935083908590811061207957fe5b6000918252602080832090910182905560ff909716808252601b88526040808320805460018101825590845289842081018b9055998352601c895280832099909955601590975296909620600201805460ff19169095179094555050505050565b60008060006120e833613361565b15156120f357600080fd5b6121056120ff8561246f565b85614dfd565b5050506000818152601660209081526040808320805490849055808452601783528184208585526018909352922054815482908290811061214257fe5b600091825260208220015550505050565b60125481565b60009081526015602052604090206003015490565b600f805460408051602060026001851615610100026000190190941693909304601f810184900484028201840190925281815292918301828280156121f45780601f106121c9576101008083540402835291602001916121f4565b820191906000526020600020905b8154815290600101906020018083116121d757829003601f168201915b505050505081565b600090815260016020526040902054600160a060020a0316151590565b6000612223611719565b821061222e57600080fd5b600980548390811061223c57fe5b90600052602060002001549050919050565b6000612258615993565b600083815260156020908152604091829020825161018081018452815481526001808301548285015260028084015460ff8082168589015261010080830463ffffffff9081166060880152650100000000008404166080870152604860020a8304600160a060020a031660a087015260e860020a9092041660c0850152600385015460e08501526004850180548851600019958216158402959095011692909204601f81018790048702840187019097528683529295939492860193919290919083018282801561236a5780601f1061233f5761010080835404028352916020019161236a565b820191906000526020600020905b81548152906001019060200180831161234d57829003601f168201915b50505091835250506005919091015460ff808216151560208401526101008204811660408401526201000090910481166060909201919091526101409190910151169392505050565b60006123be33613361565b15156123c957600080fd5b6123dd8c8c8c8c8c8c8c8c8c8b600161479c565b506123e88c84613f4f565b5060019b9a5050505050505050505050565b600160a060020a03811660009081526007602090815260409182902080548351818402810184019094528084526060939283018282801561245a57602002820191906000526020600020905b815481526020019060010190808311612446575b50505050509050919050565b600e5460ff1681565b600081815260016020526040812054600160a060020a031680151561249357600080fd5b92915050565b6000806124a4615993565b600084815260156020908152604091829020825161018081018452815481526001808301548285015260028084015460ff8082168589015261010080830463ffffffff9081166060880152650100000000008404166080870152604860020a8304600160a060020a031660a087015260e860020a9092041660c0850152600385015460e08501526004850180548851600019958216158402959095011692909204601f8101879004870284018701909752868352929593949286019391929091908301828280156125b65780601f1061258b576101008083540402835291602001916125b6565b820191906000526020600020905b81548152906001019060200180831161259957829003601f168201915b50505091835250506005919091015460ff808216151560208401526101008204811660408401526201000090910416606091820152810151608090910151909590945092505050565b600160a060020a03811660009081526019602090815260409182902080548351818402810184019094528084526060939283018282801561245a57602002820191906000526020600020908154815260200190600101908083116124465750505050509050919050565b601354600160a060020a031681565b6000600160a060020a038216151561268f57600080fd5b50600160a060020a031660009081526003602052604090205490565b60006126b633613361565b15156126c157600080fd5b6123dd8c8c8c8c8c8c8c8c8c8b600061479c565b600c54600160a060020a031633146126ec57600080fd5b600c54604051600160a060020a03909116907ff8df31144d9c2f0f6b59d69b8b98abd5459d07f2742c4df920b25aae33c6482090600090a2600c8054600160a060020a0319169055565b61273f33613361565b151561274a57600080fd5b60008381526015602052604081205484911061279e576040805160e560020a62461bcd0281526020600482015260166024820152600080516020615b1a833981519152604482015290519081900360640190fd5b60008481526015602052604090206127ba906004018484615915565b5050505050565b60008181526017602090815260409182902080548351818402810184019094528084526060939283018282801561245a57602002820191906000526020600020908154815260200190600101908083116124465750505050509050919050565b600c54600160a060020a0316331461283857600080fd5b611a1781604080519081016040528060098152602001600080516020615afa833981519152815250614ef7565b60008061287133613361565b151561287c57600080fd5b6000838152601560205260408120548491106128d0576040805160e560020a62461bcd0281526020600482015260166024820152600080516020615b1a833981519152604482015290519081900360640190fd5b6128d984614fc9565b60008581526015602052604090206005015490925061290290859062010000900460ff1661475a565b82111561297f576040805160e560020a62461bcd02815260206004820152602e60248201527f52656163686564206d617820746f6b656e49642c2063616e6e6f7420756e646560448201527f72206d696e7420616e796d6f7265000000000000000000000000000000000000606482015290519081900360840190fd5b61298a858386614cae565b509392505050565b61299b33613361565b15156129a657600080fd5b6000828152601560205260408120548391106129fa576040805160e560020a62461bcd0281526020600482015260166024820152600080516020615b1a833981519152604482015290519081900360640190fd5b5060009182526015602052604090912060030155565b60009081526016602052604090205490565b6000612a2d33613361565b1515612a3857600080fd5b611e188b8b8b8b8b8b8b8b8b8b600161479c565b600c54600160a060020a03163314612a6357600080fd5b600e5460ff1615612a7357600080fd5b600e805460ff191660011790556040517f6985a02210a168e66602d3235cb6db0e70f92b3ba4d376a33c0f3d9434bff62590600090a1565b600e546000908190819060ff1615612ac257600080fd5b600084815260156020526040812054859110612b16576040805160e560020a62461bcd0281526020600482015260166024820152600080516020615b1a833981519152604482015290519081900360640190fd5b600085815260156020526040902060050154859060ff161515612b83576040805160e560020a62461bcd02815260206004820152601260248201527f45646974696f6e206e6f74206163746976650000000000000000000000000000604482015290519081900360640190fd5b600086815260156020526040902060050154869060ff62010000820481166101009092041610612c23576040805160e560020a62461bcd02815260206004820152602160248201527f4e6f206d6f72652065646974696f6e73206c65667420746f207075726368617360448201527f6500000000000000000000000000000000000000000000000000000000000000606482015290519081900360840190fd5b60008781526015602052604090206002015487904261010090910463ffffffff161115612c9a576040805160e560020a62461bcd02815260206004820152601960248201527f45646974696f6e206e6f7420617661696c61626c652079657400000000000000604482015290519081900360640190fd5b600081815260156020526040902060020154426501000000000090910463ffffffff161015612d13576040805160e560020a62461bcd02815260206004820152601b60248201527f45646974696f6e206e6f206c6f6e67657220617661696c61626c650000000000604482015290519081900360640190fd5b60008881526015602052604090206003810154909650341015612d3557600080fd5b612d3e88614c59565b9450612d4b89868a614cae565b612d548861506f565b88600160a060020a031688867f145e2ff612f82ecb64f13b28a0e2825f8fd3dba6d6fbbdec265aa58800014c3d346040518082815260200191505060405180910390a45092979650505050505050565b612dac615993565b6000612db733613361565b1515612dc257600080fd5b600085815260156020908152604091829020825161018081018452815481526001808301548285015260028084015460ff8082168589015261010080830463ffffffff9081166060880152650100000000008404166080870152604860020a8304600160a060020a031660a087015260e860020a9092041660c0850152600385015460e08501526004850180548851600019958216158402959095011692909204601f810187900487028401870190975286835292959394928601939192909190830182828015612ed45780601f10612ea957610100808354040283529160200191612ed4565b820191906000526020600020905b815481529060010190602001808311612eb757829003601f168201915b50505091835250506005919091015460ff8082161515602084015261010082048116604084015262010000909104811660609092019190915260c0820151919350908116915060009085161115612fab57600160a060020a0383161515612fab576040805160e560020a62461bcd02815260206004820152603560248201527f53657474696e6720612072617465206d757374206265206163636f6d70616e6960448201527f656420627920612076616c696420616464726573730000000000000000000000606482015290519081900360840190fd5b6064612fc08260ff871663ffffffff61475a16565b111561303c576040805160e560020a62461bcd02815260206004820152602560248201527f43616e742073657420636f6d6d697373696f6e2067726561746572207468616e60448201527f2031303025000000000000000000000000000000000000000000000000000000606482015290519081900360840190fd5b505060408051808201825260ff9384168152600160a060020a039283166020808301918252600096875260149052919094209351845491519092166101000274ffffffffffffffffffffffffffffffffffffffff00199290931660ff199091161716179055565b600c54600160a060020a031681565b60068054604080516020601f60026000196101006001881615020190951694909404938401819004810282018101909252828152606093909290918301828280156114b35780601f10611488576101008083540402835291602001916114b3565b600080600080600080600060606000806000808c60006015600083815260200190815260200160002060000154111515613185576040805160e560020a62461bcd0281526020600482015260166024820152600080516020615b1a833981519152604482015290519081900360640190fd5b60008e8152601560209081526040918290206001808201546002808401546003850154600f805489516101009782161588026000190190911694909404601f8101899004890285018901909952888452959950929660ff8083169795830463ffffffff9081169765010000000000850490911696604860020a8504600160a060020a03169660e860020a9095049092169461330493909283018282801561326d5780601f106132425761010080835404028352916020019161326d565b820191906000526020600020905b81548152906001019060200180831161325057829003601f168201915b5050505060048c01805460408051602060026001851615610100026000190190941693909304601f81018490048402820184019092528181529350908301828280156132fa5780601f106132cf576101008083540402835291602001916132fa565b820191906000526020600020905b8154815290600101906020018083116132dd57829003601f168201915b5050505050614767565b8960050160019054906101000a900460ff168a60050160029054906101000a900460ff168b60050160009054906101000a900460ff169c509c509c509c509c509c509c509c509c509c509c50505091939597999b90929496989a50565b600061249382604080519081016040528060098152602001600080516020615afa8339815191528152506117fe565b600c54600160a060020a031633146133a757600080fd5b600c54604051600160a060020a0390911690303180156108fc02916000818181858888f19350505050158015611a17573d6000803e3d6000fd5b600160a060020a0382163314156133f757600080fd5b336000818152600460209081526040808320600160a060020a03871680855290835292819020805460ff1916861515908117909155815190815290519293927f17307eab39ab6107e8899845ad3d59bd9653f200f220920489ca2b5937696c31929181900390910190a35050565b60005b8151811015611714576134b2613494838381518110151561348557fe5b9060200190602002015161246f565b8484848151811015156134a357fe5b90602001906020020151611faf565b600101613468565b6000806000806134c933613361565b15156134d457600080fd5b600086815260156020526040812054879110613528576040805160e560020a62461bcd0281526020600482015260166024820152600080516020615b1a833981519152604482015290519081900360640190fd5b6000878152601560209081526040808320601a8352818420546002820154604860020a9004600160a060020a03168552601990935292208054929750909550935083908590811061357557fe5b60009182526020808320909101829055600160a060020a03909716808252601988526040808320805460018101825590845289842081018b9055998352601a8952808320999099556015909752969096206002018054604860020a9096027fffffff0000000000000000000000000000000000000000ffffffffffffffffff909616959095179094555050505050565b60008060006060600080613617615993565b87613621816121fc565b1515613677576040805160e560020a62461bcd02815260206004820152601760248201527f546f6b656e20494420646f6573206e6f74206578697374000000000000000000604482015290519081900360640190fd5b6000898152601660209081526040808320548084526015835292819020815161018081018352815481526001808301548286015260028084015460ff8082168588015261010080830463ffffffff9081166060880152650100000000008404166080870152604860020a8304600160a060020a031660a087015260e860020a9092041660c0850152600385015460e08501526004850180548751600019958216158402959095011692909204601f8101889004880284018801909652858352969950919592949286019390928301828280156137945780601f1061376957610100808354040283529160200191613794565b820191906000526020600020905b81548152906001019060200180831161377757829003601f168201915b50505091835250506005919091015460ff808216151560208085019190915261010083048216604080860191909152620100009093049091166060909301929092528201519082015191935084916137eb8c613df4565b6137f48d61246f565b939d929c50909a509850909650945050505050565b6138148484846118e1565b613820848484846151e8565b151561382b57600080fd5b50505050565b600081815260166020526040812054819061384b81612499565b9250925050915091565b600061385f615993565b600083815260156020908152604091829020825161018081018452815481526001808301548285015260028084015460ff8082168589015261010080830463ffffffff9081166060880152650100000000008404166080870152604860020a8304600160a060020a031660a087015260e860020a9092041660c0850152600385015460e08501526004850180548851600019958216158402959095011692909204601f8101879004870284018701909752868352929593949286019391929091908301828280156139715780601f1061394657610100808354040283529160200191613971565b820191906000526020600020905b81548152906001019060200180831161395457829003601f168201915b50505091835250506005919091015460ff80821615156020840152610100820481166040840152620100009091041660609091015261012001519392505050565b60006139bc615993565b600083815260156020908152604091829020825161018081018452815481526001808301548285015260028084015460ff8082168589015261010080830463ffffffff9081166060880152650100000000008404166080870152604860020a8304600160a060020a031660a087015260e860020a9092041660c0850152600385015460e08501526004850180548851600019958216158402959095011692909204601f810187900487028401870190975286835292959394928601939192909190830182828015613ace5780601f10613aa357610100808354040283529160200191613ace565b820191906000526020600020905b815481529060010190602001808311613ab157829003601f168201915b50505091835250506005919091015460ff80821615156020840152610100820481166040840152620100009091048116606090920191909152610140820151610160830151929350613b29929091169063ffffffff61535516565b60ff169392505050565b6000613b3d615993565b600083815260156020908152604091829020825161018081018452815481526001808301548285015260028084015460ff8082168589015261010080830463ffffffff9081166060880152650100000000008404166080870152604860020a8304600160a060020a031660a087015260e860020a9092041660c0850152600385015460e08501526004850180548851600019958216158402959095011692909204601f810187900487028401870190975286835292959394928601939192909190830182828015613c4f5780601f10613c2457610100808354040283529160200191613c4f565b820191906000526020600020905b815481529060010190602001808311613c3257829003601f168201915b50505091835250506005919091015460ff808216151560208401526101008204811660408401526201000090910481166060909201919091526101609190910151169392505050565b6000613ca2615993565b600083815260156020908152604091829020825161018081018452815481526001808301548285015260028084015460ff8082168589015261010080830463ffffffff9081166060880152650100000000008404166080870152604860020a8304600160a060020a031660a087015260e860020a9092041660c0850152600385015460e08501526004850180548851600019958216158402959095011692909204601f810187900487028401870190975286835292959394928601939192909190830182828015613db45780601f10613d8957610100808354040283529160200191613db4565b820191906000526020600020905b815481529060010190602001808311613d9757829003601f168201915b50505091835250506005919091015460ff808216151560208401526101008204811660408401526201000090910416606090910152519290921492915050565b606081613e00816121fc565b1515613e56576040805160e560020a62461bcd02815260206004820152601760248201527f546f6b656e20494420646f6573206e6f74206578697374000000000000000000604482015290519081900360640190fd5b600f8054604080516020601f600260001961010060018816150201909516949094049384018190048102820181019092528281526116ab9390929091830182828015613ee35780601f10613eb857610100808354040283529160200191613ee3565b820191906000526020600020905b815481529060010190602001808311613ec657829003601f168201915b5050506000878152600b60209081526040918290208054835160026001831615610100026000190190921691909104601f8101849004840282018401909452838152945092508301828280156132fa5780601f106132cf576101008083540402835291602001916132fa565b6000613f5a33613361565b1515613f6557600080fd5b600083815260156020526040812054849110613fb9576040805160e560020a62461bcd0281526020600482015260166024820152600080516020615b1a833981519152604482015290519081900360640190fd5b8260ff16613fc6856127c1565b511115614069576040805160e560020a62461bcd02815260206004820152604960248201527f43616e74206c6f77657220746f74616c537570706c7920746f2062656c6f772060448201527f746865206e756d626572206f6620746f6b656e7320616c726561647920696e2060648201527f6578697374656e63650000000000000000000000000000000000000000000000608482015290519081900360a40190fd5b5050600091825260156020526040909120600501805460ff9092166101000261ff0019909216919091179055565b6140a033613361565b15156140ab57600080fd5b6000828152601560205260408120548391106140ff576040805160e560020a62461bcd0281526020600482015260166024820152600080516020615b1a833981519152604482015290519081900360640190fd5b50600091825260156020526040909120600201805463ffffffff9092166101000264ffffffff0019909216919091179055565b60008061413d6159f6565b50505060009081526014602090815260409182902082518084019093525460ff8116808452610100909104600160a060020a03169290910182905291565b600c54600090600160a060020a0316331461419557600080fd5b5060005b81518110156115ec576141c282828151811015156141b357fe5b90602001906020020151612821565b600101614199565b600160a060020a03918216600090815260046020908152604080832093909416825291909152205460ff1690565b60006124933383612aab565b60115481565b600c54600160a060020a0316331461422157600080fd5b611a1781615367565b60005b815181101561382b576142588484848481518110151561424957fe5b906020019060200201516118e1565b60010161422d565b60ff81166000908152601b602090815260409182902080548351818402810184019094528084526060939283018282801561245a57602002820191906000526020600020908154815260200190600101908083116124465750505050509050919050565b600f805460408051602060026001851615610100026000190190941693909304601f810184900484028201840190925281815260609361249393919290918301828280156143535780601f1061432857610100808354040283529160200191614353565b820191906000526020600020905b81548152906001019060200180831161433657829003601f168201915b5050506000868152600b60209081526040918290208054835160026001831615610100026000190190921691909104601f8101849004840282018401909452838152945092508301828280156132fa5780601f106132cf576101008083540402835291602001916132fa565b6143c98282614407565b15156115ec57600080fd5b6143dd826121fc565b15156143e857600080fd5b6000828152600b60209081526040909120825161171492840190615a0d565b600160a060020a03166000908152602091909152604090205460ff1690565b6000806144328361246f565b905080600160a060020a031684600160a060020a0316148061446d575083600160a060020a0316614462846114be565b600160a060020a0316145b8061447d575061447d81856141ca565b949350505050565b81600160a060020a03166144988261246f565b600160a060020a0316146144ab57600080fd5b600081815260026020526040902054600160a060020a0316156115ec5760009081526002602052604090208054600160a060020a031916905550565b60008060006144f685856153d8565b600084815260086020908152604080832054600160a060020a038916845260079092529091205490935061453190600163ffffffff61474816565b600160a060020a03861660009081526007602052604090208054919350908390811061455957fe5b90600052602060002001549050806007600087600160a060020a0316600160a060020a031681526020019081526020016000208481548110151561459957fe5b6000918252602080832090910192909255600160a060020a03871681526007909152604090208054906145d0906000198301615a7b565b50600093845260086020526040808520859055908452909220555050565b60006145fa8383615461565b50600160a060020a039091166000908152600760209081526040808320805460018101825590845282842081018590559383526008909152902055565b6146a182600d836040518082805190602001908083835b6020831061466d5780518252601f19909201916020918201910161464e565b51815160209384036101000a60001901801990921691161790529201948552506040519384900301909220929150506154e4565b81600160a060020a03167fd211483f91fc6eff862467f8de606587a30c8fc9981056f051b897a418df803a826040518080602001828103825283818151815260200191508051906020019080838360005b8381101561470a5781810151838201526020016146f2565b50505050905090810190601f1680156147375780820380516001836020036101000a031916815260200191505b509250505060405180910390a25050565b60008282111561475457fe5b50900390565b8181018281101561249357fe5b6040805160208181018352600080835283518083018552818152845192830190945281526060926116ab928692869290615506565b6000808c15156147f6576040805160e560020a62461bcd02815260206004820152601b60248201527f45646974696f6e206e756d626572206e6f742070726f76696465640000000000604482015290519081900360640190fd5b60ff8b161515614850576040805160e560020a62461bcd02815260206004820152601960248201527f45646974696f6e2074797065206e6f742070726f766964656400000000000000604482015290519081900360640190fd5b845115156148a8576040805160e560020a62461bcd02815260206004820152601460248201527f546f6b656e20555249206973206d697373696e67000000000000000000000000604482015290519081900360640190fd5b600160a060020a0388161515614908576040805160e560020a62461bcd02815260206004820152601b60248201527f417274697374206163636f756e74206e6f742070726f76696465640000000000604482015290519081900360640190fd5b60648760ff1611158015614920575060008760ff1610155b151561499c576040805160e560020a62461bcd02815260206004820152603b60248201527f41727469737420636f6d6d697373696f6e2063616e6e6f74206265206772656160448201527f746572207468616e20313030206f72206c657373207468616e20300000000000606482015290519081900360840190fd5b60008d81526015602052604090205415614a00576040805160e560020a62461bcd02815260206004820152601c60248201527f45646974696f6e20616c726561647920696e206578697374656e636500000000604482015290519081900360640190fd5b508763ffffffff81161515614a1457506000195b610180604051908101604052808e81526020018d6000191681526020018c60ff1681526020018b63ffffffff1681526020018263ffffffff16815260200189600160a060020a031681526020018860ff1681526020018781526020018681526020018415158152602001600060ff1681526020018560ff16815250601560008f8152602001908152602001600020600082015181600001556020820151816001019060001916905560408201518160020160006101000a81548160ff021916908360ff16021790555060608201518160020160016101000a81548163ffffffff021916908363ffffffff16021790555060808201518160020160056101000a81548163ffffffff021916908363ffffffff16021790555060a08201518160020160096101000a815481600160a060020a030219169083600160a060020a0316021790555060c082015181600201601d6101000a81548160ff021916908360ff16021790555060e08201518160030155610100820151816004019080519060200190614ba0929190615a0d565b5061012082015160059190910180546101408401516101609094015160ff199091169215159290921761ff00191661010060ff948516021762ff000019166201000092841692909202919091179055601254614bfd91861661475a565b601255614c0a888e615767565b614c148b8e6157a3565b60405160ff8c16908d908f907f07078cc623ca582161d6d906aef268868fe26a56743eab8beab731d7f007371590600090a45060019c9b505050505050505050505050565b60008181526015602052604081206005810154614c7f90610100900460ff1660016157d9565b60058201805461ff00191661010060ff9384168102919091179182905583546116ab939092919091041661475a565b600081815260156020526040812090614cc785856157ee565b60048201805460408051602060026001851615610100026000190190941693909304601f8101849004840282018401909252818152614d6193889391929091830182828015614d575780601f10614d2c57610100808354040283529160200191614d57565b820191906000526020600020905b815481529060010190602001808311614d3a57829003601f168201915b50505050506143d4565b5080546000848152601660209081526040808320939093558482526017815282822080546001808201835591845282842081018890558784526018909252929091208190556011549091614dbb919063ffffffff61475a16565b601155604051600160a060020a03861690849086907f259eb7b480b3d449f506927269e4665c83c69e4cd797143eaa8f84632dc7a02b90600090a45050505050565b6000806000614e0c858561583d565b6000848152600b60205260409020546002600019610100600184161502019091160415614e4a576000848152600b60205260408120614e4a91615a9f565b6000848152600a6020526040902054600954909350614e7090600163ffffffff61474816565b9150600982815481101515614e8157fe5b9060005260206000200154905080600984815481101515614e9e57fe5b60009182526020822001919091556009805484908110614eba57fe5b6000918252602090912001556009805490614ed9906000198301615a7b565b506000938452600a6020526040808520859055908452909220555050565b614f6182600d836040518082805190602001908083835b60208310614f2d5780518252601f199092019160209182019101614f0e565b51815160209384036101000a600019018019909216911617905292019485525060405193849003019092209291505061588d565b81600160a060020a03167fbfec83d64eaa953f2708271a023ab9ee82057f8f3578d548c1a4ba0b5b700489826040518080602001828103825283818151815260200191508051906020019080838360008381101561470a5781810151838201526020016146f2565b600081815260156020526040812080548290614fec90600163ffffffff61475a16565b90505b614ff8816121fc565b156150155761500e81600163ffffffff61475a16565b9050614fef565b6005820154825461502d91610100900460ff1661475a565b8111156116ab57600582015461504c90610100900460ff1660016157d9565b8260050160016101000a81548160ff021916908360ff1602179055509392505050565b60008060008061507d6159f6565b6000868152601560205260408120600381015460028201549197509550604860020a8104600160a060020a03169450819060e860020a900460ff1660648704029350600084111561510057604051600160a060020a0386169085156108fc029086906000818181858888f193505050501580156150fe573d6000803e3d6000fd5b505b600088815260146020908152604080832081518083019092525460ff8116808352610100909104600160a060020a031692820192909252945060648804810293501115615186578260200151600160a060020a03166108fc839081150290604051600060405180830381858888f19350505050158015615184573d6000803e3d6000fd5b505b506013546040513485900383900391600160a060020a03169082156108fc029083906000818181858888f193505050501580156151c7573d6000803e3d6000fd5b506010546151db903463ffffffff61475a16565b6010555050505050505050565b6000806151fd85600160a060020a03166158b2565b151561520c576001915061534c565b6040517f150b7a020000000000000000000000000000000000000000000000000000000081523360048201818152600160a060020a03898116602485015260448401889052608060648501908152875160848601528751918a169463150b7a0294938c938b938b93909160a490910190602085019080838360005b8381101561529f578181015183820152602001615287565b50505050905090810190601f1680156152cc5780820380516001836020036101000a031916815260200191505b5095505050505050602060405180830381600087803b1580156152ee57600080fd5b505af1158015615302573d6000803e3d6000fd5b505050506040513d602081101561531857600080fd5b5051600160e060020a031981167f150b7a020000000000000000000000000000000000000000000000000000000014925090505b50949350505050565b600060ff808416908316111561475457fe5b600160a060020a038116151561537c57600080fd5b600c54604051600160a060020a038084169216907f8be0079c531659141344cd1fd0a4f28419497f9722a3daafe3b4186f6b6457e090600090a3600c8054600160a060020a031916600160a060020a0392909216919091179055565b81600160a060020a03166153eb8261246f565b600160a060020a0316146153fe57600080fd5b600160a060020a03821660009081526003602052604090205461542890600163ffffffff61474816565b600160a060020a039092166000908152600360209081526040808320949094559181526001909152208054600160a060020a0319169055565b600081815260016020526040902054600160a060020a03161561548357600080fd5b60008181526001602081815260408084208054600160a060020a031916600160a060020a03881690811790915584526003909152909120546154c49161475a565b600160a060020a0390921660009081526003602052604090209190915550565b600160a060020a0316600090815260209190915260409020805460ff19169055565b6060806060806060806060806000808e98508d97508c96508b95508a94508451865188518a518c51010101016040519080825280601f01601f19166020018201604052801561555f578160200160208202803883390190505b50935083925060009150600090505b88518110156155cc57888181518110151561558557fe5b90602001015160f860020a900460f860020a0283838060010194508151811015156155ac57fe5b906020010190600160f860020a031916908160001a90535060010161556e565b5060005b875181101561562e5787818151811015156155e757fe5b90602001015160f860020a900460f860020a02838380600101945081518110151561560e57fe5b906020010190600160f860020a031916908160001a9053506001016155d0565b5060005b865181101561569057868181518110151561564957fe5b90602001015160f860020a900460f860020a02838380600101945081518110151561567057fe5b906020010190600160f860020a031916908160001a905350600101615632565b5060005b85518110156156f25785818151811015156156ab57fe5b90602001015160f860020a900460f860020a0283838060010194508151811015156156d257fe5b906020010190600160f860020a031916908160001a905350600101615694565b5060005b845181101561575457848181518110151561570d57fe5b90602001015160f860020a900460f860020a02838380600101945081518110151561573457fe5b906020010190600160f860020a031916908160001a9053506001016156f6565b50909d9c50505050505050505050505050565b600160a060020a03909116600090815260196020908152604080832080546001810182559084528284208101859055938352601a909152902055565b60ff9091166000908152601b6020908152604080832080546001810182559084528284208101859055938352601c909152902055565b600082820160ff80851690821610156116ab57fe5b6157f882826158ba565b600980546000838152600a60205260408120829055600182018355919091527f6e1540171b6c0c960b71a7020d9f60077f6af931a8bbf590da0223dacf75c7af015550565b6158478282614485565b61585182826144e7565b6040518190600090600160a060020a038516907fddf252ad1be2c89b69c2b068fc378daa952ba7f163c4a11628f55a4df523b3ef908390a45050565b600160a060020a0316600090815260209190915260409020805460ff19166001179055565b6000903b1190565b600160a060020a03821615156158cf57600080fd5b6158d982826145ee565b6040518190600160a060020a038416906000907fddf252ad1be2c89b69c2b068fc378daa952ba7f163c4a11628f55a4df523b3ef908290a45050565b828054600181600116156101000203166002900490600052602060002090601f016020900481019282601f106159565782800160ff19823516178555615983565b82800160010185558215615983579182015b82811115615983578235825591602001919060010190615968565b5061598f929150615adf565b5090565b604080516101808101825260008082526020820181905291810182905260608082018390526080820183905260a0820183905260c0820183905260e082018390526101008201526101208101829052610140810182905261016081019190915290565b604080518082019091526000808252602082015290565b828054600181600116156101000203166002900490600052602060002090601f016020900481019282601f10615a4e57805160ff1916838001178555615983565b82800160010185558215615983579182015b82811115615983578251825591602001919060010190615a60565b81548183558181111561171457600083815260209020611714918101908301615adf565b50805460018160011615610100020316600290046000825580601f10615ac55750611a17565b601f016020900490600052602060002090810190611a1791905b6114bb91905b8082111561598f5760008155600101615ae5560077686974656c697374000000000000000000000000000000000000000000000045646974696f6e206e756d62657220696e76616c696400000000000000000000a165627a7a723058209e33cacd211e3dab690207d25801a176c65de78ceaa30fb11690a077e0fb3a660029",
  "source": "pragma solidity ^0.4.24;\n\n// allows for multi-address access\nimport \"openzeppelin-solidity/contracts/access/Whitelist.sol\";\n\n// prevents stuck ether\nimport \"openzeppelin-solidity/contracts/ownership/HasNoEther.sol\";\n\n// For safe maths operations\nimport \"openzeppelin-solidity/contracts/math/SafeMath.sol\";\nimport \"../libs/SafeMath8.sol\";\n\n// Pause purchasing only in case of emergency/migration\nimport \"openzeppelin-solidity/contracts/lifecycle/Pausable.sol\";\n\n// ERC721\nimport \"openzeppelin-solidity/contracts/token/ERC721/ERC721Token.sol\";\n\n// Utils only\nimport \"../Strings.sol\";\n\ncontract KnownOriginDigitalAssetV2 is\nERC721Token,\nWhitelist,\nHasNoEther,\nPausable\n{\n  using SafeMath for uint256;\n  using SafeMath8 for uint8;\n\n  ////////////\n  // Events //\n  ////////////\n\n  // On purchases from within this contract - bought through mint/mintTo\n  event Purchase(\n    uint256 indexed _tokenId,\n    uint256 indexed _editionNumber,\n    address indexed _buyer,\n    uint256 _costInWei\n  );\n\n  // Emitted on every mint\n  event Minted(\n    uint256 indexed _tokenId,\n    uint256 indexed _editionNumber,\n    address indexed _buyer\n  );\n\n  // Emitted on every edition created\n  event EditionCreated(\n    uint256 indexed _editionNumber,\n    bytes32 indexed _editionData,\n    uint8 indexed _editionType\n  );\n\n  ////////////////\n  // Properties //\n  ////////////////\n\n  uint32 constant internal MAX_UINT32 = ~uint32(0);\n\n  string public tokenBaseURI = \"https://ipfs.infura.io/ipfs/\";\n\n  // total wei been processed through the contract\n  uint256 public totalPurchaseValueInWei;\n\n  // number of assets sold of any type\n  uint256 public totalNumberMinted;\n\n  // number of assets available of any type\n  uint256 public totalNumberAvailable;\n\n  // the KO account which can receive commission\n  address public koCommissionAccount;\n\n  // Optional commission split can be defined per edition\n  mapping(uint256 => CommissionSplit) editionNumberToOptionalCommissionSplit;\n\n  // Simple struct providing an optional commission split on asset purchase\n  struct CommissionSplit {\n    uint8 rate;\n    address recipient;\n  }\n\n  // Object for edition details\n  struct EditionDetails {\n    // Identifiers\n    uint256 editionNumber;    // the range e.g. 10000\n    bytes32 editionData;      // some data about the edition\n    uint8 editionType;        // e.g. 1 = KODA V1 physical, 2 = KODA V1 digital, 3 = KODA V2, 4 = KOTA\n    // Config\n    uint32 startDate;         // date when the asset goes on sale\n    uint32 endDate;           // date when the asset is available until\n    address artistAccount;    // artists account\n    uint8 artistCommission;   // base commissions, could be overridden by parent contracts\n    uint256 priceInWei;       // base price for asset, could be overridden by parent contracts\n    string tokenURI;          // IPFS Hash only\n    bool active;              // Root control - on/off for the edition\n    // Counters\n    uint8 totalSupply;        // Total purchases/totalSupply\n    uint8 totalAvailable;     // Total number available to be purchased\n  }\n\n  mapping(uint256 => EditionDetails) internal editionNumberToEditionDetails;\n\n  mapping(uint256 => uint256) internal tokenIdToEditionNumber;\n\n  mapping(uint256 => uint256[]) internal editionNumberToTokenIds;\n  mapping(uint256 => uint256) internal editionNumberToTokenIdIndex;\n\n  mapping(address => uint256[]) internal artistToEditionNumbers;\n  mapping(uint256 => uint256) internal editionNumberToArtistIndex;\n\n  mapping(uint8 => uint256[]) internal editionTypeToEditionNumber;\n  mapping(uint256 => uint256) internal editionNumberToTypeIndex;\n\n  ///////////////\n  // Modifiers //\n  ///////////////\n\n  modifier onlyKnownOrigin() {\n    require(whitelist(msg.sender));\n    _;\n  }\n\n  modifier onlyAvailableEdition(uint256 _editionNumber) {\n    require(editionNumberToEditionDetails[_editionNumber].totalSupply < editionNumberToEditionDetails[_editionNumber].totalAvailable, \"No more editions left to purchase\");\n    _;\n  }\n\n  modifier onlyActiveEdition(uint256 _editionNumber) {\n    require(editionNumberToEditionDetails[_editionNumber].active, \"Edition not active\");\n    _;\n  }\n\n  modifier onlyRealEdition(uint256 _editionNumber) {\n    require(editionNumberToEditionDetails[_editionNumber].editionNumber > 0, \"Edition number invalid\");\n    _;\n  }\n\n  modifier onlyValidTokenId(uint256 _tokenId) {\n    require(exists(_tokenId), \"Token ID does not exist\");\n    _;\n  }\n\n  modifier onlyPurchaseDuringWindow(uint256 _editionNumber) {\n    require(editionNumberToEditionDetails[_editionNumber].startDate <= block.timestamp, \"Edition not available yet\");\n    require(editionNumberToEditionDetails[_editionNumber].endDate >= block.timestamp, \"Edition no longer available\");\n    _;\n  }\n\n  /*\n   * Constructor\n   */\n  constructor () public payable ERC721Token(\"KnownOriginDigitalAsset\", \"KODA\") {\n    // Assume the commission account is the creator for now\n    koCommissionAccount = msg.sender;\n    // Whitelist owner\n    addAddressToWhitelist(msg.sender);\n  }\n\n  function createActiveEdition(\n    uint256 _editionNumber,\n    bytes32 _editionData,\n    uint8 _editionType,\n    uint32 _startDate,\n    uint32 _endDate,\n    address _artistAccount,\n    uint8 _artistCommission,\n    uint256 _priceInWei,\n    string _tokenURI,\n    uint8 _totalAvailable\n  )\n  public\n  onlyKnownOrigin\n  returns (bool)\n  {\n    return _createEdition(_editionNumber, _editionData, _editionType, _startDate, _endDate, _artistAccount, _artistCommission, _priceInWei, _tokenURI, _totalAvailable, true);\n  }\n\n  function createInactiveEdition(\n    uint256 _editionNumber,\n    bytes32 _editionData,\n    uint8 _editionType,\n    uint32 _startDate,\n    uint32 _endDate,\n    address _artistAccount,\n    uint8 _artistCommission,\n    uint256 _priceInWei,\n    string _tokenURI,\n    uint8 _totalAvailable\n  )\n  public\n  onlyKnownOrigin\n  returns (bool)\n  {\n    return _createEdition(_editionNumber, _editionData, _editionType, _startDate, _endDate, _artistAccount, _artistCommission, _priceInWei, _tokenURI, _totalAvailable, false);\n  }\n\n  function createActivePreMintedEdition(\n    uint256 _editionNumber,\n    bytes32 _editionData,\n    uint8 _editionType,\n    uint32 _startDate,\n    uint32 _endDate,\n    address _artistAccount,\n    uint8 _artistCommission,\n    uint256 _priceInWei,\n    string _tokenURI,\n    uint8 _totalSupply,\n    uint8 _totalAvailable\n  )\n  public\n  onlyKnownOrigin\n  returns (bool)\n  {\n    _createEdition(_editionNumber, _editionData, _editionType, _startDate, _endDate, _artistAccount, _artistCommission, _priceInWei, _tokenURI, _totalAvailable, true);\n    updateTotalSupply(_editionNumber, _totalSupply);\n    return true;\n  }\n\n  function createInactivePreMintedEdition(\n    uint256 _editionNumber,\n    bytes32 _editionData,\n    uint8 _editionType,\n    uint32 _startDate,\n    uint32 _endDate,\n    address _artistAccount,\n    uint8 _artistCommission,\n    uint256 _priceInWei,\n    string _tokenURI,\n    uint8 _totalSupply,\n    uint8 _totalAvailable\n  )\n  public\n  onlyKnownOrigin\n  returns (bool)\n  {\n    _createEdition(_editionNumber, _editionData, _editionType, _startDate, _endDate, _artistAccount, _artistCommission, _priceInWei, _tokenURI, _totalAvailable, false);\n    updateTotalSupply(_editionNumber, _totalSupply);\n    return true;\n  }\n\n  function _createEdition(\n    uint256 _editionNumber,\n    bytes32 _editionData,\n    uint8 _editionType,\n    uint32 _startDate,\n    uint32 _endDate,\n    address _artistAccount,\n    uint8 _artistCommission,\n    uint256 _priceInWei,\n    string _tokenURI,\n    uint8 _totalAvailable,\n    bool _active\n  )\n  internal\n  returns (bool)\n  {\n    // Prevent missing edition number\n    require(_editionNumber != 0, \"Edition number not provided\");\n\n    // Prevent missing types\n    require(_editionType != 0, \"Edition type not provided\");\n\n    // prevent missing token URI\n    require(bytes(_tokenURI).length != 0, \"Token URI is missing\");\n\n    // prevent empty artists address\n    require(_artistAccount != address(0), \"Artist account not provided\");\n\n    // Prevent commission of greater than 100% and less than 0%\n    require(_artistCommission <= 100 && _artistCommission >= 0, \"Artist commission cannot be greater than 100 or less than 0\");\n\n    // prevent duplicate editions\n    require(editionNumberToEditionDetails[_editionNumber].editionNumber == 0, \"Edition already in existence\");\n\n    // Default end date to max uint32\n    uint32 endDate = _endDate;\n    if (_endDate == 0) {\n      endDate = MAX_UINT32;\n    }\n\n    editionNumberToEditionDetails[_editionNumber] = EditionDetails({\n      editionNumber : _editionNumber,\n      editionData : _editionData,\n      editionType : _editionType,\n      startDate : _startDate,\n      endDate : endDate,\n      artistAccount : _artistAccount,\n      artistCommission : _artistCommission,\n      priceInWei : _priceInWei,\n      tokenURI : _tokenURI,\n      totalSupply : 0, // default to all available\n      totalAvailable : _totalAvailable,\n      active : _active\n      });\n\n    // Add to total available count\n    totalNumberAvailable = totalNumberAvailable.add(_totalAvailable);\n\n    // Update mappings\n    _updateArtistLookupData(_artistAccount, _editionNumber);\n    _updateEditionTypeLookupData(_editionType, _editionNumber);\n\n    emit EditionCreated(_editionNumber, _editionData, _editionType);\n\n    return true;\n  }\n\n  function _updateEditionTypeLookupData(uint8 _editionType, uint256 _editionNumber) internal {\n    uint256 typeEditionIndex = editionTypeToEditionNumber[_editionType].length;\n    editionTypeToEditionNumber[_editionType].push(_editionNumber);\n    editionNumberToTypeIndex[_editionNumber] = typeEditionIndex;\n  }\n\n  function _updateArtistLookupData(address _artistAccount, uint256 _editionNumber) internal {\n    uint256 artistEditionIndex = artistToEditionNumbers[_artistAccount].length;\n    artistToEditionNumbers[_artistAccount].push(_editionNumber);\n    editionNumberToArtistIndex[_editionNumber] = artistEditionIndex;\n  }\n\n  function purchase(uint256 _editionNumber)\n  public payable\n  returns (uint256)\n  {\n    return purchaseTo(msg.sender, _editionNumber);\n  }\n\n  function purchaseTo(address _to, uint256 _editionNumber)\n  public payable\n  whenNotPaused\n  onlyRealEdition(_editionNumber)\n  onlyActiveEdition(_editionNumber)\n  onlyAvailableEdition(_editionNumber)\n  onlyPurchaseDuringWindow(_editionNumber)\n  returns (uint256) {\n\n    EditionDetails storage _editionDetails = editionNumberToEditionDetails[_editionNumber];\n    require(msg.value >= _editionDetails.priceInWei);\n\n    // Construct next token ID e.g. 100000 + 1 = ID of 100001 (this first in the edition set)\n    uint256 _tokenId = _nextTokenId(_editionNumber);\n\n    // Create the token\n    _mintToken(_to, _tokenId, _editionNumber);\n\n    // Splice funds and handle commissions\n    _handleFunds(_editionNumber);\n\n    // Broadcast purchase\n    emit Purchase(_tokenId, _editionNumber, _to, msg.value);\n\n    return _tokenId;\n  }\n\n  function mint(address _to, uint256 _editionNumber)\n  public\n  onlyKnownOrigin\n  onlyRealEdition(_editionNumber)\n  onlyAvailableEdition(_editionNumber)\n  returns (uint256) {\n    // Construct next token ID e.g. 100000 + 1 = ID of 100001 (this first in the edition set)\n    uint256 _tokenId = _nextTokenId(_editionNumber);\n\n    // Create the token\n    _mintToken(_to, _tokenId, _editionNumber);\n\n    // Create the token\n    return _tokenId;\n  }\n\n  function underMint(address _to, uint256 _editionNumber)\n  public\n  onlyKnownOrigin\n  onlyRealEdition(_editionNumber)\n  returns (uint256) {\n    // Under mint token, meaning it takes one from the already sold version\n    uint256 _tokenId = _underMintNextTokenId(_editionNumber);\n\n    // TODO prevent underminting over the total supply\n\n    // If the next tokenId generate is more than the available number, abort as we have reached maximum under mint\n    if (_tokenId > _editionNumber.add(editionNumberToEditionDetails[_editionNumber].totalAvailable)) {\n      revert(\"Reached max tokenId, cannot under mint anymore\");\n    }\n\n    // Create the token\n    _mintToken(_to, _tokenId, _editionNumber);\n\n    // Create the token\n    return _tokenId;\n  }\n\n  function _nextTokenId(uint256 _editionNumber) internal returns (uint256) {\n    EditionDetails storage _editionDetails = editionNumberToEditionDetails[_editionNumber];\n\n    // Bump number totalSupply\n    _editionDetails.totalSupply = _editionDetails.totalSupply.add(1);\n\n    // Construct next token ID e.g. 100000 + 1 = ID of 100001 (this first in the edition set)\n    return _editionDetails.editionNumber.add(_editionDetails.totalSupply);\n  }\n\n  function _underMintNextTokenId(uint256 _editionNumber) internal returns (uint256) {\n    EditionDetails storage _editionDetails = editionNumberToEditionDetails[_editionNumber];\n\n    // For old editions start the counter as edition + 1\n    uint256 _tokenId = _editionDetails.editionNumber.add(1);\n\n    // Work your way up until you find a free token based on the new _tokenIdd\n    while (exists(_tokenId)) {\n      _tokenId = _tokenId.add(1);\n    }\n\n    // Bump number totalSupply if we are now over minting new tokens\n    if (_tokenId > _editionDetails.editionNumber.add(_editionDetails.totalSupply)) {\n      _editionDetails.totalSupply = _editionDetails.totalSupply.add(1);\n    }\n\n    return _tokenId;\n  }\n\n  function _mintToken(address _to, uint256 _tokenId, uint256 _editionNumber) internal {\n    EditionDetails storage _editionDetails = editionNumberToEditionDetails[_editionNumber];\n\n    // Mint new base token\n    super._mint(_to, _tokenId);\n    super._setTokenURI(_tokenId, _editionDetails.tokenURI);\n\n    // Maintain mapping for tokenId to edition for lookup\n    tokenIdToEditionNumber[_tokenId] = _editionDetails.editionNumber;\n\n    // Get next insert position for edition to token Id mapping\n    uint256 currentIndexOfTokenId = editionNumberToTokenIds[_editionNumber].length;\n\n    // Maintain mapping of edition to token array for \"edition minted tokens\"\n    editionNumberToTokenIds[_editionNumber].push(_tokenId);\n\n    // Maintain a position index for the tokenId within the edition number mapping array, used for clean up token burn\n    editionNumberToTokenIdIndex[_tokenId] = currentIndexOfTokenId;\n\n    // Record sale volume\n    totalNumberMinted = totalNumberMinted.add(1);\n\n    // Emit minted event\n    emit Minted(_tokenId, _editionNumber, _to);\n  }\n\n  function _handleFunds(uint256 _editionNumber) internal {\n\n    EditionDetails storage _editionDetails = editionNumberToEditionDetails[_editionNumber];\n\n    uint256 editionPrice = _editionDetails.priceInWei;\n\n    // Extract the artists commission and send it\n    address artistsAccount = _editionDetails.artistAccount;\n    uint256 artistPayment = editionPrice / 100 * _editionDetails.artistCommission;\n    if (artistPayment > 0) {\n      artistsAccount.transfer(artistPayment);\n    }\n\n    // Load any commission overrides\n    CommissionSplit memory commission = editionNumberToOptionalCommissionSplit[_editionNumber];\n\n    // Apply optional commission structure\n    uint256 rateSplit = editionPrice / 100 * commission.rate;\n    if (commission.rate > 0) {\n      commission.recipient.transfer(rateSplit);\n    }\n\n    // Send remaining eth to KO\n    uint256 remainingCommission = msg.value - artistPayment - rateSplit;\n    koCommissionAccount.transfer(remainingCommission);\n\n    // Record wei sale value\n    totalPurchaseValueInWei = totalPurchaseValueInWei.add(msg.value);\n  }\n\n  function burn(uint256 _tokenId) public onlyKnownOrigin {\n\n    // Clear from parents\n    super._burn(ownerOf(_tokenId), _tokenId);\n\n    // Get hold of the edition for cleanup\n    uint256 _editionNumber = tokenIdToEditionNumber[_tokenId];\n\n    // Delete token ID mapping\n    delete tokenIdToEditionNumber[_tokenId];\n\n    // Delete tokens associated to the edition - this will leave a gap in the array of zero\n    uint256[] storage tokenIdsForEdition = editionNumberToTokenIds[_editionNumber];\n    uint256 editionTokenIdIndex = editionNumberToTokenIdIndex[_tokenId];\n    delete tokenIdsForEdition[editionTokenIdIndex];\n  }\n\n  /*\n   * An extension to the default ERC721 behaviour, derived from ERC-875.\n   * Allowing for batch transfers from the sender, will fail if from does not own all the tokens\n   */\n  function batchTransfer(address _to, uint256[] _tokenIds) public {\n    for (uint i = 0; i < _tokenIds.length; i++) {\n      safeTransferFrom(ownerOf(_tokenIds[i]), _to, _tokenIds[i]);\n    }\n  }\n\n  /*\n   * An extension to the default ERC721 behaviour, derived from ERC-875.\n   * Allowing for batch transfers from the provided address, will fail if from does not own all the tokens\n   */\n  function batchTransferFrom(address _from, address _to, uint256[] _tokenIds) public {\n    for (uint i = 0; i < _tokenIds.length; i++) {\n      transferFrom(_from, _to, _tokenIds[i]);\n    }\n  }\n\n  ///////////////////////////\n  // Edition/Token Updates //\n  ///////////////////////////\n\n  function updateTokenBaseURI(string _newBaseURI)\n  external\n  onlyKnownOrigin {\n    require(bytes(_newBaseURI).length != 0, \"Base URI invalid\");\n    tokenBaseURI = _newBaseURI;\n  }\n\n  function setTokenURI(uint256 _tokenId, string _uri)\n  external\n  onlyKnownOrigin {\n    require(exists(_tokenId));\n    _setTokenURI(_tokenId, _uri);\n  }\n\n  function updateEditionTokenURI(uint256 _editionNumber, string _uri)\n  external\n  onlyKnownOrigin\n  onlyRealEdition(_editionNumber) {\n    editionNumberToEditionDetails[_editionNumber].tokenURI = _uri;\n  }\n\n  function updatePriceInWei(uint256 _editionNumber, uint256 _priceInWei)\n  external\n  onlyKnownOrigin\n  onlyRealEdition(_editionNumber) {\n    editionNumberToEditionDetails[_editionNumber].priceInWei = _priceInWei;\n  }\n\n  function updateArtistsAccount(uint256 _editionNumber, address _artistAccount)\n  external\n  onlyKnownOrigin\n  onlyRealEdition(_editionNumber) {\n\n    EditionDetails storage _originalEditionDetails = editionNumberToEditionDetails[_editionNumber];\n\n    uint256 editionArtistIndex = editionNumberToArtistIndex[_editionNumber];\n\n    // Get list of editions old artist works with\n    uint256[] storage editionNumbersForArtist = artistToEditionNumbers[_originalEditionDetails.artistAccount];\n\n    // Remove edition from artists lists\n    delete editionNumbersForArtist[editionArtistIndex];\n\n    // Add new artists to the list\n    uint256 newArtistsEditionIndex = artistToEditionNumbers[_artistAccount].length;\n    artistToEditionNumbers[_artistAccount].push(_editionNumber);\n    editionNumberToArtistIndex[_editionNumber] = newArtistsEditionIndex;\n\n    // Update the edition\n    editionNumberToEditionDetails[_editionNumber].artistAccount = _artistAccount;\n  }\n\n  function updateEditionType(uint256 _editionNumber, uint8 _editionType)\n  external\n  onlyKnownOrigin\n  onlyRealEdition(_editionNumber) {\n\n    EditionDetails storage _originalEditionDetails = editionNumberToEditionDetails[_editionNumber];\n\n    uint256 editionTypeIndex = editionNumberToTypeIndex[_editionNumber];\n\n    // Get list of editions for old type\n    uint256[] storage editionNumbersForType = editionTypeToEditionNumber[_originalEditionDetails.editionType];\n\n    // Remove edition from old type list\n    delete editionNumbersForType[editionTypeIndex];\n\n    // Add new type to the list\n    uint256 newTypeEditionIndex = editionTypeToEditionNumber[_editionType].length;\n    editionTypeToEditionNumber[_editionType].push(_editionNumber);\n    editionNumberToTypeIndex[_editionNumber] = newTypeEditionIndex;\n\n    // Update the edition\n    editionNumberToEditionDetails[_editionNumber].editionType = _editionType;\n  }\n\n  function updateActive(uint256 _editionNumber, bool _active)\n  external\n  onlyKnownOrigin\n  onlyRealEdition(_editionNumber) {\n    EditionDetails storage _editionDetails = editionNumberToEditionDetails[_editionNumber];\n    _editionDetails.active = _active;\n  }\n\n  function updateTotalSupply(uint256 _editionNumber, uint8 _totalSupply)\n  public\n  onlyKnownOrigin\n  onlyRealEdition(_editionNumber) {\n    require(tokensOfEdition(_editionNumber).length <= _totalSupply, \"Cant lower totalSupply to below the number of tokens already in existence\");\n    EditionDetails storage _editionDetails = editionNumberToEditionDetails[_editionNumber];\n    _editionDetails.totalSupply = _totalSupply;\n  }\n\n  function updateTotalAvailable(uint256 _editionNumber, uint8 _totalAvailable)\n  external\n  onlyKnownOrigin\n  onlyRealEdition(_editionNumber) {\n    require(editionNumberToEditionDetails[_editionNumber].totalSupply <= _totalAvailable, \"Unable to reduce available amount to the below the number totalSupply\");\n\n    uint256 originalAvailability = editionNumberToEditionDetails[_editionNumber].totalAvailable;\n\n    editionNumberToEditionDetails[_editionNumber].totalAvailable = _totalAvailable;\n\n    totalNumberAvailable = totalNumberAvailable.sub(originalAvailability).add(_totalAvailable);\n  }\n\n  function updateStartDate(uint256 _editionNumber, uint32 _startDate)\n  external\n  onlyKnownOrigin\n  onlyRealEdition(_editionNumber) {\n    editionNumberToEditionDetails[_editionNumber].startDate = _startDate;\n  }\n\n  function updateEndDate(uint256 _editionNumber, uint32 _endDate)\n  external\n  onlyKnownOrigin\n  onlyRealEdition(_editionNumber) {\n    editionNumberToEditionDetails[_editionNumber].endDate = _endDate;\n  }\n\n  function updateKoCommissionAccount(address _koCommissionAccount)\n  external\n  onlyKnownOrigin {\n    require(_koCommissionAccount != address(0), \"Invalid address\");\n    koCommissionAccount = _koCommissionAccount;\n  }\n\n  function updateOptionalCommission(uint256 _editionNumber, uint8 _rate, address _recipient)\n  external\n  onlyKnownOrigin {\n    EditionDetails memory _editionDetails = editionNumberToEditionDetails[_editionNumber];\n    uint256 artistCommission = _editionDetails.artistCommission;\n\n    if (_rate > 0) {\n      require(_recipient != address(0), \"Setting a rate must be accompanied by a valid address\");\n    }\n    require(artistCommission.add(_rate) <= 100, \"Cant set commission greater than 100%\");\n\n    editionNumberToOptionalCommissionSplit[_editionNumber] = CommissionSplit({rate : _rate, recipient : _recipient});\n  }\n\n  ///////////////////\n  // Query Methods //\n  ///////////////////\n\n  function editionsOfType(uint8 _type) public view returns (uint256[] _editionNumbers) {\n    return editionTypeToEditionNumber[_type];\n  }\n\n  function editionOfTokenId(uint256 _tokenId) public view returns (uint256 _editionNumber) {\n    return tokenIdToEditionNumber[_tokenId];\n  }\n\n  function artistsEditions(address _artistsAccount) public view returns (uint256[] _editionNumbers) {\n    return artistToEditionNumbers[_artistsAccount];\n  }\n\n  function tokensOfEdition(uint256 _editionNumber) public view returns (uint256[] _tokenIds) {\n    return editionNumberToTokenIds[_editionNumber];\n  }\n\n  function editionOptionalCommission(uint256 _editionNumber) public view returns (uint8 _rate, address _recipient) {\n    CommissionSplit memory commission = editionNumberToOptionalCommissionSplit[_editionNumber];\n    return (\n    commission.rate,\n    commission.recipient\n    );\n  }\n\n  function allEditionData(uint256 editionNumber)\n  public view\n  onlyRealEdition(editionNumber)\n  returns (\n    bytes32 _editionData,\n    uint8 _editionType,\n    uint32 _startDate,\n    uint32 _endDate,\n    address _artistAccount,\n    uint8 _artistCommission,\n    uint256 _priceInWei,\n    string _tokenURI,\n    uint8 _totalSupply,\n    uint8 _totalAvailable,\n    bool _active\n  ) {\n    EditionDetails storage _editionDetails = editionNumberToEditionDetails[editionNumber];\n    return (\n    _editionDetails.editionData,\n    _editionDetails.editionType,\n    _editionDetails.startDate,\n    _editionDetails.endDate,\n    _editionDetails.artistAccount,\n    _editionDetails.artistCommission,\n    _editionDetails.priceInWei,\n    Strings.strConcat(tokenBaseURI, _editionDetails.tokenURI),\n    _editionDetails.totalSupply,\n    _editionDetails.totalAvailable,\n    _editionDetails.active\n    );\n  }\n\n  function tokenData(uint256 _tokenId)\n  public view\n  onlyValidTokenId(_tokenId)\n  returns (\n    uint256 _editionNumber,\n    uint8 _editionType,\n    bytes32 _editionData,\n    string _tokenURI,\n    address _owner\n  ) {\n    uint256 editionNumber = tokenIdToEditionNumber[_tokenId];\n    EditionDetails memory editionDetails = editionNumberToEditionDetails[editionNumber];\n    return (\n    editionNumber,\n    editionDetails.editionType,\n    editionDetails.editionData,\n    tokenURI(_tokenId),\n    ownerOf(_tokenId)\n    );\n  }\n\n  function editionExists(uint256 _editionNumber) public view returns (bool) {\n    EditionDetails memory editionNumber = editionNumberToEditionDetails[_editionNumber];\n    return editionNumber.editionNumber == _editionNumber;\n  }\n\n  // Throws\n  function tokenURI(uint256 _tokenId)\n  public view\n  onlyValidTokenId(_tokenId)\n  returns (string) {\n    return Strings.strConcat(tokenBaseURI, tokenURIs[_tokenId]);\n  }\n\n  // no throws...\n  function tokenURISafe(uint256 _tokenId) public view returns (string) {\n    return Strings.strConcat(tokenBaseURI, tokenURIs[_tokenId]);\n  }\n\n  function tokenURIEdition(uint256 _editionNumber) public view returns (string) {\n    EditionDetails memory _editionDetails = editionNumberToEditionDetails[_editionNumber];\n    return Strings.strConcat(tokenBaseURI, _editionDetails.tokenURI);\n  }\n\n  function tokensOf(address _owner) public view returns (uint256[] _tokenIds) {\n    return ownedTokens[_owner];\n  }\n\n  function editionTotalAvailable(uint256 _editionNumber) public view returns (uint256) {\n    EditionDetails memory _editionDetails = editionNumberToEditionDetails[_editionNumber];\n    return _editionDetails.totalAvailable;\n  }\n\n  function editionTotalSupply(uint256 _editionNumber) public view returns (uint256) {\n    EditionDetails memory _editionDetails = editionNumberToEditionDetails[_editionNumber];\n    return _editionDetails.totalSupply;\n  }\n\n  function totalRemaining(uint256 _editionNumber) public view returns (uint256) {\n    EditionDetails memory _editionDetails = editionNumberToEditionDetails[_editionNumber];\n    return _editionDetails.totalAvailable.sub(_editionDetails.totalSupply);\n  }\n\n  function editionActive(uint256 _editionNumber) public view returns (bool) {\n    EditionDetails memory _editionDetails = editionNumberToEditionDetails[_editionNumber];\n    return _editionDetails.active;\n  }\n\n  function purchaseDatesToken(uint256 _tokenId) public view returns (uint32 _startDate, uint32 _endDate) {\n    uint256 _editionNumber = tokenIdToEditionNumber[_tokenId];\n    return purchaseDatesEdition(_editionNumber);\n  }\n\n  function purchaseDatesEdition(uint256 _editionNumber) public view returns (uint32 _startDate, uint32 _endDate) {\n    EditionDetails memory _editionDetails = editionNumberToEditionDetails[_editionNumber];\n    return (\n    _editionDetails.startDate,\n    _editionDetails.endDate\n    );\n  }\n\n  function priceInWeiToken(uint256 _tokenId) public view returns (uint256 _priceInWei) {\n    uint256 _editionNumber = tokenIdToEditionNumber[_tokenId];\n    return priceInWeiEdition(_editionNumber);\n  }\n\n  function priceInWeiEdition(uint256 _editionNumber) public view returns (uint256 _priceInWei) {\n    EditionDetails storage _editionDetails = editionNumberToEditionDetails[_editionNumber];\n    return _editionDetails.priceInWei;\n  }\n}\n",
  "sourcePath": "/Users/jamesmorgan/Dropbox/workspace-blockrocket/known-origin-web3-marketplace/contracts/v2/KnownOriginDigitalAssetV2.sol",
  "compiler": {
    "name": "solc",
    "version": "0.4.24+commit.e67f0147.Emscripten.clang"
  },
  "schemaVersion": "2.0.1",
  "updatedAt": "2018-08-23T09:13:54.275Z"
}