{
  "contractName": "KnownOriginDigitalAssetV2",
  "abi": [
    {
      "constant": true,
      "inputs": [
        {
          "name": "_interfaceId",
          "type": "bytes4"
        }
      ],
      "name": "supportsInterface",
      "outputs": [
        {
          "name": "",
          "type": "bool"
        }
      ],
      "payable": false,
      "stateMutability": "view",
      "type": "function"
    },
    {
      "constant": true,
      "inputs": [],
      "name": "name",
      "outputs": [
        {
          "name": "",
          "type": "string"
        }
      ],
      "payable": false,
      "stateMutability": "view",
      "type": "function"
    },
    {
      "constant": true,
      "inputs": [
        {
          "name": "_tokenId",
          "type": "uint256"
        }
      ],
      "name": "getApproved",
      "outputs": [
        {
          "name": "",
          "type": "address"
        }
      ],
      "payable": false,
      "stateMutability": "view",
      "type": "function"
    },
    {
      "constant": false,
      "inputs": [
        {
          "name": "_to",
          "type": "address"
        },
        {
          "name": "_tokenId",
          "type": "uint256"
        }
      ],
      "name": "approve",
      "outputs": [],
      "payable": false,
      "stateMutability": "nonpayable",
      "type": "function"
    },
    {
      "constant": true,
      "inputs": [
        {
          "name": "_operator",
          "type": "address"
        },
        {
          "name": "_role",
          "type": "string"
        }
      ],
      "name": "checkRole",
      "outputs": [],
      "payable": false,
      "stateMutability": "view",
      "type": "function"
    },
    {
      "constant": true,
      "inputs": [],
      "name": "totalSupply",
      "outputs": [
        {
          "name": "",
          "type": "uint256"
        }
      ],
      "payable": false,
      "stateMutability": "view",
      "type": "function"
    },
    {
      "constant": true,
      "inputs": [],
      "name": "ROLE_WHITELISTED",
      "outputs": [
        {
          "name": "",
          "type": "string"
        }
      ],
      "payable": false,
      "stateMutability": "view",
      "type": "function"
    },
    {
      "constant": true,
      "inputs": [],
      "name": "InterfaceId_ERC165",
      "outputs": [
        {
          "name": "",
          "type": "bytes4"
        }
      ],
      "payable": false,
      "stateMutability": "view",
      "type": "function"
    },
    {
      "constant": true,
      "inputs": [
        {
          "name": "_operator",
          "type": "address"
        },
        {
          "name": "_role",
          "type": "string"
        }
      ],
      "name": "hasRole",
      "outputs": [
        {
          "name": "",
          "type": "bool"
        }
      ],
      "payable": false,
      "stateMutability": "view",
      "type": "function"
    },
    {
      "constant": false,
      "inputs": [
        {
          "name": "_from",
          "type": "address"
        },
        {
          "name": "_to",
          "type": "address"
        },
        {
          "name": "_tokenId",
          "type": "uint256"
        }
      ],
      "name": "transferFrom",
      "outputs": [],
      "payable": false,
      "stateMutability": "nonpayable",
      "type": "function"
    },
    {
      "constant": false,
      "inputs": [
        {
          "name": "_operators",
          "type": "address[]"
        }
      ],
      "name": "removeAddressesFromWhitelist",
      "outputs": [],
      "payable": false,
      "stateMutability": "nonpayable",
      "type": "function"
    },
    {
      "constant": false,
      "inputs": [
        {
          "name": "_operator",
          "type": "address"
        }
      ],
      "name": "removeAddressFromWhitelist",
      "outputs": [],
      "payable": false,
      "stateMutability": "nonpayable",
      "type": "function"
    },
    {
      "constant": true,
      "inputs": [],
      "name": "totalPurchaseValueInWei",
      "outputs": [
        {
          "name": "",
          "type": "uint256"
        }
      ],
      "payable": false,
      "stateMutability": "view",
      "type": "function"
    },
    {
      "constant": true,
      "inputs": [
        {
          "name": "_owner",
          "type": "address"
        },
        {
          "name": "_index",
          "type": "uint256"
        }
      ],
      "name": "tokenOfOwnerByIndex",
      "outputs": [
        {
          "name": "",
          "type": "uint256"
        }
      ],
      "payable": false,
      "stateMutability": "view",
      "type": "function"
    },
    {
      "constant": false,
      "inputs": [],
      "name": "unpause",
      "outputs": [],
      "payable": false,
      "stateMutability": "nonpayable",
      "type": "function"
    },
    {
      "constant": false,
      "inputs": [
        {
          "name": "_from",
          "type": "address"
        },
        {
          "name": "_to",
          "type": "address"
        },
        {
          "name": "_tokenId",
          "type": "uint256"
        }
      ],
      "name": "safeTransferFrom",
      "outputs": [],
      "payable": false,
      "stateMutability": "nonpayable",
      "type": "function"
    },
    {
      "constant": true,
      "inputs": [],
      "name": "totalNumberAvailable",
      "outputs": [
        {
          "name": "",
          "type": "uint256"
        }
      ],
      "payable": false,
      "stateMutability": "view",
      "type": "function"
    },
    {
      "constant": true,
      "inputs": [],
      "name": "tokenBaseURI",
      "outputs": [
        {
          "name": "",
          "type": "string"
        }
      ],
      "payable": false,
      "stateMutability": "view",
      "type": "function"
    },
    {
      "constant": true,
      "inputs": [
        {
          "name": "_tokenId",
          "type": "uint256"
        }
      ],
      "name": "exists",
      "outputs": [
        {
          "name": "",
          "type": "bool"
        }
      ],
      "payable": false,
      "stateMutability": "view",
      "type": "function"
    },
    {
      "constant": true,
      "inputs": [
        {
          "name": "_index",
          "type": "uint256"
        }
      ],
      "name": "tokenByIndex",
      "outputs": [
        {
          "name": "",
          "type": "uint256"
        }
      ],
      "payable": false,
      "stateMutability": "view",
      "type": "function"
    },
    {
      "constant": true,
      "inputs": [],
      "name": "paused",
      "outputs": [
        {
          "name": "",
          "type": "bool"
        }
      ],
      "payable": false,
      "stateMutability": "view",
      "type": "function"
    },
    {
      "constant": true,
      "inputs": [
        {
          "name": "_tokenId",
          "type": "uint256"
        }
      ],
      "name": "ownerOf",
      "outputs": [
        {
          "name": "",
          "type": "address"
        }
      ],
      "payable": false,
      "stateMutability": "view",
      "type": "function"
    },
    {
      "constant": true,
      "inputs": [],
      "name": "koCommissionAccount",
      "outputs": [
        {
          "name": "",
          "type": "address"
        }
      ],
      "payable": false,
      "stateMutability": "view",
      "type": "function"
    },
    {
      "constant": true,
      "inputs": [
        {
          "name": "_owner",
          "type": "address"
        }
      ],
      "name": "balanceOf",
      "outputs": [
        {
          "name": "",
          "type": "uint256"
        }
      ],
      "payable": false,
      "stateMutability": "view",
      "type": "function"
    },
    {
      "constant": false,
      "inputs": [],
      "name": "renounceOwnership",
      "outputs": [],
      "payable": false,
      "stateMutability": "nonpayable",
      "type": "function"
    },
    {
      "constant": false,
      "inputs": [
        {
          "name": "_operator",
          "type": "address"
        }
      ],
      "name": "addAddressToWhitelist",
      "outputs": [],
      "payable": false,
      "stateMutability": "nonpayable",
      "type": "function"
    },
    {
      "constant": false,
      "inputs": [],
      "name": "pause",
      "outputs": [],
      "payable": false,
      "stateMutability": "nonpayable",
      "type": "function"
    },
    {
      "constant": true,
      "inputs": [],
      "name": "owner",
      "outputs": [
        {
          "name": "",
          "type": "address"
        }
      ],
      "payable": false,
      "stateMutability": "view",
      "type": "function"
    },
    {
      "constant": true,
      "inputs": [],
      "name": "symbol",
      "outputs": [
        {
          "name": "",
          "type": "string"
        }
      ],
      "payable": false,
      "stateMutability": "view",
      "type": "function"
    },
    {
      "constant": true,
      "inputs": [
        {
          "name": "_operator",
          "type": "address"
        }
      ],
      "name": "whitelist",
      "outputs": [
        {
          "name": "",
          "type": "bool"
        }
      ],
      "payable": false,
      "stateMutability": "view",
      "type": "function"
    },
    {
      "constant": false,
      "inputs": [],
      "name": "reclaimEther",
      "outputs": [],
      "payable": false,
      "stateMutability": "nonpayable",
      "type": "function"
    },
    {
      "constant": false,
      "inputs": [
        {
          "name": "_to",
          "type": "address"
        },
        {
          "name": "_approved",
          "type": "bool"
        }
      ],
      "name": "setApprovalForAll",
      "outputs": [],
      "payable": false,
      "stateMutability": "nonpayable",
      "type": "function"
    },
    {
      "constant": false,
      "inputs": [
        {
          "name": "_from",
          "type": "address"
        },
        {
          "name": "_to",
          "type": "address"
        },
        {
          "name": "_tokenId",
          "type": "uint256"
        },
        {
          "name": "_data",
          "type": "bytes"
        }
      ],
      "name": "safeTransferFrom",
      "outputs": [],
      "payable": false,
      "stateMutability": "nonpayable",
      "type": "function"
    },
    {
      "constant": false,
      "inputs": [
        {
          "name": "_operators",
          "type": "address[]"
        }
      ],
      "name": "addAddressesToWhitelist",
      "outputs": [],
      "payable": false,
      "stateMutability": "nonpayable",
      "type": "function"
    },
    {
      "constant": true,
      "inputs": [
        {
          "name": "_owner",
          "type": "address"
        },
        {
          "name": "_operator",
          "type": "address"
        }
      ],
      "name": "isApprovedForAll",
      "outputs": [
        {
          "name": "",
          "type": "bool"
        }
      ],
      "payable": false,
      "stateMutability": "view",
      "type": "function"
    },
    {
      "constant": true,
      "inputs": [],
      "name": "totalNumberMinted",
      "outputs": [
        {
          "name": "",
          "type": "uint256"
        }
      ],
      "payable": false,
      "stateMutability": "view",
      "type": "function"
    },
    {
      "constant": false,
      "inputs": [
        {
          "name": "_newOwner",
          "type": "address"
        }
      ],
      "name": "transferOwnership",
      "outputs": [],
      "payable": false,
      "stateMutability": "nonpayable",
      "type": "function"
    },
    {
      "inputs": [],
      "payable": true,
      "stateMutability": "payable",
      "type": "constructor"
    },
    {
      "payable": false,
      "stateMutability": "nonpayable",
      "type": "fallback"
    },
    {
      "anonymous": false,
      "inputs": [
        {
          "indexed": true,
          "name": "_tokenId",
          "type": "uint256"
        },
        {
          "indexed": true,
          "name": "_editionNumber",
          "type": "uint256"
        },
        {
          "indexed": true,
          "name": "_buyer",
          "type": "address"
        },
        {
          "indexed": false,
          "name": "_priceInWei",
          "type": "uint256"
        }
      ],
      "name": "Purchase",
      "type": "event"
    },
    {
      "anonymous": false,
      "inputs": [
        {
          "indexed": true,
          "name": "_tokenId",
          "type": "uint256"
        },
        {
          "indexed": true,
          "name": "_editionNumber",
          "type": "uint256"
        },
        {
          "indexed": true,
          "name": "_buyer",
          "type": "address"
        }
      ],
      "name": "Minted",
      "type": "event"
    },
    {
      "anonymous": false,
      "inputs": [
        {
          "indexed": true,
          "name": "_editionNumber",
          "type": "uint256"
        },
        {
          "indexed": true,
          "name": "_editionData",
          "type": "bytes32"
        },
        {
          "indexed": true,
          "name": "_editionType",
          "type": "uint256"
        }
      ],
      "name": "EditionCreated",
      "type": "event"
    },
    {
      "anonymous": false,
      "inputs": [],
      "name": "Pause",
      "type": "event"
    },
    {
      "anonymous": false,
      "inputs": [],
      "name": "Unpause",
      "type": "event"
    },
    {
      "anonymous": false,
      "inputs": [
        {
          "indexed": true,
          "name": "operator",
          "type": "address"
        },
        {
          "indexed": false,
          "name": "role",
          "type": "string"
        }
      ],
      "name": "RoleAdded",
      "type": "event"
    },
    {
      "anonymous": false,
      "inputs": [
        {
          "indexed": true,
          "name": "operator",
          "type": "address"
        },
        {
          "indexed": false,
          "name": "role",
          "type": "string"
        }
      ],
      "name": "RoleRemoved",
      "type": "event"
    },
    {
      "anonymous": false,
      "inputs": [
        {
          "indexed": true,
          "name": "previousOwner",
          "type": "address"
        }
      ],
      "name": "OwnershipRenounced",
      "type": "event"
    },
    {
      "anonymous": false,
      "inputs": [
        {
          "indexed": true,
          "name": "previousOwner",
          "type": "address"
        },
        {
          "indexed": true,
          "name": "newOwner",
          "type": "address"
        }
      ],
      "name": "OwnershipTransferred",
      "type": "event"
    },
    {
      "anonymous": false,
      "inputs": [
        {
          "indexed": true,
          "name": "_from",
          "type": "address"
        },
        {
          "indexed": true,
          "name": "_to",
          "type": "address"
        },
        {
          "indexed": true,
          "name": "_tokenId",
          "type": "uint256"
        }
      ],
      "name": "Transfer",
      "type": "event"
    },
    {
      "anonymous": false,
      "inputs": [
        {
          "indexed": true,
          "name": "_owner",
          "type": "address"
        },
        {
          "indexed": true,
          "name": "_approved",
          "type": "address"
        },
        {
          "indexed": true,
          "name": "_tokenId",
          "type": "uint256"
        }
      ],
      "name": "Approval",
      "type": "event"
    },
    {
      "anonymous": false,
      "inputs": [
        {
          "indexed": true,
          "name": "_owner",
          "type": "address"
        },
        {
          "indexed": true,
          "name": "_operator",
          "type": "address"
        },
        {
          "indexed": false,
          "name": "_approved",
          "type": "bool"
        }
      ],
      "name": "ApprovalForAll",
      "type": "event"
    },
    {
      "constant": false,
      "inputs": [
        {
          "name": "_editionNumber",
          "type": "uint256"
        },
        {
          "name": "_editionData",
          "type": "bytes32"
        },
        {
          "name": "_editionType",
          "type": "uint256"
        },
        {
          "name": "_startDate",
          "type": "uint256"
        },
        {
          "name": "_endDate",
          "type": "uint256"
        },
        {
          "name": "_artistAccount",
          "type": "address"
        },
        {
          "name": "_artistCommission",
          "type": "uint256"
        },
        {
          "name": "_priceInWei",
          "type": "uint256"
        },
        {
          "name": "_tokenURI",
          "type": "string"
        },
        {
          "name": "_totalAvailable",
          "type": "uint256"
        }
      ],
      "name": "createActiveEdition",
      "outputs": [
        {
          "name": "",
          "type": "bool"
        }
      ],
      "payable": false,
      "stateMutability": "nonpayable",
      "type": "function"
    },
    {
      "constant": false,
      "inputs": [
        {
          "name": "_editionNumber",
          "type": "uint256"
        },
        {
          "name": "_editionData",
          "type": "bytes32"
        },
        {
          "name": "_editionType",
          "type": "uint256"
        },
        {
          "name": "_startDate",
          "type": "uint256"
        },
        {
          "name": "_endDate",
          "type": "uint256"
        },
        {
          "name": "_artistAccount",
          "type": "address"
        },
        {
          "name": "_artistCommission",
          "type": "uint256"
        },
        {
          "name": "_priceInWei",
          "type": "uint256"
        },
        {
          "name": "_tokenURI",
          "type": "string"
        },
        {
          "name": "_totalAvailable",
          "type": "uint256"
        }
      ],
      "name": "createInactiveEdition",
      "outputs": [
        {
          "name": "",
          "type": "bool"
        }
      ],
      "payable": false,
      "stateMutability": "nonpayable",
      "type": "function"
    },
    {
      "constant": false,
      "inputs": [
        {
          "name": "_editionNumber",
          "type": "uint256"
        },
        {
          "name": "_editionData",
          "type": "bytes32"
        },
        {
          "name": "_editionType",
          "type": "uint256"
        },
        {
          "name": "_startDate",
          "type": "uint256"
        },
        {
          "name": "_endDate",
          "type": "uint256"
        },
        {
          "name": "_artistAccount",
          "type": "address"
        },
        {
          "name": "_artistCommission",
          "type": "uint256"
        },
        {
          "name": "_priceInWei",
          "type": "uint256"
        },
        {
          "name": "_tokenURI",
          "type": "string"
        },
        {
          "name": "_totalSupply",
          "type": "uint256"
        },
        {
          "name": "_totalAvailable",
          "type": "uint256"
        }
      ],
      "name": "createActivePreMintedEdition",
      "outputs": [
        {
          "name": "",
          "type": "bool"
        }
      ],
      "payable": false,
      "stateMutability": "nonpayable",
      "type": "function"
    },
    {
      "constant": false,
      "inputs": [
        {
          "name": "_editionNumber",
          "type": "uint256"
        },
        {
          "name": "_editionData",
          "type": "bytes32"
        },
        {
          "name": "_editionType",
          "type": "uint256"
        },
        {
          "name": "_startDate",
          "type": "uint256"
        },
        {
          "name": "_endDate",
          "type": "uint256"
        },
        {
          "name": "_artistAccount",
          "type": "address"
        },
        {
          "name": "_artistCommission",
          "type": "uint256"
        },
        {
          "name": "_priceInWei",
          "type": "uint256"
        },
        {
          "name": "_tokenURI",
          "type": "string"
        },
        {
          "name": "_totalSupply",
          "type": "uint256"
        },
        {
          "name": "_totalAvailable",
          "type": "uint256"
        }
      ],
      "name": "createInactivePreMintedEdition",
      "outputs": [
        {
          "name": "",
          "type": "bool"
        }
      ],
      "payable": false,
      "stateMutability": "nonpayable",
      "type": "function"
    },
    {
      "constant": false,
      "inputs": [
        {
          "name": "_editionNumber",
          "type": "uint256"
        }
      ],
      "name": "purchase",
      "outputs": [
        {
          "name": "",
          "type": "uint256"
        }
      ],
      "payable": true,
      "stateMutability": "payable",
      "type": "function"
    },
    {
      "constant": false,
      "inputs": [
        {
          "name": "_to",
          "type": "address"
        },
        {
          "name": "_editionNumber",
          "type": "uint256"
        }
      ],
      "name": "purchaseTo",
      "outputs": [
        {
          "name": "",
          "type": "uint256"
        }
      ],
      "payable": true,
      "stateMutability": "payable",
      "type": "function"
    },
    {
      "constant": false,
      "inputs": [
        {
          "name": "_to",
          "type": "address"
        },
        {
          "name": "_editionNumber",
          "type": "uint256"
        }
      ],
      "name": "mint",
      "outputs": [
        {
          "name": "",
          "type": "uint256"
        }
      ],
      "payable": false,
      "stateMutability": "nonpayable",
      "type": "function"
    },
    {
      "constant": false,
      "inputs": [
        {
          "name": "_to",
          "type": "address"
        },
        {
          "name": "_editionNumber",
          "type": "uint256"
        }
      ],
      "name": "underMint",
      "outputs": [
        {
          "name": "",
          "type": "uint256"
        }
      ],
      "payable": false,
      "stateMutability": "nonpayable",
      "type": "function"
    },
    {
      "constant": false,
      "inputs": [
        {
          "name": "_tokenId",
          "type": "uint256"
        }
      ],
      "name": "burn",
      "outputs": [],
      "payable": false,
      "stateMutability": "nonpayable",
      "type": "function"
    },
    {
      "constant": false,
      "inputs": [
        {
          "name": "_to",
          "type": "address"
        },
        {
          "name": "_tokenIds",
          "type": "uint256[]"
        }
      ],
      "name": "batchTransfer",
      "outputs": [],
      "payable": false,
      "stateMutability": "nonpayable",
      "type": "function"
    },
    {
      "constant": false,
      "inputs": [
        {
          "name": "_from",
          "type": "address"
        },
        {
          "name": "_to",
          "type": "address"
        },
        {
          "name": "_tokenIds",
          "type": "uint256[]"
        }
      ],
      "name": "batchTransferFrom",
      "outputs": [],
      "payable": false,
      "stateMutability": "nonpayable",
      "type": "function"
    },
    {
      "constant": false,
      "inputs": [
        {
          "name": "_newBaseURI",
          "type": "string"
        }
      ],
      "name": "updateTokenBaseURI",
      "outputs": [],
      "payable": false,
      "stateMutability": "nonpayable",
      "type": "function"
    },
    {
      "constant": false,
      "inputs": [
        {
          "name": "_tokenId",
          "type": "uint256"
        },
        {
          "name": "_uri",
          "type": "string"
        }
      ],
      "name": "setTokenURI",
      "outputs": [],
      "payable": false,
      "stateMutability": "nonpayable",
      "type": "function"
    },
    {
      "constant": false,
      "inputs": [
        {
          "name": "_editionNumber",
          "type": "uint256"
        },
        {
          "name": "_uri",
          "type": "string"
        }
      ],
      "name": "updateEditionTokenURI",
      "outputs": [],
      "payable": false,
      "stateMutability": "nonpayable",
      "type": "function"
    },
    {
      "constant": false,
      "inputs": [
        {
          "name": "_editionNumber",
          "type": "uint256"
        },
        {
          "name": "_priceInWei",
          "type": "uint256"
        }
      ],
      "name": "updatePriceInWei",
      "outputs": [],
      "payable": false,
      "stateMutability": "nonpayable",
      "type": "function"
    },
    {
      "constant": false,
      "inputs": [
        {
          "name": "_editionNumber",
          "type": "uint256"
        },
        {
          "name": "_artistAccount",
          "type": "address"
        }
      ],
      "name": "updateArtistsAccount",
      "outputs": [],
      "payable": false,
      "stateMutability": "nonpayable",
      "type": "function"
    },
    {
      "constant": false,
      "inputs": [
        {
          "name": "_editionNumber",
          "type": "uint256"
        },
        {
          "name": "_editionType",
          "type": "uint256"
        }
      ],
      "name": "updateEditionType",
      "outputs": [],
      "payable": false,
      "stateMutability": "nonpayable",
      "type": "function"
    },
    {
      "constant": false,
      "inputs": [
        {
          "name": "_editionNumber",
          "type": "uint256"
        },
        {
          "name": "_active",
          "type": "bool"
        }
      ],
      "name": "updateActive",
      "outputs": [],
      "payable": false,
      "stateMutability": "nonpayable",
      "type": "function"
    },
    {
      "constant": false,
      "inputs": [
        {
          "name": "_editionNumber",
          "type": "uint256"
        },
        {
          "name": "_totalSupply",
          "type": "uint256"
        }
      ],
      "name": "updateTotalSupply",
      "outputs": [],
      "payable": false,
      "stateMutability": "nonpayable",
      "type": "function"
    },
    {
      "constant": false,
      "inputs": [
        {
          "name": "_editionNumber",
          "type": "uint256"
        },
        {
          "name": "_totalAvailable",
          "type": "uint256"
        }
      ],
      "name": "updateTotalAvailable",
      "outputs": [],
      "payable": false,
      "stateMutability": "nonpayable",
      "type": "function"
    },
    {
      "constant": false,
      "inputs": [
        {
          "name": "_editionNumber",
          "type": "uint256"
        },
        {
          "name": "_startDate",
          "type": "uint256"
        }
      ],
      "name": "updateStartDate",
      "outputs": [],
      "payable": false,
      "stateMutability": "nonpayable",
      "type": "function"
    },
    {
      "constant": false,
      "inputs": [
        {
          "name": "_editionNumber",
          "type": "uint256"
        },
        {
          "name": "_endDate",
          "type": "uint256"
        }
      ],
      "name": "updateEndDate",
      "outputs": [],
      "payable": false,
      "stateMutability": "nonpayable",
      "type": "function"
    },
    {
      "constant": false,
      "inputs": [
        {
          "name": "_koCommissionAccount",
          "type": "address"
        }
      ],
      "name": "updateKoCommissionAccount",
      "outputs": [],
      "payable": false,
      "stateMutability": "nonpayable",
      "type": "function"
    },
    {
      "constant": false,
      "inputs": [
        {
          "name": "_editionNumber",
          "type": "uint256"
        },
        {
          "name": "_rate",
          "type": "uint256"
        },
        {
          "name": "_recipient",
          "type": "address"
        }
      ],
      "name": "updateOptionalCommission",
      "outputs": [],
      "payable": false,
      "stateMutability": "nonpayable",
      "type": "function"
    },
    {
      "constant": true,
      "inputs": [
        {
          "name": "_type",
          "type": "uint256"
        }
      ],
      "name": "editionsOfType",
      "outputs": [
        {
          "name": "_editionNumbers",
          "type": "uint256[]"
        }
      ],
      "payable": false,
      "stateMutability": "view",
      "type": "function"
    },
    {
      "constant": true,
      "inputs": [
        {
          "name": "_tokenId",
          "type": "uint256"
        }
      ],
      "name": "editionOfTokenId",
      "outputs": [
        {
          "name": "_editionNumber",
          "type": "uint256"
        }
      ],
      "payable": false,
      "stateMutability": "view",
      "type": "function"
    },
    {
      "constant": true,
      "inputs": [
        {
          "name": "_artistsAccount",
          "type": "address"
        }
      ],
      "name": "artistsEditions",
      "outputs": [
        {
          "name": "_editionNumbers",
          "type": "uint256[]"
        }
      ],
      "payable": false,
      "stateMutability": "view",
      "type": "function"
    },
    {
      "constant": true,
      "inputs": [
        {
          "name": "_editionNumber",
          "type": "uint256"
        }
      ],
      "name": "tokensOfEdition",
      "outputs": [
        {
          "name": "_tokenIds",
          "type": "uint256[]"
        }
      ],
      "payable": false,
      "stateMutability": "view",
      "type": "function"
    },
    {
      "constant": true,
      "inputs": [
        {
          "name": "_editionNumber",
          "type": "uint256"
        }
      ],
      "name": "editionOptionalCommission",
      "outputs": [
        {
          "name": "_rate",
          "type": "uint256"
        },
        {
          "name": "_recipient",
          "type": "address"
        }
      ],
      "payable": false,
      "stateMutability": "view",
      "type": "function"
    },
    {
      "constant": true,
      "inputs": [
        {
          "name": "editionNumber",
          "type": "uint256"
        }
      ],
      "name": "allEditionData",
      "outputs": [
        {
          "name": "_editionData",
          "type": "bytes32"
        },
        {
          "name": "_editionType",
          "type": "uint256"
        },
        {
          "name": "_startDate",
          "type": "uint256"
        },
        {
          "name": "_endDate",
          "type": "uint256"
        },
        {
          "name": "_artistAccount",
          "type": "address"
        },
        {
          "name": "_artistCommission",
          "type": "uint256"
        },
        {
          "name": "_priceInWei",
          "type": "uint256"
        },
        {
          "name": "_tokenURI",
          "type": "string"
        },
        {
          "name": "_totalSupply",
          "type": "uint256"
        },
        {
          "name": "_totalAvailable",
          "type": "uint256"
        },
        {
          "name": "_active",
          "type": "bool"
        }
      ],
      "payable": false,
      "stateMutability": "view",
      "type": "function"
    },
    {
      "constant": true,
      "inputs": [
        {
          "name": "_tokenId",
          "type": "uint256"
        }
      ],
      "name": "tokenData",
      "outputs": [
        {
          "name": "_editionNumber",
          "type": "uint256"
        },
        {
          "name": "_editionType",
          "type": "uint256"
        },
        {
          "name": "_editionData",
          "type": "bytes32"
        },
        {
          "name": "_tokenURI",
          "type": "string"
        },
        {
          "name": "_owner",
          "type": "address"
        }
      ],
      "payable": false,
      "stateMutability": "view",
      "type": "function"
    },
    {
      "constant": true,
      "inputs": [
        {
          "name": "_tokenId",
          "type": "uint256"
        }
      ],
      "name": "tokenURI",
      "outputs": [
        {
          "name": "",
          "type": "string"
        }
      ],
      "payable": false,
      "stateMutability": "view",
      "type": "function"
    },
    {
      "constant": true,
      "inputs": [
        {
          "name": "_tokenId",
          "type": "uint256"
        }
      ],
      "name": "tokenURISafe",
      "outputs": [
        {
          "name": "",
          "type": "string"
        }
      ],
      "payable": false,
      "stateMutability": "view",
      "type": "function"
    },
    {
      "constant": true,
      "inputs": [
        {
          "name": "_editionNumber",
          "type": "uint256"
        }
      ],
      "name": "tokenURIEdition",
      "outputs": [
        {
          "name": "",
          "type": "string"
        }
      ],
      "payable": false,
      "stateMutability": "view",
      "type": "function"
    },
    {
      "constant": true,
      "inputs": [
        {
          "name": "_owner",
          "type": "address"
        }
      ],
      "name": "tokensOf",
      "outputs": [
        {
          "name": "_tokenIds",
          "type": "uint256[]"
        }
      ],
      "payable": false,
      "stateMutability": "view",
      "type": "function"
    },
    {
      "constant": true,
      "inputs": [
        {
          "name": "_editionNumber",
          "type": "uint256"
        }
      ],
      "name": "totalRemaining",
      "outputs": [
        {
          "name": "",
          "type": "uint256"
        }
      ],
      "payable": false,
      "stateMutability": "view",
      "type": "function"
    },
    {
      "constant": true,
      "inputs": [
        {
          "name": "_editionNumber",
          "type": "uint256"
        }
      ],
      "name": "editionExists",
      "outputs": [
        {
          "name": "",
          "type": "bool"
        }
      ],
      "payable": false,
      "stateMutability": "view",
      "type": "function"
    },
    {
      "constant": true,
      "inputs": [
        {
          "name": "_editionNumber",
          "type": "uint256"
        }
      ],
      "name": "editionTotalAvailable",
      "outputs": [
        {
          "name": "",
          "type": "uint256"
        }
      ],
      "payable": false,
      "stateMutability": "view",
      "type": "function"
    },
    {
      "constant": true,
      "inputs": [
        {
          "name": "_editionNumber",
          "type": "uint256"
        }
      ],
      "name": "editionTotalSupply",
      "outputs": [
        {
          "name": "",
          "type": "uint256"
        }
      ],
      "payable": false,
      "stateMutability": "view",
      "type": "function"
    },
    {
      "constant": true,
      "inputs": [
        {
          "name": "_editionNumber",
          "type": "uint256"
        }
      ],
      "name": "editionActive",
      "outputs": [
        {
          "name": "",
          "type": "bool"
        }
      ],
      "payable": false,
      "stateMutability": "view",
      "type": "function"
    },
    {
      "constant": true,
      "inputs": [
        {
          "name": "_tokenId",
          "type": "uint256"
        }
      ],
      "name": "purchaseDatesToken",
      "outputs": [
        {
          "name": "_startDate",
          "type": "uint256"
        },
        {
          "name": "_endDate",
          "type": "uint256"
        }
      ],
      "payable": false,
      "stateMutability": "view",
      "type": "function"
    },
    {
      "constant": true,
      "inputs": [
        {
          "name": "_editionNumber",
          "type": "uint256"
        }
      ],
      "name": "purchaseDatesEdition",
      "outputs": [
        {
          "name": "_startDate",
          "type": "uint256"
        },
        {
          "name": "_endDate",
          "type": "uint256"
        }
      ],
      "payable": false,
      "stateMutability": "view",
      "type": "function"
    },
    {
      "constant": true,
      "inputs": [
        {
          "name": "_tokenId",
          "type": "uint256"
        }
      ],
      "name": "priceInWeiToken",
      "outputs": [
        {
          "name": "_priceInWei",
          "type": "uint256"
        }
      ],
      "payable": false,
      "stateMutability": "view",
      "type": "function"
    },
    {
      "constant": true,
      "inputs": [
        {
          "name": "_editionNumber",
          "type": "uint256"
        }
      ],
      "name": "priceInWeiEdition",
      "outputs": [
        {
          "name": "_priceInWei",
          "type": "uint256"
        }
      ],
      "payable": false,
      "stateMutability": "view",
      "type": "function"
    }
  ],
  "bytecode": "0x600e805460ff1916905560c0604052601c60808190527f68747470733a2f2f697066732e696e667572612e696f2f697066732f0000000060a09081526200004a91600f919062000456565b50604080518082018252601781527f4b6e6f776e4f726967696e4469676974616c41737365740000000000000000006020808301919091528251808401909352600483527f4b4f4441000000000000000000000000000000000000000000000000000000009083015290620000e87f01ffc9a70000000000000000000000000000000000000000000000000000000064010000000062000233810204565b6200011c7f80ac58cd0000000000000000000000000000000000000000000000000000000064010000000062000233810204565b620001507f4f558e790000000000000000000000000000000000000000000000000000000064010000000062000233810204565b81516200016590600590602085019062000456565b5080516200017b90600690602084019062000456565b50620001b07f780e9d630000000000000000000000000000000000000000000000000000000064010000000062000233810204565b620001e47f5b5e139f0000000000000000000000000000000000000000000000000000000064010000000062000233810204565b5050600c8054600160a060020a0319163317905534156200020457600080fd5b60138054600160a060020a031916339081179091556200022d90640100000000620002a0810204565b620004fb565b7fffffffff0000000000000000000000000000000000000000000000000000000080821614156200026357600080fd5b7fffffffff00000000000000000000000000000000000000000000000000000000166000908152602081905260409020805460ff19166001179055565b600c54600160a060020a03163314620002b857600080fd5b62000308816040805190810160405280600981526020017f77686974656c69737400000000000000000000000000000000000000000000008152506200030b640100000000026401000000009004565b50565b6200038782600d836040518082805190602001908083835b60208310620003445780518252601f19909201916020918201910162000323565b51815160209384036101000a600019018019909216911617905292019485525060405193849003019092209291505064010000000062000431810262004add1704565b81600160a060020a03167fbfec83d64eaa953f2708271a023ab9ee82057f8f3578d548c1a4ba0b5b700489826040518080602001828103825283818151815260200191508051906020019080838360005b83811015620003f2578181015183820152602001620003d8565b50505050905090810190601f168015620004205780820380516001836020036101000a031916815260200191505b509250505060405180910390a25050565b600160a060020a0316600090815260209190915260409020805460ff19166001179055565b828054600181600116156101000203166002900490600052602060002090601f016020900481019282601f106200049957805160ff1916838001178555620004c9565b82800160010185558215620004c9579182015b82811115620004c9578251825591602001919060010190620004ac565b50620004d7929150620004db565b5090565b620004f891905b80821115620004d75760008155600101620004e2565b90565b614de7806200050b6000396000f3006080604052600436106103b05763ffffffff7c010000000000000000000000000000000000000000000000000000000060003504166301ffc9a781146103bf57806304bb1e3d146103f557806306fdde0314610414578063081812fc1461049e578063095ea7b3146104d25780630988ca8c146104f6578063153473801461055d578063162094c41461058757806318160ddd146105ab578063187d8803146105c057806318b919e9146105e157806319fa8f50146105f6578063217fe6c6146106285780632295ee5b1461068f57806323b872dd146106af57806324953eaa146106d9578063286dd3f51461072e5780632bbd84e81461074f5780632f745c5914610764578063328a2c2d14610788578063385df389146107a35780633f4ba83a146107bb57806340c10f19146107d057806342842e0e146107f457806342966c681461081e57806342c7ea5f1461083657806343bf63e81461084b5780634e99b800146108635780634f558e79146108785780634f6ccce71461089057806350d331c2146108a85780635a3f2672146108c05780635c975abb146109315780636352211e14610946578063652edd411461095e5780636641179e1461098f5780636e93dbdc146109b057806370a08231146109c5578063715018a6146109e657806375dcb70a146109fb5780637a85c02a14610a1f5780637b9417c814610a375780637d55758f14610a585780637eb9f04a14610a7c578063824eec3b14610a975780638456cb5914610aaf578063891407c014610ac45780638bbb594a14610adb5780638da5cb5b14610b6057806395d89b4114610b7557806397e851f614610b8a5780639985251c14610bb15780639b19251a14610ca55780639cd7745714610cc65780639f727c2714610d52578063a22cb46514610d67578063ac3c995214610d8d578063ae8a869014610df0578063afa7a25f14610e7c578063b4b5b48f14610ea0578063b88d4fde14610f59578063b8f6c21914610fc8578063bbd1e1fc14610fe0578063bc02844c14610ff8578063bdcdc0bc14611010578063be1f912e1461102b578063c2b2fb5e14611043578063c87b56dd1461105b578063d4f3d6b814611073578063de56a2451461108e578063e2ec6ec3146110c7578063e6232ba11461111c578063e65d19ca14611137578063e7b8d977146111bc578063e985e9c5146111d4578063efef39a1146111fb578063f1ff3d4b14611206578063f2fde38b1461121b578063f3993d111461123c578063f8b4ab7a146112a7578063fee7e35d146112c2575b3480156103bc57600080fd5b50005b3480156103cb57600080fd5b506103e1600160e060020a0319600435166112da565b604080519115158252519081900360200190f35b34801561040157600080fd5b5061041260043560243515156112f9565b005b34801561042057600080fd5b50610429611388565b6040805160208082528351818301528351919283929083019185019080838360005b8381101561046357818101518382015260200161044b565b50505050905090810190601f1680156104905780820380516001836020036101000a031916815260200191505b509250505060405180910390f35b3480156104aa57600080fd5b506104b660043561141f565b60408051600160a060020a039092168252519081900360200190f35b3480156104de57600080fd5b50610412600160a060020a036004351660243561143a565b34801561050257600080fd5b5060408051602060046024803582810135601f8101859004850286018501909652858552610412958335600160a060020a03169536956044949193909101919081908401838280828437509497506114e39650505050505050565b34801561056957600080fd5b50610575600435611551565b60408051918252519081900360200190f35b34801561059357600080fd5b50610412600480359060248035908101910135611570565b3480156105b757600080fd5b50610575611624565b3480156105cc57600080fd5b50610412600160a060020a036004351661162a565b3480156105ed57600080fd5b506104296116c0565b34801561060257600080fd5b5061060b6116e5565b60408051600160e060020a03199092168252519081900360200190f35b34801561063457600080fd5b5060408051602060046024803582810135601f81018590048502860185019096528585526103e1958335600160a060020a03169536956044949193909101919081908401838280828437509497506117099650505050505050565b34801561069b57600080fd5b50610412600480356024810191013561177e565b3480156106bb57600080fd5b50610412600160a060020a03600435811690602435166044356117fa565b3480156106e557600080fd5b50604080516020600480358082013583810280860185019096528085526104129536959394602494938501929182918501908490808284375094975061189d9650505050505050565b34801561073a57600080fd5b50610412600160a060020a03600435166118ec565b34801561075b57600080fd5b50610575611933565b34801561077057600080fd5b50610575600160a060020a0360043516602435611939565b34801561079457600080fd5b50610412600435602435611986565b3480156107af57600080fd5b50610429600435611a04565b3480156107c757600080fd5b50610412611b3a565b3480156107dc57600080fd5b50610575600160a060020a0360043516602435611b97565b34801561080057600080fd5b50610412600160a060020a0360043581169060243516604435611d57565b34801561082a57600080fd5b50610412600435611d73565b34801561084257600080fd5b50610575611dec565b34801561085757600080fd5b50610575600435611df2565b34801561086f57600080fd5b50610429611e07565b34801561088457600080fd5b506103e1600435611e95565b34801561089c57600080fd5b50610575600435611eb2565b3480156108b457600080fd5b50610575600435611ee7565b3480156108cc57600080fd5b506108e1600160a060020a0360043516611efc565b60408051602080825283518183015283519192839290830191858101910280838360005b8381101561091d578181015183820152602001610905565b505050509050019250505060405180910390f35b34801561093d57600080fd5b506103e1611f68565b34801561095257600080fd5b506104b6600435611f71565b34801561096a57600080fd5b50610976600435611f95565b6040805192835260208301919091528051918290030190f35b34801561099b57600080fd5b506108e1600160a060020a0360043516611fb2565b3480156109bc57600080fd5b506104b661201c565b3480156109d157600080fd5b50610575600160a060020a036004351661202b565b3480156109f257600080fd5b5061041261205e565b348015610a0757600080fd5b506104126004803590602480359081019101356120bf565b348015610a2b57600080fd5b506108e160043561214a565b348015610a4357600080fd5b50610412600160a060020a03600435166121aa565b348015610a6457600080fd5b50610575600160a060020a03600435166024356121ee565b348015610a8857600080fd5b50610412600435602435612382565b348015610aa357600080fd5b50610575600435612400565b348015610abb57600080fd5b50610412612412565b610575600160a060020a0360043516602435612471565b348015610ae757600080fd5b5060408051602060046101043581810135601f81018490048402850184019095528484526103e194823594602480359560443595606435956084359560a435600160a060020a03169560c4359560e435953695946101249492019190819084018382808284375094975050933594506127c29350505050565b348015610b6c57600080fd5b506104b66127fb565b348015610b8157600080fd5b5061042961280a565b348015610b9657600080fd5b50610412600435602435600160a060020a036044351661286b565b348015610bbd57600080fd5b50610bc9600435612a00565b604051808c600019166000191681526020018b81526020018a815260200189815260200188600160a060020a0316600160a060020a031681526020018781526020018681526020018060200185815260200184815260200183151515158152602001828103825286818151815260200191508051906020019080838360005b83811015610c60578181015183820152602001610c48565b50505050905090810190601f168015610c8d5780820380516001836020036101000a031916815260200191505b509c5050505050505050505050505060405180910390f35b348015610cb157600080fd5b506103e1600160a060020a0360043516612bfb565b348015610cd257600080fd5b5060408051602060046101043581810135601f81018490048402850184019095528484526103e194823594602480359560443595606435956084359560a435600160a060020a03169560c4359560e4359536959461012494920191908190840183828082843750949750508435955050506020909201359150612c2a9050565b348015610d5e57600080fd5b50610412612c71565b348015610d7357600080fd5b50610412600160a060020a03600435166024351515612cc2565b348015610d9957600080fd5b50604080516020600460248035828101358481028087018601909752808652610412968435600160a060020a031696369660449591949091019291829185019084908082843750949750612d469650505050505050565b348015610dfc57600080fd5b5060408051602060046101043581810135601f81018490048402850184019095528484526103e194823594602480359560443595606435956084359560a435600160a060020a03169560c4359560e4359536959461012494920191908190840183828082843750949750508435955050506020909201359150612d9b9050565b348015610e8857600080fd5b50610412600435600160a060020a0360243516612dc5565b348015610eac57600080fd5b50610eb8600435612ee6565b604080518681526020808201879052918101859052600160a060020a038316608082015260a06060820181815285519183019190915284519192909160c084019186019080838360005b83811015610f1a578181015183820152602001610f02565b50505050905090810190601f168015610f475780820380516001836020036101000a031916815260200191505b50965050505050505060405180910390f35b348015610f6557600080fd5b50604080516020601f60643560048181013592830184900484028501840190955281845261041294600160a060020a038135811695602480359092169560443595369560849401918190840183828082843750949750612fa89650505050505050565b348015610fd457600080fd5b50610976600435612fca565b348015610fec57600080fd5b506103e1600435612fee565b34801561100457600080fd5b50610575600435613006565b34801561101c57600080fd5b5061041260043560243561302d565b34801561103757600080fd5b50610575600435613194565b34801561104f57600080fd5b506103e16004356131a9565b34801561106757600080fd5b506104296004356131bc565b34801561107f57600080fd5b50610412600435602435613317565b34801561109a57600080fd5b506110a6600435613415565b60408051928352600160a060020a0390911660208301528051918290030190f35b3480156110d357600080fd5b50604080516020600480358082013583810280860185019096528085526104129536959394602494938501929182918501908490808284375094975061343b9650505050505050565b34801561112857600080fd5b5061041260043560243561348a565b34801561114357600080fd5b5060408051602060046101043581810135601f81018490048402850184019095528484526103e194823594602480359560443595606435956084359560a435600160a060020a03169560c4359560e435953695946101249492019190819084018382808284375094975050933594506135089350505050565b3480156111c857600080fd5b506108e1600435613532565b3480156111e057600080fd5b506103e1600160a060020a0360043581169060243516613592565b6105756004356135c0565b34801561121257600080fd5b506105756135cc565b34801561122757600080fd5b50610412600160a060020a03600435166135d2565b34801561124857600080fd5b506040805160206004604435818101358381028086018501909652808552610412958335600160a060020a0390811696602480359092169636969560649592949301928291850190849080828437509497506135f29650505050505050565b3480156112b357600080fd5b50610412600435602435613628565b3480156112ce57600080fd5b50610429600435613756565b600160e060020a03191660009081526020819052604090205460ff1690565b600061130433612bfb565b151561130f57600080fd5b600083815260156020526040812054849110611363576040805160e560020a62461bcd0281526020600482015260166024820152600080516020614d9c833981519152604482015290519081900360640190fd5b5050600091825260156020526040909120600901805460ff1916911515919091179055565b60058054604080516020601f60026000196101006001881615020190951694909404938401819004810282018101909252828152606093909290918301828280156114145780601f106113e957610100808354040283529160200191611414565b820191906000526020600020905b8154815290600101906020018083116113f757829003601f168201915b505050505090505b90565b600090815260026020526040902054600160a060020a031690565b600061144582611f71565b9050600160a060020a03838116908216141561146057600080fd5b33600160a060020a038216148061147c575061147c8133613592565b151561148757600080fd5b6000828152600260205260408082208054600160a060020a031916600160a060020a0387811691821790925591518593918516917f8c5be1e5ebec7d5bd14f71427d1e84f3dd0314c0f7b2291e5b200ac8c7c3b92591a4505050565b61154d82600d836040518082805190602001908083835b602083106115195780518252601f1990920191602091820191016114fa565b51815160209384036101000a6000190180199092169116179052920194855250604051938490030190922092915050613851565b5050565b60008181526016602052604081205461156981611df2565b9392505050565b61157933612bfb565b151561158457600080fd5b8261158e81611e95565b15156115e4576040805160e560020a62461bcd02815260206004820152601760248201527f546f6b656e20494420646f6573206e6f74206578697374000000000000000000604482015290519081900360640190fd5b61161e8484848080601f01602080910402602001604051908101604052809392919081815260200183838082843750613866945050505050565b50505050565b60095490565b61163333612bfb565b151561163e57600080fd5b600160a060020a038116151561169e576040805160e560020a62461bcd02815260206004820152600f60248201527f496e76616c696420616464726573730000000000000000000000000000000000604482015290519081900360640190fd5b60138054600160a060020a031916600160a060020a0392909216919091179055565b6040805180820190915260098152600080516020614d7c833981519152602082015281565b7f01ffc9a70000000000000000000000000000000000000000000000000000000081565b600061177583600d846040518082805190602001908083835b602083106117415780518252601f199092019160209182019101611722565b51815160209384036101000a6000190180199092169116179052920194855250604051938490030190922092915050613899565b90505b92915050565b61178733612bfb565b151561179257600080fd5b8015156117e9576040805160e560020a62461bcd02815260206004820152601060248201527f426173652055524920696e76616c696400000000000000000000000000000000604482015290519081900360640190fd5b6117f5600f8383614c11565b505050565b61180433826138b8565b151561180f57600080fd5b600160a060020a038316151561182457600080fd5b600160a060020a038216151561183957600080fd5b6118438382613917565b61184d8382613979565b6118578282613a80565b8082600160a060020a031684600160a060020a03167fddf252ad1be2c89b69c2b068fc378daa952ba7f163c4a11628f55a4df523b3ef60405160405180910390a4505050565b600c54600090600160a060020a031633146118b757600080fd5b5060005b815181101561154d576118e482828151811015156118d557fe5b906020019060200201516118ec565b6001016118bb565b600c54600160a060020a0316331461190357600080fd5b61193081604080519081016040528060098152602001600080516020614d7c833981519152815250613ac9565b50565b60105481565b60006119448361202b565b821061194f57600080fd5b600160a060020a038316600090815260076020526040902080548390811061197357fe5b9060005260206000200154905092915050565b61198f33612bfb565b151561199a57600080fd5b6000828152601560205260408120548391106119ee576040805160e560020a62461bcd0281526020600482015260166024820152600080516020614d9c833981519152604482015290519081900360640190fd5b5060009182526015602052604090912060030155565b600081815260156020908152604091829020600f80548451601f60026000196101006001861615020190931692909204918201859004850281018501909552808552606094929361156993929190830182828015611aa35780601f10611a7857610100808354040283529160200191611aa3565b820191906000526020600020905b815481529060010190602001808311611a8657829003601f168201915b5050505060088401805460408051602060026001851615610100026000190190941693909304601f8101849004840282018401909252818152935090830182828015611b305780601f10611b0557610100808354040283529160200191611b30565b820191906000526020600020905b815481529060010190602001808311611b1357829003601f168201915b5050505050613bda565b600c54600160a060020a03163314611b5157600080fd5b600e5460ff161515611b6257600080fd5b600e805460ff191690556040517f7805862f689e2f13df9f062ff482ad3ad112aca9e0847911ed832e158c525b3390600090a1565b600080611ba333612bfb565b1515611bae57600080fd5b600083815260156020526040812054849110611c02576040805160e560020a62461bcd0281526020600482015260166024820152600080516020614d9c833981519152604482015290519081900360640190fd5b6000848152601560205260409020600b810154600a90910154859111611c98576040805160e560020a62461bcd02815260206004820152602160248201527f4e6f206d6f72652065646974696f6e73206c65667420746f207075726368617360448201527f6500000000000000000000000000000000000000000000000000000000000000606482015290519081900360840190fd5b611ca185613c0f565b6000868152601560209081526040918290206008018054835160026001831615610100026000190190921691909104601f8101849004840282018401909452838152939650611d4d938a9388938b939190830182828015611d435780601f10611d1857610100808354040283529160200191611d43565b820191906000526020600020905b815481529060010190602001808311611d2657829003601f168201915b5050505050613c4b565b5090949350505050565b6117f58383836020604051908101604052806000815250612fa8565b6000806000611d8133612bfb565b1515611d8c57600080fd5b611d9e611d9885611f71565b85613cf8565b50505060008181526016602090815260408083208054908490558084526017835281842085855260189093529220548154829082908110611ddb57fe5b600091825260208220015550505050565b60125481565b60009081526015602052604090206007015490565b600f805460408051602060026001851615610100026000190190941693909304601f81018490048402820184019092528181529291830182828015611e8d5780601f10611e6257610100808354040283529160200191611e8d565b820191906000526020600020905b815481529060010190602001808311611e7057829003601f168201915b505050505081565b600090815260016020526040902054600160a060020a0316151590565b6000611ebc611624565b8210611ec757600080fd5b6009805483908110611ed557fe5b90600052602060002001549050919050565b6000908152601560205260409020600a015490565b600160a060020a038116600090815260076020908152604091829020805483518184028101840190945280845260609392830182828015611f5c57602002820191906000526020600020905b815481526020019060010190808311611f48575b50505050509050919050565b600e5460ff1681565b600081815260016020526040812054600160a060020a031680151561177857600080fd5b600090815260156020526040902060038101546004909101549091565b600160a060020a038116600090815260196020908152604091829020805483518184028101840190945280845260609392830182828015611f5c5760200282019190600052602060002090815481526020019060010190808311611f485750505050509050919050565b601354600160a060020a031681565b6000600160a060020a038216151561204257600080fd5b50600160a060020a031660009081526003602052604090205490565b600c54600160a060020a0316331461207557600080fd5b600c54604051600160a060020a03909116907ff8df31144d9c2f0f6b59d69b8b98abd5459d07f2742c4df920b25aae33c6482090600090a2600c8054600160a060020a0319169055565b6120c833612bfb565b15156120d357600080fd5b600083815260156020526040812054849110612127576040805160e560020a62461bcd0281526020600482015260166024820152600080516020614d9c833981519152604482015290519081900360640190fd5b6000848152601560205260409020612143906008018484614c11565b5050505050565b600081815260176020908152604091829020805483518184028101840190945280845260609392830182828015611f5c5760200282019190600052602060002090815481526020019060010190808311611f485750505050509050919050565b600c54600160a060020a031633146121c157600080fd5b61193081604080519081016040528060098152602001600080516020614d7c833981519152815250613df2565b6000806121fa33612bfb565b151561220557600080fd5b600083815260156020526040812054849110612259576040805160e560020a62461bcd0281526020600482015260166024820152600080516020614d9c833981519152604482015290519081900360640190fd5b61226284613ec4565b6000858152601560205260409020600b015490925061228890859063ffffffff613f4f16565b821115612305576040805160e560020a62461bcd02815260206004820152602e60248201527f52656163686564206d617820746f6b656e49642c2063616e6e6f7420756e646560448201527f72206d696e7420616e796d6f7265000000000000000000000000000000000000606482015290519081900360840190fd5b60008481526015602090815260409182902060080180548351601f6002600019610100600186161502019093169290920491820184900484028101840190945280845261237a93899387938a939091830182828015611d435780601f10611d1857610100808354040283529160200191611d43565b509392505050565b61238b33612bfb565b151561239657600080fd5b6000828152601560205260408120548391106123ea576040805160e560020a62461bcd0281526020600482015260166024820152600080516020614d9c833981519152604482015290519081900360640190fd5b5060009182526015602052604090912060070155565b60009081526016602052604090205490565b600c54600160a060020a0316331461242957600080fd5b600e5460ff161561243957600080fd5b600e805460ff191660011790556040517f6985a02210a168e66602d3235cb6db0e70f92b3ba4d376a33c0f3d9434bff62590600090a1565b600e546000908190819060ff161561248857600080fd5b6000848152601560205260408120548591106124dc576040805160e560020a62461bcd0281526020600482015260166024820152600080516020614d9c833981519152604482015290519081900360640190fd5b600085815260156020526040902060090154859060ff161515612549576040805160e560020a62461bcd02815260206004820152601260248201527f45646974696f6e206e6f74206163746976650000000000000000000000000000604482015290519081900360640190fd5b6000868152601560205260409020600b810154600a909101548791116125df576040805160e560020a62461bcd02815260206004820152602160248201527f4e6f206d6f72652065646974696f6e73206c65667420746f207075726368617360448201527f6500000000000000000000000000000000000000000000000000000000000000606482015290519081900360840190fd5b600087815260156020526040902060030154879042101561264a576040805160e560020a62461bcd02815260206004820152601960248201527f45646974696f6e206e6f7420617661696c61626c652079657400000000000000604482015290519081900360640190fd5b6000818152601560205260409020600401544211156126b3576040805160e560020a62461bcd02815260206004820152601b60248201527f45646974696f6e206e6f206c6f6e67657220617661696c61626c650000000000604482015290519081900360640190fd5b600088815260156020526040902060078101549096503410156126d557600080fd5b6126de88613c0f565b600887018054604080516020601f60026000196101006001881615020190951694909404938401819004810282018101909252828152939850612747938d938a938e93830182828015611d435780601f10611d1857610100808354040283529160200191611d43565b6127728887600701548860050160009054906101000a9004600160a060020a03168960060154613f5c565b88600160a060020a031688867f145e2ff612f82ecb64f13b28a0e2825f8fd3dba6d6fbbdec265aa58800014c3d346040518082815260200191505060405180910390a45092979650505050505050565b60006127cd33612bfb565b15156127d857600080fd5b6127ec8b8b8b8b8b8b8b8b8b8b60016140b0565b9b9a5050505050505050505050565b600c54600160a060020a031681565b60068054604080516020601f60026000196101006001881615020190951694909404938401819004810282018101909252828152606093909290918301828280156114145780601f106113e957610100808354040283529160200191611414565b60008061287733612bfb565b151561288257600080fd5b505060008381526015602052604081206006810154909184111561292657600160a060020a0383161515612926576040805160e560020a62461bcd02815260206004820152603560248201527f53657474696e6720612072617465206d757374206265206163636f6d70616e6960448201527f656420627920612076616c696420616464726573730000000000000000000000606482015290519081900360840190fd5b6064612938828663ffffffff613f4f16565b11156129b4576040805160e560020a62461bcd02815260206004820152602560248201527f43616e742073657420636f6d6d697373696f6e2067726561746572207468616e60448201527f2031303025000000000000000000000000000000000000000000000000000000606482015290519081900360840190fd5b5050604080518082018252928352600160a060020a039182166020808501918252600095865260149052932091518255915160019091018054600160a060020a03191691909216179055565b600080600080600080600060606000806000808c60006015600083815260200190815260200160002060000154111515612a72576040805160e560020a62461bcd0281526020600482015260166024820152600080516020614d9c833981519152604482015290519081900360640190fd5b601560008f8152602001908152602001600020915081600101548260020154836003015484600401548560050160009054906101000a9004600160a060020a031686600601548760070154612bb8600f8054600181600116156101000203166002900480601f016020809104026020016040519081016040528092919081815260200182805460018160011615610100020316600290048015612b565780601f10612b2b57610100808354040283529160200191612b56565b820191906000526020600020905b815481529060010190602001808311612b3957829003601f168201915b5050505060088c01805460408051602060026001851615610100026000190190941693909304601f8101849004840282018401909252818152935090830182828015611b305780601f10611b0557610100808354040283529160200191611b30565b89600a01548a600b01548b60090160009054906101000a900460ff169c509c509c509c509c509c509c509c509c509c509c50505091939597999b90929496989a50565b600061177882604080519081016040528060098152602001600080516020614d7c833981519152815250611709565b6000612c3533612bfb565b1515612c4057600080fd5b612c548c8c8c8c8c8c8c8c8c8b60006140b0565b50612c5f8c84613628565b5060019b9a5050505050505050505050565b600c54600160a060020a03163314612c8857600080fd5b600c54604051600160a060020a0390911690303180156108fc02916000818181858888f19350505050158015611930573d6000803e3d6000fd5b600160a060020a038216331415612cd857600080fd5b336000818152600460209081526040808320600160a060020a03871680855290835292819020805460ff1916861515908117909155815190815290519293927f17307eab39ab6107e8899845ad3d59bd9653f200f220920489ca2b5937696c31929181900390910190a35050565b60005b81518110156117f557612d93612d758383815181101515612d6657fe5b90602001906020020151611f71565b848484815181101515612d8457fe5b90602001906020020151611d57565b600101612d49565b6000612da633612bfb565b1515612db157600080fd5b612c548c8c8c8c8c8c8c8c8c8b60016140b0565b600080600080612dd433612bfb565b1515612ddf57600080fd5b600086815260156020526040812054879110612e33576040805160e560020a62461bcd0281526020600482015260166024820152600080516020614d9c833981519152604482015290519081900360640190fd5b6000878152601560209081526040808320601a8352818420546005820154600160a060020a031685526019909352922080549297509095509350839085908110612e7957fe5b60009182526020808320909101829055600160a060020a03909716808252601988526040808320805460018101825590845289842081018b9055998352601a8952808320999099556015909752969096206005018054600160a060020a0319169095179094555050505050565b60008060006060600080600087612efc81611e95565b1515612f52576040805160e560020a62461bcd02815260206004820152601760248201527f546f6b656e20494420646f6573206e6f74206578697374000000000000000000604482015290519081900360640190fd5b6000898152601660209081526040808320548084526015909252909120600281015460018201549295509093508491612f8a8c6131bc565b612f938d611f71565b939d929c50909a509850909650945050505050565b612fb38484846117fa565b612fbf848484846144bf565b151561161e57600080fd5b6000818152601660205260408120548190612fe481611f95565b9250925050915091565b60009081526015602052604090206009015460ff1690565b6000818152601560205260408120600a810154600b8201546115699163ffffffff61462c16565b600061303833612bfb565b151561304357600080fd5b600083815260156020526040812054849110613097576040805160e560020a62461bcd0281526020600482015260166024820152600080516020614d9c833981519152604482015290519081900360640190fd5b6000848152601560205260409020600a015483101561314c576040805160e560020a62461bcd02815260206004820152604560248201527f556e61626c6520746f2072656475636520617661696c61626c6520616d6f756e60448201527f7420746f207468652062656c6f7720746865206e756d62657220746f74616c5360648201527f7570706c79000000000000000000000000000000000000000000000000000000608482015290519081900360a40190fd5b6000848152601560205260409020600b0180549084905560125490925061318b90849061317f908563ffffffff61462c16565b9063ffffffff613f4f16565b60125550505050565b6000908152601560205260409020600b015490565b6000818152601560205260409020541490565b6060816131c881611e95565b151561321e576040805160e560020a62461bcd02815260206004820152601760248201527f546f6b656e20494420646f6573206e6f74206578697374000000000000000000604482015290519081900360640190fd5b600f8054604080516020601f6002600019610100600188161502019095169490940493840181900481028201810190925282815261156993909290918301828280156132ab5780601f10613280576101008083540402835291602001916132ab565b820191906000526020600020905b81548152906001019060200180831161328e57829003601f168201915b5050506000878152600b60209081526040918290208054835160026001831615610100026000190190921691909104601f810184900484028201840190945283815294509250830182828015611b305780601f10611b0557610100808354040283529160200191611b30565b60008060008061332633612bfb565b151561333157600080fd5b600086815260156020526040812054879110613385576040805160e560020a62461bcd0281526020600482015260166024820152600080516020614d9c833981519152604482015290519081900360640190fd5b6000878152601560209081526040808320601c83528184205460028201548552601b9093529220805492975090955093508390859081106133c257fe5b60009182526020808320909101829055878252601b81526040808320805460018101825590845282842081018b9055998352601c8252808320999099556015905296909620600201949094555050505050565b600090815260146020526040902080546001909101549091600160a060020a0390911690565b600c54600090600160a060020a0316331461345557600080fd5b5060005b815181101561154d57613482828281518110151561347357fe5b906020019060200201516121aa565b600101613459565b61349333612bfb565b151561349e57600080fd5b6000828152601560205260408120548391106134f2576040805160e560020a62461bcd0281526020600482015260166024820152600080516020614d9c833981519152604482015290519081900360640190fd5b5060009182526015602052604090912060040155565b600061351333612bfb565b151561351e57600080fd5b6127ec8b8b8b8b8b8b8b8b8b8b60006140b0565b6000818152601b6020908152604091829020805483518184028101840190945280845260609392830182828015611f5c5760200282019190600052602060002090815481526020019060010190808311611f485750505050509050919050565b600160a060020a03918216600090815260046020908152604080832093909416825291909152205460ff1690565b60006117783383612471565b60115481565b600c54600160a060020a031633146135e957600080fd5b6119308161463e565b60005b815181101561161e576136208484848481518110151561361157fe5b906020019060200201516117fa565b6001016135f5565b600061363333612bfb565b151561363e57600080fd5b600083815260156020526040812054849110613692576040805160e560020a62461bcd0281526020600482015260166024820152600080516020614d9c833981519152604482015290519081900360640190fd5b8261369c8561214a565b51111561373f576040805160e560020a62461bcd02815260206004820152604960248201527f43616e74206c6f77657220746f74616c537570706c7920746f2062656c6f772060448201527f746865206e756d626572206f6620746f6b656e7320616c726561647920696e2060648201527f6578697374656e63650000000000000000000000000000000000000000000000608482015290519081900360a40190fd5b5050600091825260156020526040909120600a0155565b600f805460408051602060026001851615610100026000190190941693909304601f810184900484028201840190925281815260609361177893919290918301828280156137e55780601f106137ba576101008083540402835291602001916137e5565b820191906000526020600020905b8154815290600101906020018083116137c857829003601f168201915b5050506000868152600b60209081526040918290208054835160026001831615610100026000190190921691909104601f810184900484028201840190945283815294509250830182828015611b305780601f10611b0557610100808354040283529160200191611b30565b61385b8282613899565b151561154d57600080fd5b61386f82611e95565b151561387a57600080fd5b6000828152600b6020908152604090912082516117f592840190614c8f565b600160a060020a03166000908152602091909152604090205460ff1690565b6000806138c483611f71565b905080600160a060020a031684600160a060020a031614806138ff575083600160a060020a03166138f48461141f565b600160a060020a0316145b8061390f575061390f8185613592565b949350505050565b81600160a060020a031661392a82611f71565b600160a060020a03161461393d57600080fd5b600081815260026020526040902054600160a060020a03161561154d5760009081526002602052604090208054600160a060020a031916905550565b600080600061398885856146af565b600084815260086020908152604080832054600160a060020a03891684526007909252909120549093506139c390600163ffffffff61462c16565b600160a060020a0386166000908152600760205260409020805491935090839081106139eb57fe5b90600052602060002001549050806007600087600160a060020a0316600160a060020a0316815260200190815260200160002084815481101515613a2b57fe5b6000918252602080832090910192909255600160a060020a0387168152600790915260409020805490613a62906000198301614cfd565b50600093845260086020526040808520859055908452909220555050565b6000613a8c8383614738565b50600160a060020a039091166000908152600760209081526040808320805460018101825590845282842081018590559383526008909152902055565b613b3382600d836040518082805190602001908083835b60208310613aff5780518252601f199092019160209182019101613ae0565b51815160209384036101000a60001901801990921691161790529201948552506040519384900301909220929150506147bb565b81600160a060020a03167fd211483f91fc6eff862467f8de606587a30c8fc9981056f051b897a418df803a826040518080602001828103825283818151815260200191508051906020019080838360005b83811015613b9c578181015183820152602001613b84565b50505050905090810190601f168015613bc95780820380516001836020036101000a031916815260200191505b509250505060405180910390a25050565b6040805160208181018352600080835283518083018552818152845192830190945281526060926117759286928692906147dd565b6000818152601560205260408120600a810154613c3390600163ffffffff613f4f16565b600a820181905581546115699163ffffffff613f4f16565b6000613c578585614a3e565b613c618483613866565b506000838152601660209081526040808320859055848352601782528083208054600180820183559185528385208101889055878552601890935292208190556011549091613cb6919063ffffffff613f4f16565b601155604051600160a060020a03861690849086907f259eb7b480b3d449f506927269e4665c83c69e4cd797143eaa8f84632dc7a02b90600090a45050505050565b6000806000613d078585614a8d565b6000848152600b60205260409020546002600019610100600184161502019091160415613d45576000848152600b60205260408120613d4591614d21565b6000848152600a6020526040902054600954909350613d6b90600163ffffffff61462c16565b9150600982815481101515613d7c57fe5b9060005260206000200154905080600984815481101515613d9957fe5b60009182526020822001919091556009805484908110613db557fe5b6000918252602090912001556009805490613dd4906000198301614cfd565b506000938452600a6020526040808520859055908452909220555050565b613e5c82600d836040518082805190602001908083835b60208310613e285780518252601f199092019160209182019101613e09565b51815160209384036101000a6000190180199092169116179052920194855250604051938490030190922092915050614add565b81600160a060020a03167fbfec83d64eaa953f2708271a023ab9ee82057f8f3578d548c1a4ba0b5b7004898260405180806020018281038252838181518152602001915080519060200190808383600083811015613b9c578181015183820152602001613b84565b600081815260156020526040812080548290613ee790600163ffffffff613f4f16565b90505b613ef381611e95565b15613f1057613f0981600163ffffffff613f4f16565b9050613eea565b600a8201548254613f269163ffffffff613f4f16565b81111561156957600a820154613f4390600163ffffffff613f4f16565b600a8301559392505050565b8181018281101561177857fe5b6000808080613f8285613f7689606463ffffffff614b0216565b9063ffffffff614b1716565b93506000841115613fc557604051600160a060020a0387169085156108fc029086906000818181858888f19350505050158015613fc3573d6000803e3d6000fd5b505b600088815260146020526040812080549094501115614034578254613ff590613f7689606463ffffffff614b0216565b6001840154604051919350600160a060020a03169083156108fc029084906000818181858888f19350505050158015614032573d6000803e3d6000fd5b505b61405482614048348763ffffffff61462c16565b9063ffffffff61462c16565b601354604051919250600160a060020a03169082156108fc029083906000818181858888f1935050505015801561408f573d6000803e3d6000fd5b506010546140a3903463ffffffff613f4f16565b6010555050505050505050565b6000808c151561410a576040805160e560020a62461bcd02815260206004820152601b60248201527f45646974696f6e206e756d626572206e6f742070726f76696465640000000000604482015290519081900360640190fd5b8a1515614161576040805160e560020a62461bcd02815260206004820152601960248201527f45646974696f6e2074797065206e6f742070726f766964656400000000000000604482015290519081900360640190fd5b845115156141b9576040805160e560020a62461bcd02815260206004820152601460248201527f546f6b656e20555249206973206d697373696e67000000000000000000000000604482015290519081900360640190fd5b600160a060020a0388161515614219576040805160e560020a62461bcd02815260206004820152601b60248201527f417274697374206163636f756e74206e6f742070726f76696465640000000000604482015290519081900360640190fd5b6064871115801561422b575060008710155b15156142a7576040805160e560020a62461bcd02815260206004820152603b60248201527f41727469737420636f6d6d697373696f6e2063616e6e6f74206265206772656160448201527f746572207468616e20313030206f72206c657373207468616e20300000000000606482015290519081900360840190fd5b60008d8152601560205260409020541561430b576040805160e560020a62461bcd02815260206004820152601c60248201527f45646974696f6e20616c726561647920696e206578697374656e636500000000604482015290519081900360640190fd5b508780151561431b575063ffffffff5b610180604051908101604052808e81526020018d6000191681526020018c81526020018b815260200182815260200189600160a060020a0316815260200188815260200187815260200186815260200184151581526020016000815260200185815250601560008f8152602001908152602001600020600082015181600001556020820151816001019060001916905560408201518160020155606082015181600301556080820151816004015560a08201518160050160006101000a815481600160a060020a030219169083600160a060020a0316021790555060c0820151816006015560e08201518160070155610100820151816008019080519060200190614427929190614c8f565b5061012082015160098201805460ff1916911515919091179055610140820151600a82015561016090910151600b909101556012546144669085613f4f565b601255614473888e614b40565b61447d8b8e614b7c565b6040518b908d908f907ff702f09ce66e1a7f60e909cfb5b6400ce4967f4fd691158bd96066cb89c5c07890600090a45060019c9b505050505050505050505050565b6000806144d485600160a060020a0316614bae565b15156144e35760019150614623565b6040517f150b7a020000000000000000000000000000000000000000000000000000000081523360048201818152600160a060020a03898116602485015260448401889052608060648501908152875160848601528751918a169463150b7a0294938c938b938b93909160a490910190602085019080838360005b8381101561457657818101518382015260200161455e565b50505050905090810190601f1680156145a35780820380516001836020036101000a031916815260200191505b5095505050505050602060405180830381600087803b1580156145c557600080fd5b505af11580156145d9573d6000803e3d6000fd5b505050506040513d60208110156145ef57600080fd5b5051600160e060020a031981167f150b7a020000000000000000000000000000000000000000000000000000000014925090505b50949350505050565b60008282111561463857fe5b50900390565b600160a060020a038116151561465357600080fd5b600c54604051600160a060020a038084169216907f8be0079c531659141344cd1fd0a4f28419497f9722a3daafe3b4186f6b6457e090600090a3600c8054600160a060020a031916600160a060020a0392909216919091179055565b81600160a060020a03166146c282611f71565b600160a060020a0316146146d557600080fd5b600160a060020a0382166000908152600360205260409020546146ff90600163ffffffff61462c16565b600160a060020a039092166000908152600360209081526040808320949094559181526001909152208054600160a060020a0319169055565b600081815260016020526040902054600160a060020a03161561475a57600080fd5b60008181526001602081815260408084208054600160a060020a031916600160a060020a038816908117909155845260039091529091205461479b91613f4f565b600160a060020a0390921660009081526003602052604090209190915550565b600160a060020a0316600090815260209190915260409020805460ff19169055565b6060806060806060806060806000808e98508d97508c96508b95508a94508451865188518a518c51010101016040519080825280601f01601f191660200182016040528015614836578160200160208202803883390190505b50935083925060009150600090505b88518110156148a357888181518110151561485c57fe5b90602001015160f860020a900460f860020a02838380600101945081518110151561488357fe5b906020010190600160f860020a031916908160001a905350600101614845565b5060005b87518110156149055787818151811015156148be57fe5b90602001015160f860020a900460f860020a0283838060010194508151811015156148e557fe5b906020010190600160f860020a031916908160001a9053506001016148a7565b5060005b865181101561496757868181518110151561492057fe5b90602001015160f860020a900460f860020a02838380600101945081518110151561494757fe5b906020010190600160f860020a031916908160001a905350600101614909565b5060005b85518110156149c957858181518110151561498257fe5b90602001015160f860020a900460f860020a0283838060010194508151811015156149a957fe5b906020010190600160f860020a031916908160001a90535060010161496b565b5060005b8451811015614a2b5784818151811015156149e457fe5b90602001015160f860020a900460f860020a028383806001019450815181101515614a0b57fe5b906020010190600160f860020a031916908160001a9053506001016149cd565b50909d9c50505050505050505050505050565b614a488282614bb6565b600980546000838152600a60205260408120829055600182018355919091527f6e1540171b6c0c960b71a7020d9f60077f6af931a8bbf590da0223dacf75c7af015550565b614a978282613917565b614aa18282613979565b6040518190600090600160a060020a038516907fddf252ad1be2c89b69c2b068fc378daa952ba7f163c4a11628f55a4df523b3ef908390a45050565b600160a060020a0316600090815260209190915260409020805460ff19166001179055565b60008183811515614b0f57fe5b049392505050565b6000821515614b2857506000611778565b50818102818382811515614b3857fe5b041461177857fe5b600160a060020a03909116600090815260196020908152604080832080546001810182559084528284208101859055938352601a909152902055565b6000918252601b6020908152604080842080546001810182559085528285208101849055928452601c90915290912055565b6000903b1190565b600160a060020a0382161515614bcb57600080fd5b614bd58282613a80565b6040518190600160a060020a038416906000907fddf252ad1be2c89b69c2b068fc378daa952ba7f163c4a11628f55a4df523b3ef908290a45050565b828054600181600116156101000203166002900490600052602060002090601f016020900481019282601f10614c525782800160ff19823516178555614c7f565b82800160010185558215614c7f579182015b82811115614c7f578235825591602001919060010190614c64565b50614c8b929150614d61565b5090565b828054600181600116156101000203166002900490600052602060002090601f016020900481019282601f10614cd057805160ff1916838001178555614c7f565b82800160010185558215614c7f579182015b82811115614c7f578251825591602001919060010190614ce2565b8154818355818111156117f5576000838152602090206117f5918101908301614d61565b50805460018160011615610100020316600290046000825580601f10614d475750611930565b601f01602090049060005260206000209081019061193091905b61141c91905b80821115614c8b5760008155600101614d67560077686974656c697374000000000000000000000000000000000000000000000045646974696f6e206e756d62657220696e76616c696400000000000000000000a165627a7a7230582018c9cd8cc569c8e8b7272fcbe5fc3cc360dff35d7e716295f6e416907e2186590029",
  "source": "pragma solidity ^0.4.24;\n\n// allows for multi-address access\nimport \"openzeppelin-solidity/contracts/access/Whitelist.sol\";\n\n// prevents stuck ether\nimport \"openzeppelin-solidity/contracts/ownership/HasNoEther.sol\";\n\n// For safe maths operations\nimport \"openzeppelin-solidity/contracts/math/SafeMath.sol\";\n\n// Pause purchasing only in case of emergency/migration\nimport \"openzeppelin-solidity/contracts/lifecycle/Pausable.sol\";\n\n// ERC721\nimport \"openzeppelin-solidity/contracts/token/ERC721/ERC721Token.sol\";\n\n// Utils only\nimport \"../Strings.sol\";\n\n/**\n* @title KnownOriginDigitalAsset - V2\n*\n* http://www.knownorigin.io/\n*\n* ERC721 compliant digital assets for real-world artwork.\n* BE ORIGINAL. BUY ORIGINAL.\n*\n*/\ncontract KnownOriginDigitalAssetV2 is\nERC721Token,\nWhitelist,\nHasNoEther,\nPausable\n{\n  using SafeMath for uint256;\n\n  ////////////\n  // Events //\n  ////////////\n\n  // On purchases from within this contract - bought through mint/mintTo\n  event Purchase(\n    uint256 indexed _tokenId,\n    uint256 indexed _editionNumber,\n    address indexed _buyer,\n    uint256 _priceInWei\n  );\n\n  // Emitted on every mint\n  event Minted(\n    uint256 indexed _tokenId,\n    uint256 indexed _editionNumber,\n    address indexed _buyer\n  );\n\n  // Emitted on every edition created\n  event EditionCreated(\n    uint256 indexed _editionNumber,\n    bytes32 indexed _editionData,\n    uint256 indexed _editionType\n  );\n\n  ////////////////\n  // Properties //\n  ////////////////\n\n  uint256 constant internal MAX_UINT32 = ~uint32(0);\n\n  string public tokenBaseURI = \"https://ipfs.infura.io/ipfs/\";\n\n  // total wei been processed through the contract\n  uint256 public totalPurchaseValueInWei;\n\n  // number of assets sold of any type\n  uint256 public totalNumberMinted;\n\n  // number of assets available of any type\n  uint256 public totalNumberAvailable;\n\n  // the KO account which can receive commission\n  address public koCommissionAccount;\n\n  // Optional commission split can be defined per edition\n  mapping(uint256 => CommissionSplit) editionNumberToOptionalCommissionSplit;\n\n  // Simple struct providing an optional commission split on asset purchase\n  struct CommissionSplit {\n    uint256 rate;\n    address recipient;\n  }\n\n  // Object for edition details\n  struct EditionDetails {\n    // Identifiers\n    uint256 editionNumber;    // the range e.g. 10000\n    bytes32 editionData;      // some data about the edition\n    uint256 editionType;      // e.g. 1 = KODA V1, 2 = KODA V2, 3 = KOTA, 4 = Bespoke partnership\n    // Config\n    uint256 startDate;         // date when the asset goes on sale\n    uint256 endDate;           // date when the asset is available until\n    address artistAccount;    // artists account\n    uint256 artistCommission; // base commissions, could be overridden by parent contracts\n    uint256 priceInWei;       // base price for asset, could be overridden by parent contracts\n    string tokenURI;          // IPFS Hash only\n    bool active;              // Root control - on/off for the edition\n    // Counters\n    uint256 totalSupply;      // Total purchases/totalSupply\n    uint256 totalAvailable;   // Total number available to be purchased\n  }\n\n  mapping(uint256 => EditionDetails) internal editionNumberToEditionDetails;\n\n  mapping(uint256 => uint256) internal tokenIdToEditionNumber;\n\n  mapping(uint256 => uint256[]) internal editionNumberToTokenIds;\n  mapping(uint256 => uint256) internal editionNumberToTokenIdIndex;\n\n  mapping(address => uint256[]) internal artistToEditionNumbers;\n  mapping(uint256 => uint256) internal editionNumberToArtistIndex;\n\n  mapping(uint256 => uint256[]) internal editionTypeToEditionNumber;\n  mapping(uint256 => uint256) internal editionNumberToTypeIndex;\n\n  ///////////////\n  // Modifiers //\n  ///////////////\n\n  modifier onlyKnownOrigin() {\n    require(whitelist(msg.sender));\n    _;\n  }\n\n  modifier onlyAvailableEdition(uint256 _editionNumber) {\n    require(editionNumberToEditionDetails[_editionNumber].totalSupply < editionNumberToEditionDetails[_editionNumber].totalAvailable, \"No more editions left to purchase\");\n    _;\n  }\n\n  modifier onlyActiveEdition(uint256 _editionNumber) {\n    require(editionNumberToEditionDetails[_editionNumber].active, \"Edition not active\");\n    _;\n  }\n\n  modifier onlyRealEdition(uint256 _editionNumber) {\n    require(editionNumberToEditionDetails[_editionNumber].editionNumber > 0, \"Edition number invalid\");\n    _;\n  }\n\n  modifier onlyValidTokenId(uint256 _tokenId) {\n    require(exists(_tokenId), \"Token ID does not exist\");\n    _;\n  }\n\n  modifier onlyPurchaseDuringWindow(uint256 _editionNumber) {\n    require(editionNumberToEditionDetails[_editionNumber].startDate <= block.timestamp, \"Edition not available yet\");\n    require(editionNumberToEditionDetails[_editionNumber].endDate >= block.timestamp, \"Edition no longer available\");\n    _;\n  }\n\n  /*\n   * Constructor\n   */\n  constructor () public payable ERC721Token(\"KnownOriginDigitalAsset\", \"KODA\") {\n    // Assume the commission account is the creator for now\n    koCommissionAccount = msg.sender;\n    // Whitelist owner\n    addAddressToWhitelist(msg.sender);\n  }\n\n  /**\n   * @dev Creates an active edition from the given configuration\n   * @dev Only callable from KO staff/addresses\n   */\n  function createActiveEdition(\n    uint256 _editionNumber,\n    bytes32 _editionData,\n    uint256 _editionType,\n    uint256 _startDate,\n    uint256 _endDate,\n    address _artistAccount,\n    uint256 _artistCommission,\n    uint256 _priceInWei,\n    string _tokenURI,\n    uint256 _totalAvailable\n  )\n  public\n  onlyKnownOrigin\n  returns (bool)\n  {\n    return _createEdition(_editionNumber, _editionData, _editionType, _startDate, _endDate, _artistAccount, _artistCommission, _priceInWei, _tokenURI, _totalAvailable, true);\n  }\n\n  /**\n   * @dev Creates an inactive edition from the given configuration\n   * @dev Only callable from KO staff/addresses\n   */\n  function createInactiveEdition(\n    uint256 _editionNumber,\n    bytes32 _editionData,\n    uint256 _editionType,\n    uint256 _startDate,\n    uint256 _endDate,\n    address _artistAccount,\n    uint256 _artistCommission,\n    uint256 _priceInWei,\n    string _tokenURI,\n    uint256 _totalAvailable\n  )\n  public\n  onlyKnownOrigin\n  returns (bool)\n  {\n    return _createEdition(_editionNumber, _editionData, _editionType, _startDate, _endDate, _artistAccount, _artistCommission, _priceInWei, _tokenURI, _totalAvailable, false);\n  }\n\n  /**\n   * @dev Creates an active edition from the given configuration\n   * @dev The concept of pre0minted editions means we can 'undermint' token IDS, good for holding back editions from public sale\n   * @dev Only callable from KO staff/addresses\n   */\n  function createActivePreMintedEdition(\n    uint256 _editionNumber,\n    bytes32 _editionData,\n    uint256 _editionType,\n    uint256 _startDate,\n    uint256 _endDate,\n    address _artistAccount,\n    uint256 _artistCommission,\n    uint256 _priceInWei,\n    string _tokenURI,\n    uint256 _totalSupply,\n    uint256 _totalAvailable\n  )\n  public\n  onlyKnownOrigin\n  returns (bool)\n  {\n    _createEdition(_editionNumber, _editionData, _editionType, _startDate, _endDate, _artistAccount, _artistCommission, _priceInWei, _tokenURI, _totalAvailable, true);\n    updateTotalSupply(_editionNumber, _totalSupply);\n    return true;\n  }\n\n  /**\n   * @dev Creates an inactive edition from the given configuration\n   * @dev The concept of pre0minted editions means we can 'undermint' token IDS, good for holding back editions from public sale\n   * @dev Only callable from KO staff/addresses\n   */\n  function createInactivePreMintedEdition(\n    uint256 _editionNumber,\n    bytes32 _editionData,\n    uint256 _editionType,\n    uint256 _startDate,\n    uint256 _endDate,\n    address _artistAccount,\n    uint256 _artistCommission,\n    uint256 _priceInWei,\n    string _tokenURI,\n    uint256 _totalSupply,\n    uint256 _totalAvailable\n  )\n  public\n  onlyKnownOrigin\n  returns (bool)\n  {\n    _createEdition(_editionNumber, _editionData, _editionType, _startDate, _endDate, _artistAccount, _artistCommission, _priceInWei, _tokenURI, _totalAvailable, false);\n    updateTotalSupply(_editionNumber, _totalSupply);\n    return true;\n  }\n\n  /**\n   * @dev Internal factory method for building editions\n   */\n  function _createEdition(\n    uint256 _editionNumber,\n    bytes32 _editionData,\n    uint256 _editionType,\n    uint256 _startDate,\n    uint256 _endDate,\n    address _artistAccount,\n    uint256 _artistCommission,\n    uint256 _priceInWei,\n    string _tokenURI,\n    uint256 _totalAvailable,\n    bool _active\n  )\n  internal\n  returns (bool)\n  {\n    // Prevent missing edition number\n    require(_editionNumber != 0, \"Edition number not provided\");\n\n    // Prevent missing types\n    require(_editionType != 0, \"Edition type not provided\");\n\n    // prevent missing token URI\n    require(bytes(_tokenURI).length != 0, \"Token URI is missing\");\n\n    // prevent empty artists address\n    require(_artistAccount != address(0), \"Artist account not provided\");\n\n    // Prevent commission of greater than 100% and less than 0%\n    require(_artistCommission <= 100 && _artistCommission >= 0, \"Artist commission cannot be greater than 100 or less than 0\");\n\n    // prevent duplicate editions\n    require(editionNumberToEditionDetails[_editionNumber].editionNumber == 0, \"Edition already in existence\");\n\n    // Default end date to max uint256\n    uint256 endDate = _endDate;\n    if (_endDate == 0) {\n      endDate = MAX_UINT32;\n    }\n\n    editionNumberToEditionDetails[_editionNumber] = EditionDetails({\n      editionNumber : _editionNumber,\n      editionData : _editionData,\n      editionType : _editionType,\n      startDate : _startDate,\n      endDate : endDate,\n      artistAccount : _artistAccount,\n      artistCommission : _artistCommission,\n      priceInWei : _priceInWei,\n      tokenURI : _tokenURI,\n      totalSupply : 0, // default to all available\n      totalAvailable : _totalAvailable,\n      active : _active\n      });\n\n    // Add to total available count\n    totalNumberAvailable = totalNumberAvailable.add(_totalAvailable);\n\n    // Update mappings\n    _updateArtistLookupData(_artistAccount, _editionNumber);\n    _updateEditionTypeLookupData(_editionType, _editionNumber);\n\n    emit EditionCreated(_editionNumber, _editionData, _editionType);\n\n    return true;\n  }\n\n  function _updateEditionTypeLookupData(uint256 _editionType, uint256 _editionNumber) internal {\n    uint256 typeEditionIndex = editionTypeToEditionNumber[_editionType].length;\n    editionTypeToEditionNumber[_editionType].push(_editionNumber);\n    editionNumberToTypeIndex[_editionNumber] = typeEditionIndex;\n  }\n\n  function _updateArtistLookupData(address _artistAccount, uint256 _editionNumber) internal {\n    uint256 artistEditionIndex = artistToEditionNumbers[_artistAccount].length;\n    artistToEditionNumbers[_artistAccount].push(_editionNumber);\n    editionNumberToArtistIndex[_editionNumber] = artistEditionIndex;\n  }\n\n  /**\n   * @dev Public entry point for purchasing an edition\n   * @dev Reverts if edition is invalid\n   * @dev Reverts if payment not provided in full\n   * @dev Reverts if edition is sold out\n   * @dev Reverts if edition is not active or available\n   */\n  function purchase(uint256 _editionNumber)\n  public payable\n  returns (uint256)\n  {\n    return purchaseTo(msg.sender, _editionNumber);\n  }\n\n  /**\n   * @dev Public entry point for purchasing an edition on behalf of someone else\n   * @dev Reverts if edition is invalid\n   * @dev Reverts if payment not provided in full\n   * @dev Reverts if edition is sold out\n   * @dev Reverts if edition is not active or available\n   */\n  function purchaseTo(address _to, uint256 _editionNumber)\n  public payable\n  whenNotPaused\n  onlyRealEdition(_editionNumber)\n  onlyActiveEdition(_editionNumber)\n  onlyAvailableEdition(_editionNumber)\n  onlyPurchaseDuringWindow(_editionNumber)\n  returns (uint256) {\n\n    EditionDetails storage _editionDetails = editionNumberToEditionDetails[_editionNumber];\n    require(msg.value >= _editionDetails.priceInWei);\n\n    // Construct next token ID e.g. 100000 + 1 = ID of 100001 (this first in the edition set)\n    uint256 _tokenId = _nextTokenId(_editionNumber);\n\n    // Create the token\n    _mintToken(_to, _tokenId, _editionNumber, _editionDetails.tokenURI);\n\n    // Splice funds and handle commissions\n    _handleFunds(_editionNumber, _editionDetails.priceInWei, _editionDetails.artistAccount, _editionDetails.artistCommission);\n\n    // Broadcast purchase\n    emit Purchase(_tokenId, _editionNumber, _to, msg.value);\n\n    return _tokenId;\n  }\n\n  /**\n   * @dev Private (KO only) method for minting editions\n   * @dev Payment not needed for this method\n   */\n  function mint(address _to, uint256 _editionNumber)\n  public\n  onlyKnownOrigin\n  onlyRealEdition(_editionNumber)\n  onlyAvailableEdition(_editionNumber)\n  returns (uint256) {\n    // Construct next token ID e.g. 100000 + 1 = ID of 100001 (this first in the edition set)\n    uint256 _tokenId = _nextTokenId(_editionNumber);\n\n    // Create the token\n    _mintToken(_to, _tokenId, _editionNumber, editionNumberToEditionDetails[_editionNumber].tokenURI);\n\n    // Create the token\n    return _tokenId;\n  }\n\n  /**\n   * @dev Private (KO only) method for under minting editions\n   * @dev Under minting allows for missing token IDs to be back filled if total supply is not set to zero by default\n   * @dev Payment not needed for this method\n   */\n  function underMint(address _to, uint256 _editionNumber)\n  public\n  onlyKnownOrigin\n  onlyRealEdition(_editionNumber)\n  returns (uint256) {\n    // Under mint token, meaning it takes one from the already sold version\n    uint256 _tokenId = _underMintNextTokenId(_editionNumber);\n\n    // TODO do we need to prevent under minting over the total supply?\n\n    // If the next tokenId generate is more than the available number, abort as we have reached maximum under mint\n    if (_tokenId > _editionNumber.add(editionNumberToEditionDetails[_editionNumber].totalAvailable)) {\n      revert(\"Reached max tokenId, cannot under mint anymore\");\n    }\n\n    // Create the token\n    _mintToken(_to, _tokenId, _editionNumber, editionNumberToEditionDetails[_editionNumber].tokenURI);\n\n    // Create the token\n    return _tokenId;\n  }\n\n  function _nextTokenId(uint256 _editionNumber) internal returns (uint256) {\n    EditionDetails storage _editionDetails = editionNumberToEditionDetails[_editionNumber];\n\n    // Bump number totalSupply\n    _editionDetails.totalSupply = _editionDetails.totalSupply.add(1);\n\n    // Construct next token ID e.g. 100000 + 1 = ID of 100001 (this first in the edition set)\n    return _editionDetails.editionNumber.add(_editionDetails.totalSupply);\n  }\n\n  function _underMintNextTokenId(uint256 _editionNumber) internal returns (uint256) {\n    EditionDetails storage _editionDetails = editionNumberToEditionDetails[_editionNumber];\n\n    // For old editions start the counter as edition + 1\n    uint256 _tokenId = _editionDetails.editionNumber.add(1);\n\n    // Work your way up until you find a free token based on the new _tokenIdd\n    while (exists(_tokenId)) {\n      _tokenId = _tokenId.add(1);\n    }\n\n    // Bump number totalSupply if we are now over minting new tokens\n    if (_tokenId > _editionDetails.editionNumber.add(_editionDetails.totalSupply)) {\n      _editionDetails.totalSupply = _editionDetails.totalSupply.add(1);\n    }\n\n    return _tokenId;\n  }\n\n  function _mintToken(address _to, uint256 _tokenId, uint256 _editionNumber, string _tokenURI) internal {\n\n    // Mint new base token\n    super._mint(_to, _tokenId);\n    super._setTokenURI(_tokenId, _tokenURI);\n\n    // Maintain mapping for tokenId to edition for lookup\n    tokenIdToEditionNumber[_tokenId] = _editionNumber;\n\n    // Get next insert position for edition to token Id mapping\n    uint256 currentIndexOfTokenId = editionNumberToTokenIds[_editionNumber].length;\n\n    // Maintain mapping of edition to token array for \"edition minted tokens\"\n    editionNumberToTokenIds[_editionNumber].push(_tokenId);\n\n    // Maintain a position index for the tokenId within the edition number mapping array, used for clean up token burn\n    editionNumberToTokenIdIndex[_tokenId] = currentIndexOfTokenId;\n\n    // Record sale volume\n    totalNumberMinted = totalNumberMinted.add(1);\n\n    // Emit minted event\n    emit Minted(_tokenId, _editionNumber, _to);\n  }\n\n  function _handleFunds(uint256 _editionNumber, uint256 _priceInWei, address _artistAccount, uint256 _artistCommission) internal {\n\n    // Extract the artists commission and send it\n    uint256 artistPayment = _priceInWei.div(100).mul(_artistCommission);\n    if (artistPayment > 0) {\n      _artistAccount.transfer(artistPayment);\n    }\n\n    // Load any commission overrides\n    CommissionSplit storage commission = editionNumberToOptionalCommissionSplit[_editionNumber];\n\n    // Apply optional commission structure\n    if (commission.rate > 0) {\n      uint256 rateSplit = _priceInWei.div(100).mul(commission.rate);\n      commission.recipient.transfer(rateSplit);\n    }\n\n    // Send remaining eth to KO\n    uint256 remainingCommission = msg.value.sub(artistPayment).sub(rateSplit);\n    koCommissionAccount.transfer(remainingCommission);\n\n    // Record wei sale value\n    totalPurchaseValueInWei = totalPurchaseValueInWei.add(msg.value);\n  }\n\n  /**\n   * @dev Private (KO only) method for burning tokens which have been created incorrectly\n   */\n  function burn(uint256 _tokenId) public onlyKnownOrigin {\n\n    // Clear from parents\n    super._burn(ownerOf(_tokenId), _tokenId);\n\n    // Get hold of the edition for cleanup\n    uint256 _editionNumber = tokenIdToEditionNumber[_tokenId];\n\n    // Delete token ID mapping\n    delete tokenIdToEditionNumber[_tokenId];\n\n    // Delete tokens associated to the edition - this will leave a gap in the array of zero\n    uint256[] storage tokenIdsForEdition = editionNumberToTokenIds[_editionNumber];\n    uint256 editionTokenIdIndex = editionNumberToTokenIdIndex[_tokenId];\n    delete tokenIdsForEdition[editionTokenIdIndex];\n  }\n\n  /**\n   * @dev An extension to the default ERC721 behaviour, derived from ERC-875.\n   * @dev Allowing for batch transfers from the sender, will fail if from does not own all the tokens\n   */\n  function batchTransfer(address _to, uint256[] _tokenIds) public {\n    for (uint i = 0; i < _tokenIds.length; i++) {\n      safeTransferFrom(ownerOf(_tokenIds[i]), _to, _tokenIds[i]);\n    }\n  }\n\n  /**\n   * @dev An extension to the default ERC721 behaviour, derived from ERC-875.\n   * @dev Allowing for batch transfers from the provided address, will fail if from does not own all the tokens\n   */\n  function batchTransferFrom(address _from, address _to, uint256[] _tokenIds) public {\n    for (uint i = 0; i < _tokenIds.length; i++) {\n      transferFrom(_from, _to, _tokenIds[i]);\n    }\n  }\n\n  ///////////////////////////\n  // Edition/Token Updates //\n  ///////////////////////////\n\n  function updateTokenBaseURI(string _newBaseURI)\n  external\n  onlyKnownOrigin {\n    require(bytes(_newBaseURI).length != 0, \"Base URI invalid\");\n    tokenBaseURI = _newBaseURI;\n  }\n\n  function setTokenURI(uint256 _tokenId, string _uri)\n  external\n  onlyKnownOrigin\n  onlyValidTokenId(_tokenId) {\n    _setTokenURI(_tokenId, _uri);\n  }\n\n  function updateEditionTokenURI(uint256 _editionNumber, string _uri)\n  external\n  onlyKnownOrigin\n  onlyRealEdition(_editionNumber) {\n    editionNumberToEditionDetails[_editionNumber].tokenURI = _uri;\n  }\n\n  function updatePriceInWei(uint256 _editionNumber, uint256 _priceInWei)\n  external\n  onlyKnownOrigin\n  onlyRealEdition(_editionNumber) {\n    editionNumberToEditionDetails[_editionNumber].priceInWei = _priceInWei;\n  }\n\n  function updateArtistsAccount(uint256 _editionNumber, address _artistAccount)\n  external\n  onlyKnownOrigin\n  onlyRealEdition(_editionNumber) {\n\n    EditionDetails storage _originalEditionDetails = editionNumberToEditionDetails[_editionNumber];\n\n    uint256 editionArtistIndex = editionNumberToArtistIndex[_editionNumber];\n\n    // Get list of editions old artist works with\n    uint256[] storage editionNumbersForArtist = artistToEditionNumbers[_originalEditionDetails.artistAccount];\n\n    // Remove edition from artists lists\n    delete editionNumbersForArtist[editionArtistIndex];\n\n    // Add new artists to the list\n    uint256 newArtistsEditionIndex = artistToEditionNumbers[_artistAccount].length;\n    artistToEditionNumbers[_artistAccount].push(_editionNumber);\n    editionNumberToArtistIndex[_editionNumber] = newArtistsEditionIndex;\n\n    // Update the edition\n    editionNumberToEditionDetails[_editionNumber].artistAccount = _artistAccount;\n  }\n\n  function updateEditionType(uint256 _editionNumber, uint256 _editionType)\n  external\n  onlyKnownOrigin\n  onlyRealEdition(_editionNumber) {\n\n    EditionDetails storage _originalEditionDetails = editionNumberToEditionDetails[_editionNumber];\n\n    uint256 editionTypeIndex = editionNumberToTypeIndex[_editionNumber];\n\n    // Get list of editions for old type\n    uint256[] storage editionNumbersForType = editionTypeToEditionNumber[_originalEditionDetails.editionType];\n\n    // Remove edition from old type list\n    delete editionNumbersForType[editionTypeIndex];\n\n    // Add new type to the list\n    uint256 newTypeEditionIndex = editionTypeToEditionNumber[_editionType].length;\n    editionTypeToEditionNumber[_editionType].push(_editionNumber);\n    editionNumberToTypeIndex[_editionNumber] = newTypeEditionIndex;\n\n    // Update the edition\n    editionNumberToEditionDetails[_editionNumber].editionType = _editionType;\n  }\n\n  function updateActive(uint256 _editionNumber, bool _active)\n  external\n  onlyKnownOrigin\n  onlyRealEdition(_editionNumber) {\n    EditionDetails storage _editionDetails = editionNumberToEditionDetails[_editionNumber];\n    _editionDetails.active = _active;\n  }\n\n  function updateTotalSupply(uint256 _editionNumber, uint256 _totalSupply)\n  public\n  onlyKnownOrigin\n  onlyRealEdition(_editionNumber) {\n    require(tokensOfEdition(_editionNumber).length <= _totalSupply, \"Cant lower totalSupply to below the number of tokens already in existence\");\n    EditionDetails storage _editionDetails = editionNumberToEditionDetails[_editionNumber];\n    _editionDetails.totalSupply = _totalSupply;\n  }\n\n  function updateTotalAvailable(uint256 _editionNumber, uint256 _totalAvailable)\n  external\n  onlyKnownOrigin\n  onlyRealEdition(_editionNumber) {\n    require(editionNumberToEditionDetails[_editionNumber].totalSupply <= _totalAvailable, \"Unable to reduce available amount to the below the number totalSupply\");\n\n    uint256 originalAvailability = editionNumberToEditionDetails[_editionNumber].totalAvailable;\n\n    editionNumberToEditionDetails[_editionNumber].totalAvailable = _totalAvailable;\n\n    totalNumberAvailable = totalNumberAvailable.sub(originalAvailability).add(_totalAvailable);\n  }\n\n  function updateStartDate(uint256 _editionNumber, uint256 _startDate)\n  external\n  onlyKnownOrigin\n  onlyRealEdition(_editionNumber) {\n    editionNumberToEditionDetails[_editionNumber].startDate = _startDate;\n  }\n\n  function updateEndDate(uint256 _editionNumber, uint256 _endDate)\n  external\n  onlyKnownOrigin\n  onlyRealEdition(_editionNumber) {\n    editionNumberToEditionDetails[_editionNumber].endDate = _endDate;\n  }\n\n  function updateKoCommissionAccount(address _koCommissionAccount)\n  external\n  onlyKnownOrigin {\n    require(_koCommissionAccount != address(0), \"Invalid address\");\n    koCommissionAccount = _koCommissionAccount;\n  }\n\n  function updateOptionalCommission(uint256 _editionNumber, uint256 _rate, address _recipient)\n  external\n  onlyKnownOrigin {\n    EditionDetails storage _editionDetails = editionNumberToEditionDetails[_editionNumber];\n    uint256 artistCommission = _editionDetails.artistCommission;\n\n    if (_rate > 0) {\n      require(_recipient != address(0), \"Setting a rate must be accompanied by a valid address\");\n    }\n    require(artistCommission.add(_rate) <= 100, \"Cant set commission greater than 100%\");\n\n    editionNumberToOptionalCommissionSplit[_editionNumber] = CommissionSplit({rate : _rate, recipient : _recipient});\n  }\n\n  ///////////////////\n  // Query Methods //\n  ///////////////////\n\n  function editionsOfType(uint256 _type) public view returns (uint256[] _editionNumbers) {\n    return editionTypeToEditionNumber[_type];\n  }\n\n  function editionOfTokenId(uint256 _tokenId) public view returns (uint256 _editionNumber) {\n    return tokenIdToEditionNumber[_tokenId];\n  }\n\n  function artistsEditions(address _artistsAccount) public view returns (uint256[] _editionNumbers) {\n    return artistToEditionNumbers[_artistsAccount];\n  }\n\n  function tokensOfEdition(uint256 _editionNumber) public view returns (uint256[] _tokenIds) {\n    return editionNumberToTokenIds[_editionNumber];\n  }\n\n  function editionOptionalCommission(uint256 _editionNumber) public view returns (uint256 _rate, address _recipient) {\n    CommissionSplit storage commission = editionNumberToOptionalCommissionSplit[_editionNumber];\n    return (\n    commission.rate,\n    commission.recipient\n    );\n  }\n\n  function allEditionData(uint256 editionNumber)\n  public view\n  onlyRealEdition(editionNumber)\n  returns (\n    bytes32 _editionData,\n    uint256 _editionType,\n    uint256 _startDate,\n    uint256 _endDate,\n    address _artistAccount,\n    uint256 _artistCommission,\n    uint256 _priceInWei,\n    string _tokenURI,\n    uint256 _totalSupply,\n    uint256 _totalAvailable,\n    bool _active\n  ) {\n    EditionDetails storage _editionDetails = editionNumberToEditionDetails[editionNumber];\n    return (\n    _editionDetails.editionData,\n    _editionDetails.editionType,\n    _editionDetails.startDate,\n    _editionDetails.endDate,\n    _editionDetails.artistAccount,\n    _editionDetails.artistCommission,\n    _editionDetails.priceInWei,\n    Strings.strConcat(tokenBaseURI, _editionDetails.tokenURI),\n    _editionDetails.totalSupply,\n    _editionDetails.totalAvailable,\n    _editionDetails.active\n    );\n  }\n\n  function tokenData(uint256 _tokenId)\n  public view\n  onlyValidTokenId(_tokenId)\n  returns (\n    uint256 _editionNumber,\n    uint256 _editionType,\n    bytes32 _editionData,\n    string _tokenURI,\n    address _owner\n  ) {\n    uint256 editionNumber = tokenIdToEditionNumber[_tokenId];\n    EditionDetails storage editionDetails = editionNumberToEditionDetails[editionNumber];\n    return (\n    editionNumber,\n    editionDetails.editionType,\n    editionDetails.editionData,\n    tokenURI(_tokenId),\n    ownerOf(_tokenId)\n    );\n  }\n\n  function tokenURI(uint256 _tokenId)\n  public view\n  onlyValidTokenId(_tokenId)\n  returns (string) {\n    return Strings.strConcat(tokenBaseURI, tokenURIs[_tokenId]);\n  }\n\n  function tokenURISafe(uint256 _tokenId) public view returns (string) {\n    return Strings.strConcat(tokenBaseURI, tokenURIs[_tokenId]);\n  }\n\n  function tokenURIEdition(uint256 _editionNumber) public view returns (string) {\n    EditionDetails storage _editionDetails = editionNumberToEditionDetails[_editionNumber];\n    return Strings.strConcat(tokenBaseURI, _editionDetails.tokenURI);\n  }\n\n  function tokensOf(address _owner) public view returns (uint256[] _tokenIds) {\n    return ownedTokens[_owner];\n  }\n\n  function totalRemaining(uint256 _editionNumber) public view returns (uint256) {\n    EditionDetails storage _editionDetails = editionNumberToEditionDetails[_editionNumber];\n    return _editionDetails.totalAvailable.sub(_editionDetails.totalSupply);\n  }\n\n  function editionExists(uint256 _editionNumber) public view returns (bool) {\n    EditionDetails storage editionNumber = editionNumberToEditionDetails[_editionNumber];\n    return editionNumber.editionNumber == _editionNumber;\n  }\n\n  function editionTotalAvailable(uint256 _editionNumber) public view returns (uint256) {\n    EditionDetails storage _editionDetails = editionNumberToEditionDetails[_editionNumber];\n    return _editionDetails.totalAvailable;\n  }\n\n  function editionTotalSupply(uint256 _editionNumber) public view returns (uint256) {\n    EditionDetails storage _editionDetails = editionNumberToEditionDetails[_editionNumber];\n    return _editionDetails.totalSupply;\n  }\n\n  function editionActive(uint256 _editionNumber) public view returns (bool) {\n    EditionDetails storage _editionDetails = editionNumberToEditionDetails[_editionNumber];\n    return _editionDetails.active;\n  }\n\n  function purchaseDatesToken(uint256 _tokenId) public view returns (uint256 _startDate, uint256 _endDate) {\n    uint256 _editionNumber = tokenIdToEditionNumber[_tokenId];\n    return purchaseDatesEdition(_editionNumber);\n  }\n\n  function purchaseDatesEdition(uint256 _editionNumber) public view returns (uint256 _startDate, uint256 _endDate) {\n    EditionDetails storage _editionDetails = editionNumberToEditionDetails[_editionNumber];\n    return (\n    _editionDetails.startDate,\n    _editionDetails.endDate\n    );\n  }\n\n  function priceInWeiToken(uint256 _tokenId) public view returns (uint256 _priceInWei) {\n    uint256 _editionNumber = tokenIdToEditionNumber[_tokenId];\n    return priceInWeiEdition(_editionNumber);\n  }\n\n  function priceInWeiEdition(uint256 _editionNumber) public view returns (uint256 _priceInWei) {\n    EditionDetails storage _editionDetails = editionNumberToEditionDetails[_editionNumber];\n    return _editionDetails.priceInWei;\n  }\n}\n",
  "sourcePath": "/Users/jamesmorgan/Dropbox/workspace-blockrocket/known-origin-web3-marketplace/contracts/v2/KnownOriginDigitalAssetV2.sol",
  "compiler": {
    "name": "solc",
    "version": "0.4.24+commit.e67f0147.Emscripten.clang"
  },
  "schemaVersion": "2.0.1",
  "updatedAt": "2018-08-28T11:44:51.879Z"
}